:020000021000EC
:10B000000040002089070200C9070200CB070200A8
:10B010000000000000000000000000000000000030
:10B02000000000000000000000000000CD0702004A
:10B030000000000000000000CF070200D10702005E
:10B04000D3070200D3070200E5FA0100A5DD0100E5
:10B05000D30702000000000019D40100D30702004A
:10B06000C1D60100D3070200D3070200D3070200B4
:10B07000D3070200D3070200D3070200D307020060
:10B08000D3070200C9C40100D3070200D30702009E
:10B09000A5C50100D3070200F9060200D30702008C
:10B0A000D3070200D30702000000000000000000E8
:10B0B0000000000000000000000000000000000090
:10B0C00010B5064C2378002B07D1054B002B02D07E
:10B0D000044800E000BF0123237010BD9828002021
:10B0E000000000004017020008B5084B002B03D0F9
:10B0F0000748084900E000BF07480368002B00D15B
:10B1000008BD064B002BFBD09847F9E70000000074
:10B11000401702009C280020942800200000000016
:10B12000164B002B00D1144B9D46402292029A1AD6
:10B13000924600218B460F461348144A121A00F01B
:10B1400067F80F4B002B00D098470E4B002B00D018
:10B1500098470020002104000D000D48002802D06F
:10B160000C4800E000BF00F02DF82000290000F09E
:10B170005BF800F011F8C046000008000040002015
:10B18000000000000000000098280020E02F0020B0
:10B190000000000000000000084B10B5041C002B4C
:10B1A00002D0002100E000BF054B1868836A002B25
:10B1B00000D09847201C00F033F8C0460000000083
:10B1C000341302000E4B70B500251E1C0D4CE41A02
:10B1D000A410A54204D0AB00F35898470135F8E716
:10B1E00006F09AF8084B00251E1C084CE41AA4101F
:10B1F000A54204D0AB00F35898470135F8E770BD7D
:10B200008C2800208C2800208C28002090280020EA
:10B21000031C8218934202D019700133FAE7704779
:10B22000FEE7C04648DF704708B5002005210E4AFA
:10B23000002301F0DBFB002801D001F0EBF8A02394
:10B24000A3218022DB05C9005A5008495A5000F05A
:10B2500045F801F095F801F0DBF8FFF7E3FF00286F
:10B26000F9D001F0D7F8F6E7B42800200C0500006B
:10B2700030B5037883B0012B03D0002B06D0022B0E
:10B2800002D1406801F0C6F803B030BD6B46DC1D4A
:10B29000201C02F035F82378662BF5D1054CA51D4E
:10B2A0002078013402F046F8AC42F9D10D2002F0CA
:10B2B00041F8E9E74413020038B500290AD0041C1C
:10B2C0004D1EEDB2013545192078013402F032F8F7
:10B2D000AC42F9D10D2002F02DF838BD30B589B05F
:10B2E00001A8021C0B4B32CB32C20B4B04A90493B6
:10B2F00001230593094B0A4A069380235B000793B9
:10B30000FD3B01F0ABFF002801D001F083F809B04C
:10B3100030BDC046381302007C2A0020802A00205D
:10B3200071B2010008B5002829D1174B17481A78C7
:10B33000597812020A4302809A78D97812020A4395
:10B3400042801A79597912020A4382809A79D9790E
:10B3500012020A43C2801A7A597A12020A430281FF
:10B360009A7AD97A12020A4342811A7B5B7B1202D3
:10B3700013438381064B07211B68984708BD054886
:10B380001821FFF799FFF9E7902B0020802B002070
:10B39000C42B0020A413020008B50548054901F09C
:10B3A0000BFE002801D001F035F8012008BDC04691
:10B3B0006428002094130200F0B50C2185B0071C0E
:10B3C0002848FFF779FF284801F0C6FE6A46274B58
:10B3D0006C4623CB23C2264D1B68281C136069468C
:10B3E0000822244B01F0C8FD002801D001F012F81A
:10B3F000281C21490222002301F014FE002827D135
:10B400001E4E3378682B06D01D481421FFF754FFD9
:10B41000002005B0F0BD3B68002B1CD0194A281C49
:10B42000136019490622002301F0FCFD002801D019
:10B4300000F0F0FF32781549201C05F057FB201C66
:10B4400005F076FBC1B2201CFFF736FF0120E0E7D4
:10B4500000F0E0FFD4E70E482221FFF72DFF002087
:10B46000D7E7C046C0130200B80B00004C1302001F
:10B4700064280020A02B002078130200902B0020CD
:10B48000FC130200C42B002018140200D013020089
:10B49000D813020072DF704773DF704774DF7047A4
:10B4A00076DF704778DF70477ADF70477CDF704760
:10B4B0007FDF7047A9DF70477047C04608B500F0CE
:10B4C000A9FF08BD10B5041C04F076FF2148211C1B
:10B4D00000F0F4F92388103B9BB2452B0CD81E4A90
:10B4E0009B00D3589F461D4B13211888FFF7D8FFA8
:10B4F000002801D000F08EFF10BD237A002B06D16A
:10B500001748FFF7C9FF002801D000F083FFA28889
:10B51000124B1A80F0E70122104B524210481A8059
:10B52000FFF7BAFF0028E7D0E4E70C4B8521188825
:10B5300000220023FFF7BCFF0028DDD0DAE7074B2D
:10B540000021188800220023FFF7B4FF0028D3D081
:10B55000D0E7C046102C00204814020088280020A4
:10B56000442C002008B50378002B00D008BD054B03
:10B570003B211888FFF794FF0028F7D000F04AFF1E
:10B58000F4E7C046882800204B1E70B5072B1DD855
:10B5900000281BD00C1C051CFFF780FF00281CD1C5
:10B5A0000F4E291C221C301C05F096FA301C0D4A47
:10B5B0000A38137813210133DBB2FFF76BFF002841
:10B5C00008D10948FFF768FF002800D170BD00F0DE
:10B5D00021FFFBE700F01EFFF3E700F01BFFDFE7B2
:10B5E000C22F0020982F0020442C002070B5224C40
:10B5F00086B022491322201C05F06EFA204E301C22
:10B6000005F096FA08231F4D0130C2B22A70311C92
:10B61000013AA81C6B7005F05FFA2B78201C0133EF
:10B62000DBB213212A1CFFF735FF002801D000F000
:10B63000F1FE154C18220021201CFFF7E9FD002324
:10B64000237063602372E360A0331049238201A852
:10B65000643B638205F04AFA01A805F069FAC1B2B9
:10B6600001A8FFF729FE201CFFF716FF002801D0D4
:10B6700000F0D0FE06B070BDB82F002064150200A7
:10B680007C280020982F0020442C002078150200F0
:10B6900070B59AB005AD77490422281C05F01CFA54
:10B6A000281C75494822002304F0D4FF002800D04C
:10B6B000DCE00AAC00200121221C05F035F800284E
:10B6C00000D0D0E06D4805F047F8002800D0C7E072
:10B6D000201C05F04BF8002800D0BEE0684804F0BC
:10B6E000F7FF002801D000F095FE0023654E2B7077
:10B6F000301C05F01DFA311C82B2281CFFF7D6FE63
:10B70000002800D0A6E0C0204000FFF7CBFE0028B4
:10B7100000D09CE0201C00210822FFF779FD502377
:10B720002380503363800023A3809133FF33201C98
:10B73000E380FFF7B9FE002801D000F06BFE002186
:10B740001422281CFFF764FD0F22012110206B7BBF
:10B7500093430B43134003436B73AB7B93430B4304
:10B7600013400343AB730023EB732B7C93431943C8
:10B770000A40024300232A7401224348291C0593EE
:10B780002A71AB602B7304F087FA00285CD1402249
:10B790000021201CFFF73CFD10A83C4904F064FE8A
:10B7A00012A83B4904F060FE201C3A4904F05CFEFC
:10B7B000394B3A491A6802A805F098F90EA802A96F
:10B7C00004F052FE3C210F200122635C83431343AB
:10B7D000102203401343635400223D23201CE254F3
:10B7E00004F0B0FB00282CD1002101A80422FFF7AF
:10B7F0000FFD2B4B2B4801A9019300F0A7F800285F
:10B8000001D000F007FE1C22201C0021FFF700FDE4
:10B81000A02292026260F02200231203A26003229F
:10B820000A93E3812374204B201C63611F4B227316
:10B83000A36104F085FD002801D000F0EBFD1AB0F3
:10B8400070BD00F0E7FDCFE700F0E4FD9FE700F0FA
:10B85000E1FD5FE700F0DEFD55E700F0DBFD3DE7D1
:10B8600000F0D8FD34E700F0D5FD2BE700F0D2FD65
:10B870001FE7C04660150200C82B0020E81F00200B
:10B88000C5B401008C1502005C2C00209815020044
:10B89000A0150200A815020080100010B4150200C7
:10B8A000B9B40100102C002065B50100BDB4010041
:10B8B000A0DF7047A2DF704763DF704770B50028D4
:10B8C00008D0002906D00B88112B24D0502B02D091
:10B8D000102B1DD070BD8D1D6A89002AFAD00E1C58
:10B8E000041CCB8880881236984218D0A0899842D0
:10B8F0001ED0A08A98421DD0A08B984223D0A18C44
:10B900009942E7D1012AE5D1287B00F021FDE1E74A
:10B910008B888385DEE701235B428385DAE700209D
:10B92000311C012200F09AFA236B201C9847D1E7C2
:10B930000120F5E70220311C022200F08FFA236B70
:10B94000201C9847C6E70420F5E7C046F0B54D46F1
:10B95000564644465F461023F0B495B0061C0D1CB5
:10B9600004A80E49102299460E2405F0B5F8002EC1
:10B970000CD0002D0AD001235B42B3852B6804A8AC
:10B980003363311CFFF798FF041E09D0201C15B04B
:10B990003CBC90469946A246AB46F0BDB8150200A5
:10B9A000337802A98B700123B21C01209A460B80C8
:10B9B000FFF77EFF041EE9D10DAD00211C22281CDB
:10B9C000FFF726FC02222B7800211343DBB206325C
:10B9D0001343043A13436A462B70337801A89373D8
:10B9E0006B4602229A8103226C60EC602C616C61D0
:10B9F000AC61FFF70DFC0F226B4693461B7908AF35
:10BA000093430E3A13435A4613401022904642463F
:10BA100013436A46137153795A4693430E3A1343BC
:10BA20005A461340424613436A465371937906229D
:10BA30009343043A1343DBB2063293434A4693439B
:10BA4000524693436A4600219371381C1422FFF733
:10BA5000DFFB03AB089301AB7B60534670883B81EF
:10BA6000BB81291C331D3A1C7C813C61FFF722FFFE
:10BA7000041E00D08AE700211C22281CFFF7C8FB07
:10BA800002222B7800211343DBB206321343043A1F
:10BA900013436A462B70337801A893730423938170
:10BAA00003226C60EC602C616C61AC61FFF7B0FB51
:10BAB0006B465A461B79002193430E3A13435A466C
:10BAC0001340424613436A46137153795A469343CF
:10BAD0000E3A13435A461340424613436A46537183
:10BAE000937906229343043A1343DBB2063293431D
:10BAF0004A469343524693436A46381C9371142234
:10BB0000FFF786FB03AB089301AB7B6053463B8199
:10BB1000BB81331C7088291C3A1C0C337C813C612E
:10BB2000FFF7C8FE041E00D030E700211C22281CAD
:10BB3000FFF76EFB02222B7800211343DBB20632A3
:10BB40001343043A13436A462B70337801A8937366
:10BB50006B4606229A8103226C60EC602C616C615A
:10BB6000AC61FFF755FB6B465A461B7900219343A6
:10BB70000E3A13435A461340424613436A46137122
:10BB800053795A4693430E3A13435A46134042465A
:10BB900013436A465371937906229343043A13433D
:10BBA000DBB2063293434A469343524693436A4676
:10BBB000381C93711422FFF72BFB03AB3B6001ABE6
:10BBC0007B6002233B810223BB81331C7088291CCC
:10BBD0003A1C14337C813C61FFF76CFE041E00D0DC
:10BBE000D4E600211C22281CFFF712FB02222B782E
:10BBF00000211343DBB206321343043A13436A466F
:10BC00002B70337801A893736B4608229A81032224
:10BC10006C60EC602C616C61AC61FFF7F9FA6B460B
:10BC20005A461B79002193430E3A13435A46134058
:10BC3000424613436A46137153795A4693430E3A68
:10BC400013435A461340424613436A46537193794D
:10BC500006229343043A1343DBB2063293434A4627
:10BC60009343524693436A46381C93711422FFF75C
:10BC7000CFFA03AB3B6001AB7B6002233B81022325
:10BC8000BB81331C7088291C3A1C1C337C813C61AD
:10BC9000FFF710FE041E00D078E600211C22281CAD
:10BCA000FFF7B6FA08222B7800211343043A134316
:10BCB0006A462B70337801A893730A239381032279
:10BCC0006C60EC602C616C61AC61FFF7A1FA6B46B3
:10BCD0005A461B79002193430E3A13435A461340A8
:10BCE000424613436A46137153795A4693430E3AB8
:10BCF00013435A461340424613436A46537193799D
:10BD000006229343043A1343DBB2063293434A4676
:10BD10009343524693436A46381C93711422FFF7AB
:10BD200077FA03AB3B6001AB7B6053463B81BB8141
:10BD3000331C70882433291C3A1C7C813C61FFF73A
:10BD4000B9FD041C22E6C04638B502291CD012D920
:10BD500003290AD004290DD1002A08D12F4C2378B9
:10BD6000052B07D10123237004E0002A1AD02B4CA5
:10BD70000023237038BD0129FCD1284C002AF7D1BB
:10BD80002378042BF6D1EDE7002AF0D1234C237859
:10BD9000022B23D0032BEDD121490622214804F0A8
:10BDA0009BFEDFE71D4C2378062BE3D11C4D1E4B79
:10BDB00006221968281C04F08FFE281C1B49042247
:10BDC0000C3004F089FE042319482370291C10222A
:10BDD000002303F0C1FB0028CAD1CBE7154B1A683A
:10BDE000154B9A420ED0104B0E481968062204F0EB
:10BDF00073FE062311481021237003F089FC0028EC
:10BE0000B6D1B7E70323064823700949102200235F
:10BE100003F02AFC0028ABD1ACE7C0468A280020FA
:10BE2000742C0020CC2F0020942C0020C815020078
:10BE3000842C0020982C0020884422118C2C002077
:10BE400008B503F05DF908BD034B18780138431EAF
:10BE50009841C0B27047C0468A280020F0B54746D6
:10BE60000B1C80B44E49002A3FD009259542AD41B4
:10BE70006C42A0460024251C071DCF19BB4265411A
:10BE80000E182F1C1D1DAE42644145463C432C42FA
:10BE900043D0341C1C43A4073FD1151FEDB2AD089D
:10BEA0000135AC00571EE4B2022F2DD91F68376050
:10BEB000012D09D05F687760022D05D09F68B760BB
:10BEC000032D01D0DD68F560A2420ED01D5D08187B
:10BED0000555651CEDB2AA4207D95E5D0234E4B295
:10BEE0004655A24201D91B5D035505222D4B2E4814
:10BEF0001A700B32002303F073FB031C58425841A5
:10BF0000C0B204BC9046F0BD00241D5D0818055564
:10BF1000651CEDB2AA42E0D8E7E71C780C54012A70
:10BF2000E3D95E780C186670022ADED09E78A6707F
:10BF3000032ADAD0DE78E670042AD6D01E7926717C
:10BF4000052AD2D05E796671062ACED09E79A67176
:10BF5000072ACAD0DE79E671082AC6D045461E7A7D
:10BF60002672002DC1D05D7A65720A2ABDD99C7AED
:10BF7000081884720B2AB8D0DC7AC4720C2AB4D0A8
:10BF80001C7B04730D2AB0D05C7B44730E2AACD0AA
:10BF90009C7B84730F2AA8D0DB7BC373A5E7C046C4
:10BFA000742C00208A2800208C2C002030B585B00D
:10BFB00001901F4804F096FB00280FD103F086F98A
:10BFC000002811D01B4C01A9201C062204F084FD7E
:10BFD000001B43425841C0B205B030BD00F01AFA10
:10BFE00003F074F90028EDD1102302A88380124CCD
:10BFF0000F3BC380114B211C029303F00DFA002864
:10C00000E0D10F4D201C00212A1C03F07DFA0028EE
:10C01000D8D10C4B019A0C481A6002220B4B291CF8
:10C020001A7002320C2303F01FFB0028D4D0C9E79A
:10C0300041BE0100CC2F00208C2C002049BD010006
:10C04000842C0020942C0020982C00208A2800208A
:10C0500030B503889849994D1CB28BB00A88AC4220
:10C0600000DD95E0964DAC46964D63449BB2AB42E5
:10C0700056D803239A434388904D1CB2AC4259DCF6
:10C080008F4DAC468F4D63449BB2AB4200D8C3E0AA
:10C090008D4B9C4200DAD8E08388884D1CB2AC42BC
:10C0A0004FDD80235B001A430389884D1CB2AC42EC
:10C0B00056DC874DAC46874D63449BB2AB4200D8FB
:10C0C000A7E0854B9C4200DABCE043897F4D1CB25F
:10C0D000AC424CDC7E4DAC467E4D63449BB2AB42E1
:10C0E00000D893E07C4B9C4200DAA8E08389774C2F
:10C0F00018B2A04242DD8023DB001A430A80502A96
:10C1000000D1D5E047D8062A58D8052A00D3CAE07E
:10C11000012A00D19CE0022A76D10120012356E0B9
:10C12000694B9C42A7DA02231A434388634D1CB231
:10C13000AC42A5DD10231A438388604D1CB2AC428B
:10C14000AFDC5F4DAC465F4D63449BB2AB4200D960
:10C1500065E0624B5D4D1A4003891CB2AC42A8DD1C
:10C1600004231A434389594D1CB2AC42B2DD40232B
:10C170001A438389554C18B2A042BCDC544CA446E7
:10C18000544C63449BB2A34251D8554B1A40B5E777
:10C1900001231A436FE780239B009A4200D17FE07E
:10C1A0005FD8902A5AD000D880E0A02A56D08021AB
:10C1B0000820082349008A4209D025E0102A4AD0E5
:10C1C00062D8131C093B012B1ED8032003234549C9
:10C1D0000C789C4218D00B70434B8000C3584349E5
:10C1E000684604F083FC684604F0A2FCC1B26846CD
:10C1F000FFF762F83E483F49002200F083FC002828
:10C200003FD101223C4B1A700BB030BDC0239A4382
:10C210006CE70C239A4358E730239A433CE72A4BB8
:10C220009C4200DB40E780239B001A433CE72A4BFB
:10C23000984200DB62E780231B011A435EE78023FC
:10C240001A4353E708231A433FE720231A4323E7FF
:10C2500000200023BBE704200423B8E707200723BE
:10C26000B5E7C023DB009A4217D012D990231B01F7
:10C270009A4203D00133FF339A42C5D10B200B23DE
:10C28000A5E700F0C7F8BCE705200523202A9ED0CB
:10C29000BAE7013BFF3B9A42B6D10A200A2396E750
:10C2A0000920092393E70220022390E7602AABD1FB
:10C2B000062006238BE7C0469C2C00203018000087
:10C2C0002F1800005E300000D0E7FFFF3828000084
:10C2D000372800006E500000C8D7FFFFFFFCFFFFAB
:10C2E000FFF3FFFF8B280020CC1502001816020078
:10C2F000A02C002001800100C02C00208021A02261
:10C3000010B50C1CA1200B4BD205D358C0009C4388
:10C310000B40094914505350084B1B780B2B04D881
:10C3200007480121C018FFF72FF90022054B1A70AA
:10C3300010BDC046040500000C0500008B2800203D
:10C340000C160200C02C002008B5FFF725F808BD28
:10C35000A92800D070478022AA21064BD205D150CF
:10C36000BFF34F8F044A054BDA60BFF34F8FC046CF
:10C37000FDE7C0461C0500000400FA0500ED00E0E2
:10C3800010B582B0FFF784F9FFF75EFD0028FBD1FE
:10C39000174C201CFFF70AFE0028FAD0154B01A805
:10C3A0000193FFF709F8002803D1FFF71FF902B046
:10C3B00010BD11480121114A00F08AFB002813D159
:10C3C0000F4800210F4A00F083FB002809D10E48D6
:10C3D0000E49002200F096FB0028E6D000F01AF883
:10C3E000E3E700F017F8F2E700F014F8E8E7C046DA
:10C3F000FC15020051C001000816020049C30100EB
:10C4000004160200FDC20100C42C0020991900008E
:10C410007047C046002300B585B001AA9060002196
:10C4200003481380536000F005F805B000BDC04616
:10C4300001400000BFF34F8F034A044BDA60BFF3A3
:10C440004F8FC046FDE7C0460400FA0500ED00E04E
:10C4500080218023184A8902D1508022D221174B93
:10C46000520289005A5040395A5001222F205A60F6
:10C470000138C046C046C046C046C046C046C04659
:10C48000C046C046C046C046C046F1D19A600023AF
:10C490000B4A2F2013600138C046C046C046C04634
:10C4A000C046C046C046C046C046C046C046C0465C
:10C4B000F1D1044A1370704700E100E00010014020
:10C4C000E42C0020042D0020A021F0B500234746D5
:10C4D0002B4A490080B45350043153500431535017
:10C4E000043153504C39535004315350254B1B6881
:10C4F000002B35D02449002652582449244F0C687B
:10C50000141B00222402240A904602E0002D18D0B9
:10C510002B1C1A68A24214D8A41AB6181A7CDD691A
:10C52000002AF3D0424699691A745A693B68002B75
:10C5300019D0101C98470028E8D0FFF76BFF002D9A
:10C54000E6D1144B14491A780B789A420ED0134A4C
:10C550009B009E5080218023114A49035B00D150EB
:10C5600004BC9046F0BD081C9047CFE70132D3B21F
:10C57000022B01D00B70EAE700230B70E7E7C046FF
:10C5800000100140E82C002004050000E42C0020ED
:10C59000EC2C0020F82C0020F92C0020FC2C002092
:10C5A00000E100E0F0B55F4656464D464446F0B423
:10C5B000B44BB54A1B68B54989B001930978137823
:10C5C000994200D1B1E10133DBB2022B00D100234B
:10C5D0001370AF4A9B009B58AA4A9946019B4B4453
:10C5E0001B021B0A136001230493AA4B00241B683F
:10C5F0009B46A94BD8461B781A1C0293A74B94461E
:10C6000007931B6803939F4B1B680693A44B1B78EF
:10C6100005935B466646013EF2B29446FF2A4FD030
:10C620006246D000039A9246504401784578A94268
:10C63000F0D04A005218877801314668C9B27F1A93
:10C64000B2467E1EB741D2007F425244394017782D
:10C65000022F0AD0032FEAD1002BE8D01C74DB692B
:10C66000002BFBD145789846E1E75668002B25D092
:10C670009E421AD01F1C00E0171CFA69002AD6D06F
:10C680009642F9D1321C3D1CBE4200D1EBE0176846
:10C69000D269EA61002A06D013689A4657441760A7
:10C6A00045784346C3E74578C1E7DE691A1C002E8A
:10C6B00000D1DDE0B046331C151CE8E70023B6E7E7
:10C6C0006946774A097D181C11706E4A06990393D2
:10C6D000116041466F4A1160049A002A00D028E197
:10C6E0005B461B1A5A1E93410025DBB20493079B3D
:10C6F00000271B68039E0693624B1B689C46654B94
:10C700001B689A46664B1B780593664B0193012381
:10C710009846029B013BDBB20293FF2B00D18FE0D6
:10C72000069ADB0093469B44002D27D06968AB68CE
:10C73000281CED696246019C8A1A1202120AA24262
:10C7400050D8D31842460360476087600274C761BF
:10C75000002E56D03168341C994204D35FE0116832
:10C76000994263D2141CE2695B1A002AF7D1036074
:10C77000331CC261E0611E1C002DD7D15B465A46B6
:10C780001B7852789A42C4D0594649685A00894663
:10C790005946D2180133DBB20B708978D2004A4473
:10C7A00099424AD011785068331C0129E3D1037CA7
:10C7B00099464946331C0029DDD191684160D36810
:10C7C00083601469C46052698261059A002AB1D0FD
:10C7D0004A46002142606246019C8A1A1202120AED
:10C7E000A242AED96246511A0902090A99420CD2F4
:10C7F00042465B1A0360476087600274C761002E7F
:10C80000A8D1031C82461E1CB6E74346076047605A
:10C8100087600374C761002EF3D000233168CB1A00
:10C820003360031CC66182461E1CA5E7C91A11604D
:10C830000360C261331CE0619DE75B461D70B1E798
:10C840005246144B1A60039BB3422FD1049B002B1A
:10C850002CD10023124A137009B03CBC9046994673
:10C86000A246AB46F0BDDE693A1C002E00D021E79F
:10C8700001250D4B9D600023069601369846151C38
:10C88000059604E7E42C0020F82C0020F92C002069
:10C89000FC2C0020E82C0020F02C0020F42C0020A0
:10C8A000FA2C0020FEFF7F0000100140002E63D014
:10C8B000484B49493568CC58484B494E1B6830783D
:10C8C000E21A1202120A03329046002861D0424650
:10C8D000AA4200D22A1CA820D21812023E49130AEA
:10C8E000C0003C4D0B504A591B1B121B1202120A6E
:10C8F0001B0203321B0A9A42ABD94B590B502F2013
:10C900000138C046C046C046C046C046C046C046C4
:10C91000C046C046C046C046C046F1D180218023F3
:10C92000304A89025B00D15093E700239946049373
:10C930005BE60025002100244846464613E01A68BD
:10C9400082421CD8DE68801A89181C60DF69002EBC
:10C9500007D0DD611D1C019A9E608A181202120A1E
:10C960005A603B1C3E1C002BE9D11F4B1E6000236C
:10C97000039301330493BAE6FFF76AFD69E7814642
:10C98000194903930E604946521A1A600123049311
:10C99000ADE68020D1274002BF00C851403FC851BA
:10C9A000C02280270F48BF0252008750076001272E
:10C9B0002F200F600138C046C046C046C046C04662
:10C9C000C046C046C046C046C046C046C046F1D17B
:10C9D00037707CE70405000000100140E42C0020C3
:10C9E000042D002000E100E0E82C0020F8B54F46BF
:10C9F0004646C0B40326351C80460F1C141C9946BD
:10CA000015400720002D03D00CBC90469946F8BD78
:10CA1000002A44D0FFF71CFD4A46224B80201A60B2
:10CA2000221C214B18321E70204B62601C607B0060
:10CA3000DB19DB00D218E260D318C02263612570D5
:10CA40006570A77025726572A77225746574A774E6
:10CA5000C524FF21164B40031D60164B52001D706C
:10CA6000154BA4001D70154B98501A598A433F3935
:10CA70000A431A51A122186040461149D200885039
:10CA8000C42080001C580F4A2240C02424022243A4
:10CA90001A500D4B0020CA580C4B1A60B4E7034BD8
:10CAA0001A60B1E7EC2C0020F02C0020F42C0020C0
:10CAB000E82C0020F82C0020F92C002000E100E0F8
:10CAC00000100140FF00FFFF04050000E42C0020DF
:10CAD00010B50B4B1B68002B0BD0002A07D0002889
:10CAE00005D0036808201C7C002C04D010BD072052
:10CAF000FCE70820FAE759745A610020F6E7C046BF
:10CB0000F42C0020F0B5474680B4374B1C68002C4D
:10CB100008D0002806D00723042905D8181C04BC17
:10CB20009046F0BD0823F9E74369002BFAD00025B1
:10CB3000437CA846012B2FD0EFF30583DB05DB0DEB
:10CB40001025002B2CD164196378A5785E1CF6B2F1
:10CB5000AD1B6F1EBD416D422E402578B5421DD0E4
:10CB60005D00EB186568DB00ED180423002DD5D0BF
:10CB7000033B2B7068601D4B1D48C358E960AB60D8
:10CB8000434680212B6180236A611A4A5B00490376
:10CB90006670D1500023C1E78846CDE70423BDE786
:10CBA000103BDEB275B2002D13DBAD08114EC0355F
:10CBB000AD00AD5903263340DB00DD402B069B0F53
:10CBC000DBB20025012BBED00835032BBBD00835C6
:10CBD000B9E70F23084D3340AC46083B9B089B0048
:10CBE00063445D680323E6E7F42C0020040500009D
:10CBF0000010014000E100E018ED00E030B52E4AE1
:10CC0000031C12680820002A2ED0002B2CD0596952
:10CC1000002929D000211974EFF30581C905C90D38
:10CC20001025002923D155196A78A978541CE4B23B
:10CC3000091B481E814149420C402978A14214D069
:10CC400051008A186968D2008C4662440420002A88
:10CC50000AD0022153601170802380210020174ADE
:10CC600049035B006C70D15030BD0420FCE71039E3
:10CC7000CCB260B2002813DB8008104CC0308000BA
:10CC8000005903242140C900C8400106890FC9B2D8
:10CC900000250129C7D008350329C4D00835C2E7CB
:10CCA0000F210748214084460839890889006144DA
:10CCB00048680321E6E7C046F42C002000E100E0CC
:10CCC00018ED00E010B500290DD00923002A01D18C
:10CCD000181C10BD541E2240FAD18260016084806D
:10CCE000C2600023F4E70E23F2E7C046031C10B530
:10CCF0009C888068DA68121A0420944200D210BD21
:10CD0000DA68002014401A681155DA680132DA60D6
:10CD1000F5E7C04610B58468C268031C052094423C
:10CD200009D098689A8802401868825C00200A70CE
:10CD30009A6801329A6010BD0023C0B288724B72AB
:10CD40007047C046F0B556464D4644465F46002300
:10CD5000F0B485B001AD041C281C0E1C2B7000F033
:10CD6000C5F9002E02D1E368002B0DD103239846AC
:10CD70006379A279DBB20027012693422AD10023EE
:10CD8000E360E368002B37D1287800F0CFF905B0D5
:10CD90003CBC90469946A246AB46F0BD597931401D
:10CDA0002970AF60EF709A7932405201201C291C23
:10CDB000103000F021FF0028E9D0E3681B68002B49
:10CDC0005BD1281C2B7000F091F96379A279DBB25A
:10CDD0009342D4D021689A008C4601332079624472
:10CDE000DBB212680021984200D3191C131C617138
:10CDF000E360E368002BC7D0287800F097F927722A
:10CE0000227AE368D2B2D1008B469B685B445979A1
:10CE100049086970196869601979A97099790E4291
:10CE2000BCD059798C46314025D101329146E06819
:10CE3000027B9145B4DA08208146E268D9449268C1
:10CE40004A4450796246400852088242A8D142467C
:10CE5000E368986848440368AB600379EB704379F2
:10CE60003340D31A2B70237A827901333240DBB2FC
:10CE7000520123729AE7012192E7E268E368516860
:10CE80001B689847281C2F7000F030F99DE7C046BA
:10CE9000F0B5474680B4037884B00C1C002B18D141
:10CEA0000B7ACA680133127BDBB200209A4212D897
:10CEB000E3681B68002B04D0E268E36851681B68D4
:10CEC0009847201C0121FFF73DFF04B004BC9046A9
:10CED000F0BD0320ECE70B72087ACB68C0B29B6808
:10CEE000C6009B195A7901A952084A701A684A600B
:10CEF0001A798A7001229D792A4229D05D79A84643
:10CF0000151C47463D4034D1E76801303F7BB842AD
:10CF100020DA4746E068083680687F088019407943
:10CF20004008874216D1E3689B689E1933688B607E
:10CF30003379CB7073791340181C03231B1A0B70C1
:10CF4000B3791A40237A52010133DBB2237209E02C
:10CF50005D79154000220D708A60CA709B7901329C
:10CF60001A405201201C103000F046FE00289FD1CC
:10CF7000ABE70125EEE7C046F0B5061C4746041CAA
:10CF8000103680B49846171C301C0A4A231C00F047
:10CF900031FD051E09D1301C00F01CFE43466571B1
:10CFA0002360A57127716572E560281C04BC90465A
:10CFB000F0BDC04691CE010030B583B06A46041C76
:10CFC0000023D01DD3710D1C00F090F8A3792279B5
:10CFD000DBB29A421CD06279013A93421BD021689D
:10CFE0009A008C466244156001332179DBB200223D
:10CFF00099420BD26B46A271D87900F097F8201CA9
:10D000000021FFF79FFE002003B030BD1A1CF1E79E
:10D010006279002ADFD16B46D87900F087F81120B9
:10D02000F2E7C046F0B54F464646041CC0B41F1C8C
:10D03000002387B002AD281C894690462B7000F073
:10D0400055F8667AF6B2002E36D10123287863723D
:10D0500000F06CF8244B6C6002934B46AB60434687
:10D060002B736B46D81DDE7100F040F8A37922794E
:10D07000DBB29A422ED06279013A93422DD02168D8
:10D080009A008C466244156001332179DBB200229C
:10D09000994200D31A1C6B46A271D87900F046F869
:10D0A000201C0021FFF74EFE002F0ED1637A002BCB
:10D0B000FCD1A07AC0B203E0287800F037F8112044
:10D0C00007B00CBC90469946F0BD637A002BF0D0B7
:10D0D000B847E9E76279002ACDD16B46D87900F0EC
:10D0E00025F81120ECE7C04639CD0100F0B5EFF38B
:10D0F000108172B60A4B5A68002A0DD1012480258E
:10D10000084E5C607459084F3C401C6077510270B7
:10D11000002900D162B6F0BD01230370F8E7C046D4
:10D12000D42F002000E100E0FC06FFBC10B5084B46
:10D130005A68002A0BD0002809D1EFF3108272B68A
:10D1400004491C680C605860002A00D162B610BD0A
:10D15000D42F002000E100E082B00190019B002B61
:10D1600014D0019B0A48013B01930138C046C046D8
:10D17000C046C046C046C046C046C046C046C0467F
:10D18000C046C046F1D1019B002BEAD102B07047E6
:10D19000E703000030B5047885B0012C19D0022CCB
:10D1A00034D0002C01D005B030BD274C274D201CB9
:10D1B000291CFFF7AFFD002823D0A268E3689A423C
:10D1C000F1D1032302AA1370214B101C1B6898474E
:10D1D000E9E743681F4D1978281CFFF787FD0028F1
:10D1E00022D1AA68EB689B1A012B25D0A968AA88CE
:10D1F000EB685B1A9A42D6D30121174802F0C4FBB0
:10D20000D1E7281C012102F05DFBD6E702AB1C70C0
:10D21000C368012110480193039302F0B5FB0C4B46
:10D2200002A81B689847BEE702AB1C70084B03902E
:10D230001B6802A89847D9E702AB1870044B02A8F4
:10D240001B689847D2E7C046142D0020082D002007
:10D250000C2D0020242D0020102D0020F0B51E1CC8
:10D26000214B051C89B00C1C1A600720002906D030
:10D270008A881E480968FFF725FD002801D009B0FB
:10D28000F0BDA168A2891A48FFF71CFD0028F6D15D
:10D290006A46184B684692CB92C292CB92C212CB8E
:10D2A00012C2AB6806932B7906775A1E9341037519
:10D2B0006B790E22591E8B415B421A404275EB7806
:10D2C0000D490293AB7803932B7801936B7800930D
:10D2D00002F068FA0028D2D102F0EEFB01210748E3
:10D2E00002F052FBCBE7C0460C2D0020242D00207D
:10D2F000142D00209016020095D10100102D002061
:10D3000038B50A4C051CA168A288E3685B1A9A42EA
:10D3100004D0201C291CFFF7FDFC38BD0448012166
:10D3200002F032FB0028F4D00520F6E7242D00207F
:10D33000102D002070B50D4D011C281CFFF7D6FCE8
:10D34000041E01D0201C70BD02F016FB0028F9D18C
:10D35000074E281C311CFFF7DDFC0028F2D1301CE1
:10D36000012102F0AFFA041CECE7C046142D0020A6
:10D37000082D002010B500280BD1064C6368002B47
:10D3800007D01A6800205B68626098476368002BCA
:10D39000F7D110BD342D0020F0B5002820DBFF2789
:10D3A0001B4B03229C463B1C8408C026C0B2024093
:10D3B000D2009340A4006444B600A5599D438B015C
:10D3C0003B409340191C2943A1511F2318401E3B89
:10D3D0008340C022181C0E4B520098501860F0BDBC
:10D3E000FF260C4A03249446321C0F23C0B204408B
:10D3F000E400A2400340083B9B089B006344DD69B6
:10D4000095438A013240A240111C2943D961DCE7CF
:10D4100000E100E000ED00E0F0B544465F4656460E
:10D420004D46F0B49C4A87B013680024012B00D10C
:10D43000AEE09A4B1A68012A00D1B7E0984B1A68FF
:10D44000012A00D1C2E0974B1A68012A00D1CDE031
:10D450000022954B02921A68012A00D1D8E02307D6
:10D460000BD0E30700D5DFE0A30700D5EBE06307AF
:10D4700000D5F6E0230700D502E1002C06DB07B05B
:10D480003CBC90469946A246AB46F0BD002301271E
:10D490000493C03399460126844D7F4200230393B1
:10D4A000E023DB0000249846231C4033E95C4BB2A8
:10D4B00001332CD0C9B24B46081C98433B1CC340D7
:10D4C0001E4224D08B0901932B1820331B785BB2AA
:10D4D0009B00EB589C46002B35D0331C83409A466A
:10D4E000019B032B35D0A023DB059B4643468200DE
:10D4F0005A44D3580592C022920213401B0C191CA7
:10D5000053469346029A1A4212D1032926D0013477
:10D51000042CC9D1039B002BB1D0A223A022DB0095
:10D52000D205D358029A9A42A9D0049F0293B5E734
:10D530000229ECD1019B032B16D06346002BE6D0C9
:10D540000199E047E3E7019B032BE0D1331C8340C3
:10D550009A465246049B13430493C4E7019B032B52
:10D56000EBD180239B029B4643460599CB589A46B4
:10D5700052464F4B134042468B508B585A461A43E3
:10D58000131C42468B50039B0133DBB20393D4E759
:10D59000C1214848890041580B4200D149E73F4B1F
:10D5A00014601A680134012A00D047E7C1224149BA
:10D5B0009200895802220A4200D13FE700211960F7
:10D5C000374B14431A68012A00D03CE7C12239497D
:10D5D0009200895804220A4200D134E700211960E0
:10D5E000304B14431A68012A00D031E7C122314977
:10D5F0009200895808220A4200D129E700211443E9
:10D6000000221960284B02921A68012A00D026E7EE
:10D6100000221A6080231B061C43A022A223D205ED
:10D62000DB00D35802931AE7A223224ADB00D0582A
:10D63000D1581E4DC00489032B68C00E890F98472E
:10D64000A30700D413E71C4B1A4A184DD058D158E1
:10D65000C00489036B68C00E890F9847630700D424
:10D6600008E7A323134ADB00D058D1580F4DC0045C
:10D670008903AB68C00E890F9847230700D4FCE6E6
:10D680000C4A0E4B094DD058D158C0048903C00E26
:10D69000890FEB689847F0E60061004004610040A4
:10D6A000086100400C6100407C610040402D00207A
:10D6B000FFFFFCFF00600040140500001C05000097
:10D6C00008B5264B1A68002A05D0C12224499200C9
:10D6D0008A58D20327D4234B1A68002A05D0C122C6
:10D6E0001F4992008A58920326D41F4B1A68002AB9
:10D6F00005D0C1221A4992008A58520325D41B4BE7
:10D700001A68002A05D0C122154992008A581203CE
:10D7100000D408BD0022A6201A60154B40005968AD
:10D720001B689847F5E70022A0201A60104B4000C4
:10D7300059681B689847CEE70022A2201A600C4B5C
:10D74000400059681B689847CFE70022A4201A6060
:10D75000074B400059681B689847D0E7408100405C
:10D760000080004044810040488100404C810040DE
:10D77000882D0020F0B54D4644465F465646F0B42D
:10D7800009AC25780AAC2478A4460C78002C17D173
:10D790001678B046922676008759B346002F20D0DF
:10D7A000331C243BFF3B845143610B70A8450FD0D1
:10D7B0000124201C3CBC90469946A246AB46F0BDD5
:10D7C0009222002352008350083A8350143A835027
:10D7D00082235B00C258002AEAD000220024C250F3
:10D7E000E7E78E267600B1468659B246002E0BD06A
:10D7F0004E4687515E468659002E23D05B46C75061
:10D80000012343610B70D1E7842464000759002F82
:10D81000CCD0564606515C460459002C22D11178D2
:10D820008D42C3D9A324E40004595C541378013316
:10D83000DBB213706A1E93421DD09D42B6D0012305
:10D840000362B3E711788D4205D86346002B0FD0F1
:10D850000123C361ADE7595C094BC1501378013313
:10D860001370A3E701235A46865043610B709DE76E
:10D87000012343619AE7802302229B00C250DEE726
:10D880001C050000F0B544465F4656464D46F0B4D0
:10D89000822483B00192002264000A5120340A518C
:10D8A000083C0A51143C0A51E23C0255033C025523
:10D8B000012B16D08022012492008C5001220A6292
:10D8C0000A600268002A16D0484B836082680020F4
:10D8D0007E33CA5003B03CBC90469946A246AB4644
:10D8E000F0BD8022213C92008C5001220A620A6025
:10D8F0000268002AE8D11D32FF329046143A914660
:10D90000043A92259246DE3A2327002693466D007C
:10D910000093C25D002A1DD15C46045DA4464C59AB
:10D92000002C2AD142468A58002A2ED042468C50DA
:10D930004A59002A4CD15A46009B825C93424CD9EA
:10D94000019CA45C2A4A8C505A465C46825C013297
:10D95000025516E042464E518E504A468E5052466F
:10D960008A58002AD5D0822300225B00CA50E13BAE
:10D97000C35C002B2AD00320ACE74A5101224A6144
:10D98000C255009B6345C4D1E9E74C460C59002CB5
:10D99000F7D04C460A514C59002CEED15A46009B08
:10D9A000825C9342EDD9A324E4000C59019B9C5462
:10D9B0005B46C25C0132D2B2C254009B5C1EA242E2
:10D9C0000ED09342DDD001220A62DAE7002081E71F
:10D9D00001224C514A61C255D3E701224A61D0E786
:10D9E0008022022492008C50EDE7C046860200009F
:10D9F0001C050000F8B544465F464D465646F0B457
:10DA000004798446A0006D4F80460019C000381884
:10DA1000203085780820002D05D03CBC90469946E2
:10DA2000A246AB46F8BD002900D1C3E0404600192C
:10DA3000C0003A503A18536000239360203253716B
:10DA40001371A0230A685E48C132FF32DB059200E1
:10DA5000D0504A68C132FF329200D0500120051CDC
:10DA60000A689540A122D2009D504D68A840985068
:10DA70000868544DC130FF308000C5504868C1303F
:10DA8000FF308000C55004200138C046C046C04663
:10DA9000C046C046C046C046C046C046C046C04656
:10DAA000C046F1D1A220C000824647480026012589
:10DAB00083469146524648689A58C240154200D063
:10DAC00075E02A1C0868824058461A500420013824
:10DAD000C046C046C046C046C046C046C046C04616
:10DAE000C046C046C046C046F1D12A1C08688240E4
:10DAF00048461A5004200138C046C046C046C046B9
:10DB0000C046C046C046C046C046C046C046C046E5
:10DB1000F1D10136092ECDD1486801231A1C82406B
:10DB2000101CA022284DD205505104200138C046B7
:10DB3000C046C046C046C046C046C046C046C046B5
:10DB4000C046C046C046F1D148688340A120C0000D
:10DB50001350A0220B681A48C133FF33D2059B0033
:10DB600098504B68C133FF339B0098506346A12205
:10DB70001B680D68D20048689D50134A9850886809
:10DB8000124A985043461B19DB00FB58002B06D065
:10DB900063461868097B000B40B2FFF7FDFB0123C9
:10DBA0004444E4003F192037BB70002035E7002EC5
:10DBB000B3D1CEE706482101411837E7942D002064
:10DBC0000C0600000D0600000C05000024050000F6
:10DBD000B0160200A022037901680520D200885007
:10DBE0009A00D318034ADB00D318022220339A701C
:10DBF0007047C046942D0020F0B54D465F4656460E
:10DC00004446F0B485B00579930707D0062005B0E7
:10DC10003CBC90469946A246AB46F0BD0668C2237E
:10DC200001209B004042F050AB00581998465A4BD7
:10DC3000C0009C466044041C20342379A346002B7A
:10DC400005D0C12382689B00F2501120DFE7012735
:10DC50009308BC469F430823134027710393D5D1F3
:10DC600082619146021C0F1C02910C321ACF1AC21B
:10DC70005946029B9A780A705A68C2615A7892464D
:10DC8000B1225746D200B7501A78012A77D0002A1D
:10DC90004BD14B4664465A091440A4463E4A43467B
:10DCA00091465B19DB004B44203302995C704A6853
:10DCB00092468A788221914600229A71DA70012375
:10DCC0004900725020317250083972501439725024
:10DCD000F831725033622632B360815C494528D2F4
:10DCE0005346595C2D4BF150835C013383544346BA
:10DCF000294A5B19DB00D258002A21D0264A00208D
:10DD00009446274A63449A609A68C1239B00F25064
:10DD10004544214BED005B59002B00D077E71E4AAC
:10DD20009446654420352B7171E7012301249C46FC
:10DD3000B4E76246002A01D0F361D8E77361D6E701
:10DD4000154A203394466344DA1C063393461F1C5D
:10DD50004B4601940093301C59463A1C5346FFF73A
:10DD600009FD0028F4D143460B4A5B199446DB00B9
:10DD700063442033DB78002B0BD00330C8E76A46BE
:10DD8000127B029B4A705A68311C9B78FFF77AFD20
:10DD9000BEE70020BCE7C046942D00201C05000013
:10DDA00086020000F0B544464D465F465646F0B444
:10DDB000B64B2321DA69585C904620229C5C0132E4
:10DDC0009A5C89B09146002816D126229225944665
:10DDD0009F5CAF4A6D005659AB46002E37D050516C
:10DDE000012050615854BC420FD009B03CBC904651
:10DDF0009946A246AB46F0BD92200021A44A4000BD
:10DE0000115008381150143811508222A049520084
:10DE100088580028E9D0002088502320195C002968
:10DE200026D11E7BB21E012A58D9191C05AA0C3115
:10DE300070C970C2002204A80270242200219954E3
:10DE40009A695207D1D459681B689847CDE78E204C
:10DE500040001558AA46002D1ED01650584610589E
:10DE600000286FD058461650012050615854BAE728
:10DE7000191C05AA0C3170C970C28649844C04A8CB
:10DE8000625862500221114203D15207D5D5017068
:10DE9000D3E701220270D0E7842040001658002EFC
:10DEA000A1D0554615505846105800285AD1BC42AA
:10DEB00099D9A3214046C9005158C15561466046D1
:10DEC000595C0131C9B21954601E814250D08C4254
:10DED00000D188E701216E4A116284E7DA691C6982
:10DEE000A242A2D15A6901279046DA612022DC7B46
:10DEF0009C549A6952093A40914621224D469D54BC
:10DF0000032E3AD08226624A7600915120369151F2
:10DF1000083E9151143E9151E23E99551954012CFD
:10DF200050D08021890057500121594A1162116057
:10DF3000196800294BD0584999609968C1239B0002
:10DF4000D15052E7BC4205D8494600290DD00121E5
:10DF5000D16162E74146C85D5049505061467A1C24
:10DF60005A5440E750465D4639E7012151613AE78E
:10DF70008021022089005050ACE7454EE332B15079
:10DF80002032B150083AB150143AB150F832B15081
:10DF9000DB3AFF3A9954195494463762B760002C23
:10DFA00026D04246107862463C4970509F541A6809
:10DFB000002A24D0384A9A609968C123344A9B00C9
:10DFC000D15012E78021022089005050ACE71F1C7D
:10DFD00026331E1C454623370023009401932C480A
:10DFE000391C321C2B1CFFF7C5FB0028F4D1FCE6C2
:10DFF0004A46002A01D0F761D9E77761D7E7922036
:10E000000132232700269346214940000394DA5D1C
:10E010009446002A2BD10C58263292469A5C002C4A
:10E020002CD18E256D004D59AC46002D38D08E2553
:10E030006D004C510D58002D21D1039C944251D9B3
:10E040004446A45CA4466546144C0D515546541CE8
:10E050005C55039C9442DAD18222520094468A583D
:10E06000002AD4D000226146094B5A50BDE68E22C8
:10E0700052000E508E50143A8E50EDE764460C500C
:10E080005C464C615C46DC55E3E7C046942D0020BD
:10E0900000300040C4040000860200001C0500009F
:10E0A000842464000D59002DD3D065460D510C58C1
:10E0B000002CE3D1039C9442CBD9A3244546E40031
:10E0C0000C59AC54544655461C5D0134E4B25C55C1
:10E0D000039D013DAC420FD0039DA542B9D05C46E3
:10E0E0000C62B6E74C46002C03D00122054BDA61E6
:10E0F0007BE65C464C61ACE780240225A4000D5110
:10E10000EDE7C0460030004029DF704728DF704748
:10E1100030B583B0002806D0112806D108230F4A55
:10E1200011680B43136003B030BD021C0C4801782A
:10E130008B005B189B00C518281CE9686B694C00B4
:10E1400064182979074DA4002D680C300095064D00
:10E150006459A0470422054B1A70E4E7A42E00205E
:10E16000BC2D0020AC2E0020902E0020A92E0020D7
:10E17000F0B55F464D4644465646F0B45E4F85B016
:10E180003C785E4D012C00D188E0002C00D16DE080
:10E19000022C16D0032C0DD1594B1868FFF7B6FF8F
:10E1A000021E07D0112800D080E00823554A1168CC
:10E1B0000B43136005B03CBC90469946A246AB4663
:10E1C000F0BD504B99461B6803932B789E00F318C3
:10E1D0009B00EE183369984680235B051969404619
:10E1E0000904090C9B4602F0F5FA454B824618607B
:10E1F0005B4619694346581EF3880904C018090C88
:10E2000002F0E8FA82454CD00323039C9C434B4622
:10E210001C603D4B1B68002B02D10233234262D0AD
:10E2200000223A4B1A703A4B5869431C54D0802351
:10E230005B0519690904090C02F0CCFA031C802261
:10E240005205106911690004013B000C0904584390
:10E25000090C02F0BFFAFFF759FF021EAAD01128DD
:10E2600024D108231C434B461C60A3E7294B1C60A8
:10E27000294B1C606B78002B9CD02B789A00D3180C
:10E280009B00ED18EA88254B1A602B79032B27D0C9
:10E29000042B25D0012B00D08CE73B7000F000FC54
:10E2A00088E70123039A9A431443B0E72B78980038
:10E2B000C01880002E18301C184DF3682D685C00C3
:10E2C000E418317973690095154DA4000C30645938
:10E2D000A04704233B706DE780235B055B69AEE7D5
:10E2E00000F020F866E7094A50461370FFF70EFF6A
:10E2F000FFF70EFF5EE7C046A92E0020BC2D0020D0
:10E30000B82E0020A42E0020B42E0020A82E00201D
:10E3100000100010B02E0020882E0020AC2E00200F
:10E32000902E0020F0B55F4656464D464446F0B468
:10E330005B4B5C481A78802791008A1892009B18E2
:10E34000DD681E696A00521992008218148950898A
:10E350005268604380469044DA881B89141C9946B1
:10E36000514B92469B4600235A467F05396983B03C
:10E3700009044C441360090C301CA41902F0B0FAD3
:10E38000002924D13B699BB29A4537D044456CD0D3
:10E39000022D33D0301C3969484489B202F0A0FA0A
:10E3A000424B890819603969201C0904090C02F0E4
:10E3B00097FA002932D102223D4B1A70FFF7D8FE9E
:10E3C00003B03CBC90469946A246AB46F0BD022D38
:10E3D00014D0301C396948440904090C02F080FA51
:10E3E000324B8908196039694445E4D00904090CA5
:10E3F000201C02F075FA0029DDD00FE080235B05B8
:10E400001969301C0904090C02F0E4F90322294BB4
:10E410001860274B1A70FFF7ABFED1E780256D051A
:10E4200029692B696A4699464346D380D08889B2C8
:10E4300002F0D0F96A464B46A6B2D380071CD188B9
:10E44000301C02F0C7F9BFB280B287421DD02C69E0
:10E450002969301C89B202F043FA5B462404240C7B
:10E4600089B2641AA4081C60A5E74B46002BC5D0EE
:10E47000022DC3D0301C3969484489B202F030FA09
:10E480000A4B890819603B6995E7434624041B043D
:10E490001A0C240C131B5A469B0813608BE7C046CA
:10E4A000BC2D0020902E00208C2E0020B42E0020A9
:10E4B000A92E0020B82E0020F8B546464F46C0B41D
:10E4C0001D4D08AC24886E78A44604240A2E2DD055
:10E4D0002C78A046A419092C00DD0A3C14277C43A3
:10E4E0002C196261221C20710C32B94681C981C28B
:10E4F000E380634623810024104B01361A786E7046
:10E50000A24213D142464F465743ED190C4AE988BF
:10E5100011602A79032A07D0042A05D0012A05D1DF
:10E520001A70FFF725FE01E0FFF7FCFE201C0CBC73
:10E5300090469946F8BDC046BC2D0020A92E00206B
:10E54000AC2E0020082170B50C1C244A82B0136840
:10E550001C4009D08B431360214B224A1B789B003F
:10E560009B58984702B070BD1F4D2B789800C31878
:10E570009B00EE18317904292AD0F26873695000A3
:10E580008218301C194E920036680C300096184ED6
:10E5900096590022B04701202A7893009B189B00CF
:10E5A000EB181C71DC80D8601C615C611C816B788D
:10E5B0000132013BD2B26B700A2A06D02A700022C7
:10E5C0000C4B1A70FFF7D4FDCCE700232B70F6E755
:10E5D0000122084B1A70FFF7CBFDC3E7A42E0020E1
:10E5E000A82E0020D4160200BC2D0020AC2E002046
:10E5F000902E0020A92E002030B5244B83B05869FE
:10E60000431C3ED080235B0519690904090C02F004
:10E61000E1F8041C80235B051869196900041A6974
:10E62000000C631E58431A4B09041B68090C92B274
:10E6300092085943FFF768FD021E06D0112806D143
:10E640000823144A11680B43136003B030BD12490C
:10E650000B789800C01880000D18281CEB682979E9
:10E660005C00E4186B690D4DA4002D680C3000951A
:10E670000B4D6459A04704220A4B1A70FFF778FD2E
:10E68000E3E780235B055C69C4E7C0460010001027
:10E69000B82E0020A42E0020BC2D0020AC2E00207F
:10E6A000902E0020A92E0020802230B5520514693A
:10E6B00021492404230C0C6883B0013C5C431F4BAC
:10E6C0005869431C35D011690904090C02F082F81D
:10E6D00080235B0519691A4B09040138090C414371
:10E6E0001A68201CFFF710FD021E06D0112806D163
:10E6F0000823144A11680B43136003B030BD12495C
:10E700000B789800C01880000D18281CEB68297938
:10E710005C00E4186B690D4DA4002D680C30009569
:10E720000B4D6459A04704220A4B1A70FFF720FDD5
:10E73000E3E75069CCE7C046B82E00200010001077
:10E74000B42E0020A42E0020BC2D0020AC2E0020D2
:10E75000902E0020A92E0020082330B51E4D83B036
:10E760002C68234214D1A30702D501231C432C603B
:10E7700002221A4B1A701A4B1868FFF7C7FC021EC8
:10E7800004D011280DD108231C432C6003B030BDE8
:10E790009C43124B134A1B782C609B009B58984754
:10E7A000F4E711490B789800C01880000D18281C58
:10E7B000EB6829795C00E4186B690C4DA4002D68A6
:10E7C0000C3000950A4D6459A0470422094B1A7079
:10E7D000FFF7CEFCDAE7C046A42E0020A82E0020CA
:10E7E000B82E0020D4160200BC2D0020AC2E002034
:10E7F000902E0020A92E0020F0B58027274C7F0501
:10E80000237839699A00D3189B00E3181A89DD88A8
:10E810001B69AD18ED18090483B0090C281C02F01F
:10E820005FF81F4B0E1C5869431C35D03969090429
:10E83000090C01F0CFFF80235B0519690138090439
:10E84000090C4143174B89191A68281CFFF75CFC17
:10E85000021E06D0112806D10823134A11680B4363
:10E86000136003B0F0BD23789800C018800026180C
:10E87000301C0E4CF36824685D003179ED18736923
:10E8800000940B4CAD000C302C59A0470422094BCE
:10E890001A70FFF76DFCE4E77869CCE7BC2D002027
:10E8A000001000108C2E0020A42E0020AC2E002082
:10E8B000902E0020A92E002030B5154B83B018688B
:10E8C000FFF724FC021E06D0112806D10823114AA6
:10E8D00011680B43136003B030BD0F490B789800EB
:10E8E000C01880000D18281CEB6829795C00E4181A
:10E8F0006B690A4DA4002D680C300095084D6459D1
:10E90000A0470422074B1A70FFF732FCE3E7C0462A
:10E91000B82E0020A42E0020BC2D0020AC2E0020FC
:10E92000902E0020A92E0020082370B52A4D82B019
:10E930002C68234209D09C43284B294A1B782C6021
:10E940009B009B58984702B070BD0122234B1A7060
:10E95000244B5869431C3BD080235B05196909048B
:10E96000090C01F037FF061C80235B051869196943
:10E9700000041A69000C731E58431B4B09041B68E2
:10E98000090C92B292085943FFF7BEFB021EDAD07F
:10E99000112803D108231C432C60D4E713490B78BA
:10E9A0009800C01880000D18281CEB6829795C00BD
:10E9B000E4186B690E4DA4002D680C3000950D4DC8
:10E9C0006459A04704220C4B1A70FFF7D1FBBAE739
:10E9D00080235B055E69C7E7A42E0020A82E0020D7
:10E9E000D416020000100010B82E0020BC2D00200C
:10E9F000AC2E0020902E0020A92E002030B5224BF6
:10EA000083B05869431C3AD080235B051969090417
:10EA1000090C01F0DFFE031C802252051069116908
:10EA20000004013B000C09045843090C01F0D2FE1C
:10EA3000FFF76CFB021E06D0112806D10823134AEB
:10EA400011680B43136003B030BD11490B78980077
:10EA5000C01880000D18281CEB6829795C00E418A8
:10EA60006B690C4DA4002D680C3000950A4D64595B
:10EA7000A0470422094B1A70FFF77AFBE3E78023D3
:10EA80005B055B69C8E7C04600100010A42E00209B
:10EA9000BC2D0020AC2E0020902E0020A92E00209E
:10EAA000F0B58027404D7F052C783969A6003319D1
:10EAB0009B00EB18DA8889B283B08A4218D81969AA
:10EAC00018898C46920860445969FFF71DFB021EA5
:10EAD00006D011282DD10823344A11680B43136046
:10EAE0003419A4002C19E288314B1A6003B0F0BD30
:10EAF000196938698C460004000C121A18893C699F
:10EB00005969604480188918A2B29208FFF7FCFA8C
:10EB1000021E06D0112827D10823244A11680B436E
:10EB2000136080235B051B69214A1B041B0C1360C7
:10EB3000DCE72B789800C01880002918CB68081CE7
:10EB40005F00FF180B79BF009C464B6919490C30D8
:10EB50000968009118497F586146B8470422174B4D
:10EB60001A70FFF705FBBBE72B789800C0188000F0
:10EB70002E18301C0F4DF3682D685C003179E418B5
:10EB8000736900950C4DA4000C306459A047042211
:10EB90000A4B1A70FFF7ECFA80235B051B69044AE5
:10EBA0001B041B0C1360A1E7BC2D0020A42E002029
:10EBB000882E0020AC2E0020902E0020A92E0020B0
:10EBC0000823F0B54D4644465F4656461A1CF0B43D
:10EBD000774D85B02C68224091465FD1754F3E78C5
:10EBE000B30003939B199B00FB181A69511EDA8826
:10EBF0001B898A18D318029380235B059B461969E9
:10EC00006D4B1B689846002B57D16C4B1B689A467E
:10EC100080235B05196902980904090C01F0DAFDEB
:10EC2000824500D285E0434600D17AE0002B00D037
:10EC300079E0039B9C466644B600BC1921790429FF
:10EC400000D1AFE0201CE3680C305A00D218636991
:10EC50005B4C9200246800945A4C14590022A0473F
:10EC6000414601203A7893009B189B00FB181971CC
:10EC7000D86041464046D9801861586118817B7838
:10EC80000132013BD2B27B700A2A00D17BE03A709C
:10EC900000224D4B1A70FFF76BFA07E09C434B4B79
:10ECA0004B4A1B782C609B009B58984705B03CBC96
:10ECB00090469946A246AB46F0BD404B09041B68FE
:10ECC000090C02989A4601F085FD5045A0D14A46AC
:10ECD000404B1A6001234A4623432B603B4B1A707A
:10ECE0003D4B5869431C51D05B4619690904090C16
:10ECF00001F070FD031C80225205106911690004A7
:10ED0000013B000C09045843090C01F063FDFFF7B7
:10ED1000FDF9021ECAD011283BD109231C432C60E7
:10ED2000C4E7002B05D00322284B1A70FFF764FDBF
:10ED3000BCE70022274B50461A60244B02321A705F
:10ED4000FFF7E4F9021EB1D0112818D03B789900E2
:10ED5000CB189B00FD18E9684C006418281C297921
:10ED60006B69174DA4002D680C300095154D645942
:10ED7000A0470422144B1A70FFF7FAF996E708230C
:10ED80001C432C6092E700233B7081E75B465B6984
:10ED9000B1E73B789800C01880003D18EB685C0034
:10EDA000E418DBE70122084B1A70FFF7E1F97DE771
:10EDB000A42E0020BC2D00208C2E0020B82E002078
:10EDC000AC2E0020902E0020A92E0020A82E00207E
:10EDD000D4160200B42E002000100010F0B54E46EC
:10EDE000574645460823E0B48C4E82B0346823422F
:10EDF00000D093E08A4B1A68571C1F60894B1D682E
:10EE0000002D50D1884B802299461B7852059D00D9
:10EE1000ED18AB00984608234D469A464544AA444F
:10EE200053469B681169581EEB880904C0182B894A
:10EE3000090CC01801F0CEFC874200D282E07B4B67
:10EE400000D17BE01F68002F00D19CE001231A1C39
:10EE5000224000D08DE023433360754B1A70754B10
:10EE60005869431C00D1BEE080235B051969090481
:10EE7000090C01F0AFFC031C8022520510691169D6
:10EE80000004013B000C09045843090C01F0A2FCEA
:10EE9000FFF73CF9021E49D0112800D0A7E0092352
:10EEA0001C43346042E00421614B197080235B05F0
:10EEB0001F693F043F0C57435E4A5069421C3BD0D8
:10EEC00019690904090C01F085FC80235B051969A7
:10EED00001380904090C41432A1C381CFFF714F9B6
:10EEE000021E23D011284AD04F4801788B005B18AE
:10EEF0009B00C518281CE9684C006418A4002979F7
:10EF00006B694D4D0C302D6800954C4D6459A047F0
:10EF100004224B4B1A70FFF72BF907E09C43444B3C
:10EF2000484A1B7834609B009B58984702B01CBC31
:10EF300090469946A246F0BD5869C6E71B68002B6B
:10EF400000D083E702223A4B381C1A70FFF7DEF834
:10EF5000021EEBD0112812D04B461B789900CB181B
:10EF600049469B00CD18E968281C4C006418A40091
:10EF7000C5E703222E4B1A70FFF73EFCD6E70823A5
:10EF80001C433460D2E7297904293DD053464046DA
:10EF9000294C5B6824685A00D2186B690094274C8E
:10EFA000920048440C3014590022A0474B460120DF
:10EFB0001A78494693009B189B004B441F71DF80D1
:10EFC000D8601F615F611F814B465B780132013B56
:10EFD000D2B24B700A2A1DD00A700022184B1A7048
:10EFE000FFF7C6F8A2E780235B055B6944E74B4661
:10EFF0001B789800C0184B4680001D18EB68281C31
:10F000005C00E418A4007AE701220D4B1A70FFF7A8
:10F01000AFF88BE700230B70DFE7C046A42E00207B
:10F02000B82E0020B42E0020BC2D00208C2E0020F5
:10F03000A82E002000100010AC2E0020902E0020E2
:10F04000A92E0020D416020070B5274C82B0237878
:10F050009800C01880002518281CEB6829795A00F0
:10F06000D2186B69214D92002E680C300096204E0C
:10F0700096590022B04700210126227893009B1860
:10F080009B00E3181971D980DE60196159611981FB
:10F0900063780132013BDBB2D2B263700A2A0BD033
:10F0A00022700021134E14483160144E01703160FB
:10F0B000002B05D102B070BD002222700022F0E7C3
:10F0C00093009A189200A418E3882B602379032BED
:10F0D00007D0042B05D0012BECD10370FFF748F8C3
:10F0E000E8E7FFF71FF9E5E7BC2D0020AC2E002074
:10F0F000902E0020B02E0020A92E0020882E002067
:10F10000F0B5474680B4654D04262C7882B0231CA8
:10F11000B3430ED0022810D003280AD10821604A38
:10F120001368194258D0022C4FD0032C48D0012C20
:10F1300046D002B004BC9046F0BD022C45D0032C52
:10F1400059D0012CF5D10821554A1368194237D1FD
:10F15000544F55493B780E689A00D3189B00FA1813
:10F16000D1888E1BB6B2D680002E6ED1D1681379AD
:10F17000480041189846101C53694C4A890012688F
:10F180000C3000924A4A8A58414694460022E04791
:10F190003A7893009B189B00FB181E71DE80DC60A0
:10F1A0001E615E611E817B780132013BD2B27B70B1
:10F1B0000A2A66D03A7000232B70FEF7D9FFB8E711
:10F1C0008B431360FEF7D4FFB3E73A4B3A4A1B7800
:10F1D0009B009B589847ACE7384A1368013313608B
:10F1E000032B35D0022CEDD1324B354A1B789B00D6
:10F1F0009B5898479DE70821294A13681942DFD197
:10F20000304B284E1A683478571C1F6080235B05EA
:10F210001969A30098461B199B00F3181A69090481
:10F22000501EDA881B898018C018090C01F0D2FA28
:10F230008742C7D32CD0231C43449B00F3181B796F
:10F24000042B20D0FFF700FF73E7FFF729FC70E7DE
:10F250001448027893009B189B00C418201CE26895
:10F26000636951008A182179104C920024680C308F
:10F2700000940F4C14590D22A0472E70FEF778FF12
:10F2800057E73E7097E701232B70FEF771FF50E7B9
:10F290000D4B1B68002BCED194E7C046A92E002051
:10F2A000A42E0020BC2D0020882E0020AC2E002093
:10F2B000902E0020A82E0020C0160200B02E0020A4
:10F2C000D4160200B82E00208C2E002010B500208D
:10F2D0002C2400220121464B1855143418550234B1
:10F2E0001A5302341A531034185502341A53023484
:10F2F000D9601876196259639964D9651A705A7081
:10F300001A71DA801A615A611A815A835A629A62B2
:10F310009A83DA859A63DA631A86DA641A651A665A
:10F320005A661A531034185502341A5302341A53B9
:10F330001034185502341A530634195104341A5132
:10F3400004341A510C3C1A531034185502341A5311
:10F350000634195104341A5104341A510C3C1A530E
:10F360001034185502341A530634195104341A5102
:10F3700004341A510C3C1A5310341855BA201A523E
:10F38000063019501967C3315A5004315A500C399C
:10F390005A525A679A67174B1A80174B5869431C81
:10F3A00022D080235B0519690904090C01F012FAC7
:10F3B00080235B051B6902381B041B0C58430F4B51
:10F3C0000021186000230E4A002013600D4A1360CC
:10F3D000138153810C4A11700C4A13600C4A13605C
:10F3E00004220C4B1A6010BD80235B055869DFE7CF
:10F3F000BC2D00209C2E002000100010A02E00200C
:10F40000B82E0020902E0020A92E0020B02E002023
:10F41000882E0020A42E0020F0B557464E464546C3
:10F42000E0B4344B1A680823520705D4181C1CBCDE
:10F4300090469946A246F0BD002857D0002955D0E5
:10F440000368002B52D080277F053A69868892B2E4
:10F4500007239642EAD80F2EE8D9C288002AE5D0C1
:10F46000254B724399461B68041C9846234B424423
:10F4700058690D1C9246431C3AD039690904090C9D
:10F4800001F0A8F980225205136901381B041B0CF6
:10F49000584307238245C9D8B107C7D1184F033B4A
:10F4A0003E88012EC2D043466B600C232E60454639
:10F4B000734314480136C1184D6025681D50A58856
:10F4C0000D81E08848816843136911699BB2146912
:10F4D000C018013889B2A4B201F00CFA231C4A46C4
:10F4E0004343434413603E8000239FE70E239DE780
:10F4F0007869C7E7A42E0020A02E0020001000107D
:10F500009C2E0020902E002030B5114B1C68082343
:10F51000640701D4181C30BD002806D0002A04D08E
:10F520000368002B03D00723F4E70E23F2E7094C0E
:10F530002568002DF7D0258940686943091860893E
:10F540006468684300198142EDD213605160E1E7BD
:10F55000A42E0020902E0020F0B5474680B41E4C0B
:10F56000051C246882B00820640703D402B004BCE0
:10F570009046F0BD00292CD0002D2AD02C680138EF
:10F58000002CF3D1154C2668002EEFD06E686789E9
:10F59000B04626897743B4466668BC19A045E5D2D3
:10F5A000002AE3D09445E1D3D418A445DEDB09302A
:10F5B0008C07DBD103242342D8D146462642D5D13D
:10F5C000181C131C00900A1C0120291CFEF774FF54
:10F5D000CCE70E20CAE7C046A42E0020902E0020C3
:10F5E000F0B5474680B41E4C051C246882B0082044
:10F5F000640703D402B004BC9046F0BD00292CD0AF
:10F60000002D2AD02C680138002CF3D1154C266827
:10F61000002EEFD06E686789B04626897743B446DE
:10F620006668BC19A045E5D2002AE3D09445E1D331
:10F63000D418A445DEDB09308C07DBD10324234238
:10F64000D8D146462642D5D1181C131C00900A1C5E
:10F650000420291CFEF730FFCCE70E20CAE7C04685
:10F66000A42E0020902E0020F0B54F464646C0B490
:10F67000254C83B0256808246D0705D4201C03B0F1
:10F680000CBC90469946F0BD002906D0002804D055
:10F690000C68002C03D00724F0E70E24EEE71B4D86
:10F6A0002E68002EF7D04E682F89B4466E897E43AF
:10F6B000B1466E68B0464E464644B445EBD2002A89
:10F6C000E9D09742E7D3D618B742E4DB860701D0EA
:10F6D0001024D3E703263342FAD167463E40F7D1E0
:10F6E00088466344191C171C814601F0F5F942460F
:10F6F0000C231268009753434046ED580221321CF8
:10F700004B46A847BAE7C046A42E0020902E002002
:10F71000F0B54F464646C0B4204A83B0126808246C
:10F72000530705D4201C03B00CBC90469946F0BD8D
:10F73000002830D00368013C002BF3D1184B1A6825
:10F74000002AEFD01D895E895A686E434768B61853
:10F75000B742E7D20934BB07E4D188468146291C69
:10F76000B81A01F0BDF8093C0029DBD14046291C3C
:10F7700001F0B6F889B20029D4D14346002BD1D08C
:10F780004744BE42CED30022032000924946FEF7F2
:10F7900093FE041CC6E70E24C4E7C046A42E002036
:10F7A000902E0020F0B557464E464546E0B43B4CFF
:10F7B000031CE27E0820002A04D01CBC9046994617
:10F7C000A246F0BD002B67D001221868A125824017
:10F7D000A020ED00C0054251A94603251A68AA469B
:10F7E000C132FF329200155000255A68AC46C13232
:10F7F000FF32920015509F69294A2A4D57511D7DAD
:10F80000A84647465D7D3D43274FD5515D681F683B
:10F81000A846264D57514746254D57511D7D012D70
:10F8200019D19F683E1CE0277F00B8464644B700C8
:10F8300066463E50DE68B5404E4685515646DD6808
:10F84000C135FF35AD002E504E46D8689D689051A9
:10F85000A220C00015501A696160226000290DD0F5
:10F86000197F0023134A14481360144A1360C123FC
:10F870000B4A9B00D0500220FDF78EFDA0230421EF
:10F88000074ADB00D15000230122E3752376A375DC
:10F89000E276A376002090E7094B95E7BC2E002086
:10F8A00000200040240500006C0500000C0500004D
:10F8B000140500001C21004080000200442100408B
:10F8C000E8160200F0B5264A041C937D1120002B97
:10F8D00000D0F0BD012591752248234993829460A0
:10F8E0000B6005600B60938AE05C938A1F4C0133C8
:10F8F0009BB293821E4BE0505068002801D000203C
:10F90000E7E70027261C1D1C0130FF30947D938AF9
:10F91000A34203D312E0938A834202D00B68002BE8
:10F92000F9D0938A8342F2D00F60938A9468E45CA2
:10F93000938A01339BB293827451E7E78023918AC3
:10F940005B0099420AD008490B68002BFCD00121CA
:10F950000020084B196000239375BAE70F20FAE7DF
:10F96000BC2E0020082000401C2100400020004048
:10F970001C0500000C200040024B987D431E98415E
:10F98000C0B27047BC2E0020F0B5474680B4444B4F
:10F990005A68002A05D08126C224424DB600A40030
:10F9A0002E51DC7D002C0DD01C7E002C1DD0002A99
:10F9B00000D16EE08121C1233A4A89009B00D150D9
:10F9C00011200FE0D975997ED8605C761C760029ED
:10F9D0002BD0002A0DD08121C1230020314A89007B
:10F9E0009B00D15004BC9046F0BD18611976002AE6
:10F9F000F1D12D4C2D4D22602A4A2D489046A3224C
:10FA0000D2009446296806684A1E91412268C9B20C
:10FA1000571EBA41D2B2002E10D1002A27D1002998
:10FA2000F0D000220320DA75DCE7204A1160204A7A
:10FA3000116001211B4A11605A68CAE70029F0D100
:10FA4000002A16D1D97D002917D1016062464146AE
:10FA50008A585A7ED97D9142D4D80022DA759B7E8D
:10FA6000002B18D001220F4B00201A60BAE70029A2
:10FA7000D7D100220F20DA75B4E74646614602600E
:10FA80005A7E7158DE68B1545A7E0132D2B25A762B
:10FA9000DFE71120A6E70122064B00201A60A1E74C
:10FAA000BC2E0020002000404421004024210040C2
:10FAB0000821004004200040064A937E002B07D115
:10FAC00005490B6005490B60054901330B609376CE
:10FAD0007047C046BC2E0020242100400821004071
:10FAE00000200040C12210B5604B92009A5884B0AB
:10FAF00092054DD55E4A1168002949D00021116058
:10FB00008121C2228900920099505A4B9A7E002A84
:10FB100002D10121584A1160022269460A709021DF
:10FB20005248C9004258425069460392DA7D6846FD
:10FB30000A72DA68196801920022DA751A765B682F
:10FB400098474E4A1368002B10D04A4B988A997DEB
:10FB500081424FD9002111609A8A9968895C9A8AFA
:10FB6000013292B29A82464B404AD150454B1A68B4
:10FB7000002A0BD000221A603E4B9A7E002A02D047
:10FB800001213A4A1160DA7D002A42D104B010BD49
:10FB9000C123364A9B00D3585B07D2D53A490B683C
:10FBA000002BCED0334BD87D00283FD10860A32155
:10FBB000C90052585A7ED97D9142C2D11A7E002A7C
:10FBC00041D19A7E002A02D101212B4A1160812065
:10FBD000C2222649800092008850002268460121F6
:10FBE000DA755A7E01700272DA68196801925B68F0
:10FBF0009847A6E7002010600029B7D06A46107029
:10FC000011729A689875196801925B6868469847FE
:10FC1000ACE7002268460121DA755A7E0170027253
:10FC2000DA68196801925B689847AFE700200860BE
:10FC3000A320C000597E1258D86842545A7E01321F
:10FC4000D2B25A76B6E7DA751A69D968DA60002254
:10FC50006C46587E1A765A760132207201912270D3
:10FC6000196868465B6898476BE7C046002000400B
:10FC700024210040BC2E0020042000401C21004014
:10FC80001C0500004421004008210040A0DF70470F
:10FC9000A2DF7047A3DF7047F0B54D465F4656467A
:10FCA0004446F0B40E2595B0002816D0002914D093
:10FCB0000B688946036001235B4243820A7903741F
:10FCC00006A902338B70684B0275071C021D0120C8
:10FCD0000B80FFF7DBFF051E07D0281C15B03CBCCE
:10FCE00090469946A246AB46F0BD3B7D002B00D026
:10FCF0009EE00DAD281C00211C22FBF789FA022290
:10FD00002B78397D1A4301239A460B401801D3B250
:10FD10001022934303432B70002390464A1E9141C7
:10FD20009B466B60EB602B61494204AB0B406B61FF
:10FD30005B465246AB6102AB9A754C4B05AE02AACC
:10FD4000938200210322301CFBF762FA4B469B7B17
:10FD5000062233704B46DB7B08AC7370B37800210E
:10FD60009343043A1343DBB2063293434246934330
:10FD700052469343B3704B461B7B02AAD370201CA0
:10FD80001422FBF745FA07AB0893534623815B46E1
:10FD900063815346A38102AB033323616660291C50
:10FDA000B888BB1D221CFFF773FF051E95D14B467B
:10FDB0009B68002B55D0012302AA93752C4B002180
:10FDC0009382301C0322FBF723FA4B461B7C06224E
:10FDD000337000237370B3789343043A1343DBB258
:10FDE000063293434246934352469343B37003AB68
:10FDF00098464B464046996800F030FB814600210A
:10FE00001422201CFBF704FA07AB23606A464B461A
:10FE1000D3804346D0883A1C658166602081A081EA
:10FE20002361F8880E32211CFFF734FF051C54E7CC
:10FE300004AC00210322201CFBF7EAF90F21012268
:10FE400023788B43134310220B40134323704B46FC
:10FE500006225B7B6370A378934302221343A37053
:10FE600047E7F88139E7C0460F180000192A00005B
:10FE700008290000A0DF7047A2DF7047F0B55646A2
:10FE80004D4644465F46F0B491B001908946904695
:10FE90009A4600294FD04346002B02D10020FCF7A0
:10FEA000B9FA022509AC201C00211C22FBF7B0F98D
:10FEB000237803AE2B43237001239B46B3706B461C
:10FEC00000279B8802A80021032233806760E76037
:10FED00027616761A761FBF79BF953461B7802AA6C
:10FEE000137053465B780021537093780622934336
:10FEF0001D43E7231D405B469D4302AB9D7004AD4F
:10FF0000281C0E32FBF784F902AB6B6043462B8151
:10FF1000AB814B462B610A4B211C18882A1C1A9B6B
:10FF200004966F81FFF7A8FF11B03CBC904699463C
:10FF3000A246AB46F0BD0020FCF76CFAABE7C0462A
:10FF4000202F0020F0B55F464D465646444601231B
:10FF5000F0B495B004A98B70A14B071C0B80A14B8A
:10FF600001201A1C9946FFF785FF002800D0E4E025
:10FF70003A88002A00D0E7E03A89002A00D0F1E070
:10FF80003A8A002A00D0F9E03A8B002A00D001E139
:10FF90003A8C002A00D009E13A8D002A00D011E104
:10FFA0003B6B002B5FD01A7806AD2A700022022628
:10FFB00092465A780DAC6A709A780021AA70DA7865
:10FFC000201CEA701A792A719B681A0A6B71AA714F
:10FFD0001B0C1C22EB71FBF71BF923780021334328
:10FFE000237053466360E36023616361A36101335F
:10FFF00098466B4642469A756A467B4B03A89382A5
:020000022000DC
:100000000322FBF705F93C236A46FB5C00211373CE
:100010003B1C3C335B785373937B062293431E4314
:100020000823F6B29B469E4308339E4343469E43B5
:100030006B469E7308AE0E32301CFBF7E9F805AB39
:10004000089303AB73605B463381534673815B4611
:10005000B3814B46211C1888321C644B3561FFF775
:100060000BFF002869D17B6B002B0AD019681A7925
:100070005F4B604800933B1C3C33FFF7FFFE0028BA
:100080005BD1BB6B002B00D1A8E01A7806AD2A70BB
:100090005A880DAC6A70120AAA709A880021EA7018
:1000A000120A2A71DB881C226B71201C1B0AAB719F
:1000B000FBF7AEF8022290464246237803AE134384
:1000C000237000239A466360E36023616361A36148
:1000D00001339B466B465A469A756A46464B002149
:1000E0009382301C0322FBF793F83C23FB5C06222F
:1000F00033703B1C3C335B7800217370B3789343BF
:1001000042461A43171CE7231F405B469F43B770C4
:1001100008AF1422381CFBF77BF805AB08930723C4
:1001200052463B81BB814B467A811888211C3A1C80
:10013000324B7E603D61FFF79FFE15B03CBC9046A0
:100140009946A246AB46F0BD2D4B2E4800933B1C72
:1001500079683C33FFF792FE0028EED13A89002AF5
:1001600000D10DE7284B294800933B1CF9683C332C
:10017000FFF784FE002800D102E7DEE7244B254884
:1001800000933B1C79693C33FFF778FE002800D1CF
:10019000FAE6D2E7204B214800933B1CF9693C3337
:1001A000FFF76CFE002800D1F2E6C6E71C4B1D48A5
:1001B00000933B1C796A3C33FFF760FE002800D1B6
:1001C000EAE6BAE7184B194800933B1CF96A3C333E
:1001D000FFF754FE002800D1E2E6AEE70020ACE7CE
:1001E0000A180000202F0020232A0000E82E0020FB
:1001F000F82E00202A2A0000502A0000002F00209C
:10020000F02E0020292A0000E02E0020242A0000E1
:10021000102F0020252A0000082F0020272A000088
:10022000182F0020262A0000D82E0020282A00009F
:1002300075DF704776DF70477ADF70477BDF704786
:1002400010B5184B82B01888174B984214D0174A33
:10025000174C13780133DBB21370217B99420DD216
:1002600000231370237C002B12D16369002B03D071
:10027000002201A80270984702B010BD0D49FFF797
:10028000D7FF0028F8D0A369002BF5D09847F3E7F3
:100290003B21FFF7CFFF0028E7D0A369002BE4D074
:1002A0009847E2E76C2F0020FFFF00002C2F002072
:1002B000302F0020702F002030B51B4B1B4A5B886D
:1002C000118883B099420FD852889A420CD3184BA8
:1002D0005B69002B03D0012201A802709847154CDE
:1002E0000023237003B030BD124C2378002B08D0BC
:1002F0000F4B5B69002BF3D0002201A802709847D6
:10030000EEE70D4B0A4D1B78002B0BD0A9680B486C
:100310000022FCF7F7FB0028E2D0AB69002BDFD00E
:100320009847DDE76968F2E7242F0020702F00204E
:10033000302F0020222F00202C2F00204C2F0020B7
:10034000164938B5021C0B1C32CA32C332CA32C33A
:1003500012681A600022124B01681A70002916D028
:10036000104C0832201C00F0B7FB201CFFF764FF84
:1003700000280BD101220C4B52421A8000220B4B59
:100380000B481A7000210B4AFCF7A2FB38BD054848
:10039000FFF754FF0028EDD0F8E7C046302F0020CB
:1003A000222F0020702F00206C2F00202C2F0020E7
:1003B000081702004102020010B50388112B31D04A
:1003C0001FD9122B16D0502B1AD11F4CC288E3898B
:1003D0009A4215D1038A022B12D1837CDB070DD4FC
:1003E0001A48FCF70BFC00280AD0A369002B07D0A1
:1003F000984705E0164B083006C806C3FFF75CFFB8
:1004000010BD102BFCD18288124B18301A80104B73
:1004100006C806C30022104B1A700B4BDB89002B59
:10042000EED1EBE701220B4B52421A8000220A4B1D
:1004300006481A70FCF7E2FB0028E1D0024B9B69EA
:10044000002BDDD09847DBE7302F00204C2F002019
:10045000242F00206C2F00202C2F00200B780370FD
:100460004B7843700220704738B5041C081C0D1CE3
:1004700000F05EFB6560208038BDC046304B1B78C5
:10048000012B00D070472F4B1B681B07FAD1F022BD
:100490002D4B1B68134027D12C4B1B68134229D0CE
:1004A000284B1B681B07EDD1F022274B1B6813401C
:1004B000402B32D0244B1A68F0231340A02B01D0DC
:1004C000D02BDFD1214B1A68F0231A42DAD1204A0F
:1004D0001368012B04D01F4B13601368012BFCD150
:1004E000C0221D4B1A60CDE7102B0FD1174B1B6894
:1004F0001342D9D1194A1A4B1A608022194B1202A1
:100500001A600F4B1B78012BCAD0BBE7302BCBD125
:100510000E4B1B681342C7D1ECE70C4B1B68134210
:10052000C8D1C12380220121DB00D205D150044B68
:100530001B78012BA6D1034B1B681B07BAD0A1E780
:10054000E00F00F0E40F00F0E80F00F0EC0F00F017
:1005500000EC06407593000014EC0640DFFF07C076
:1005600004050040186C004052DF704710DF7047F0
:1005700060DF704761DF704708B5FBF75BFF08BDC0
:10058000F0B54F464646C0B42E4B2F4E1C689846D9
:1005900063425C410025B1462C4F83B0E4B2002D8C
:1005A00007D0002C22D003B00CBC90469946F0BD79
:1005B000012401A8FFF7D8FF052832D0002826D053
:1005C000FBF728FF002CF3D16A461F4B01A91B88BB
:1005D00093801E4B1C68201CFFF7CCFF0528E7D03A
:1005E00000280ED0FBF716FF0024D8E73C683388BC
:1005F00001A9201C0B80FFF7BDFF0528D3D00028E0
:10060000F0D14346201C1B6898470024C7E7019897
:10061000FCF7B0FE0E4B1B68002BD3D00198984717
:10062000D0E7002CBFD14B466A461B8801A99380B6
:10063000064B01251C68201CFFF79CFF0528CFD125
:10064000B1E7C046842F00207A2F00207C2F0020A5
:10065000802F002038B5041C0720002901D08D0709
:1006600000D038BD124801601249201C0A80124A8D
:1006700012491360FFF77AFF0028F2D10122104BD4
:100680001A70C5220F4B92009A58520207D50E4A93
:100690005068002805D18022D2031A60E1E70B4898
:1006A000DFE780211368C9030B4313600020D8E7FC
:1006B0007C2F00207A2F0020882F0020790502004F
:1006C000782F002000E100E0D42F0020022000005D
:1006D000002803D0024B1860002070470E20FCE772
:1006E000842F0020002803D0024B186000207047A0
:1006F0000E20FCE7802F002008B5094B1B68002B5B
:1007000006D09847002800D108BDFBF783FEFBE721
:10071000044B1B78002BF7D0FFF732FFF4E7C046FD
:10072000882F0020782F002070B5141C051C0E1C8B
:10073000101C00211422FAF76BFD00230122236113
:10074000237B22809343237326726572002D01D090
:100750000123A372002070BD0020034B82B00193DF
:10076000019B02B07047C0460028002000B5054B31
:1007700083B00193019B69460093FFF7F9FE03B034
:1007800000BDC0460028002003210A4802680A4331
:100790000260094802680A4302600849084A094B96
:1007A0009B1A03DD043BC858D050FBDCFFF766FE04
:1007B000FAF7B6FC24050040540500404C1702002F
:1007C0000028002098280020FEE7FEE7FEE7FEE76D
:1007D000FEE7FEE7002243088B4274D303098B42F5
:1007E0005FD3030A8B4244D3030B8B4228D3030C01
:1007F0008B420DD3FF22090212BA030C8B4202D3A3
:100800001212090265D0030B8B4219D300E0090ACA
:10081000C30B8B4201D3CB03C01A5241830B8B42D3
:1008200001D38B03C01A5241430B8B4201D34B03BC
:10083000C01A5241030B8B4201D30B03C01A524121
:10084000C30A8B4201D3CB02C01A5241830A8B42A6
:1008500001D38B02C01A5241430A8B4201D34B028F
:10086000C01A5241030A8B4201D30B02C01A5241F3
:10087000CDD2C3098B4201D3CB01C01A52418309A7
:100880008B4201D38B01C01A524143098B4201D3E1
:100890004B01C01A524103098B4201D30B01C01A0C
:1008A0005241C3088B4201D3CB00C01A5241830886
:1008B0008B4201D38B00C01A524143088B4201D3B3
:1008C0004B00C01A5241411A00D201465241104613
:1008D0007047FFE701B5002000F0FCF802BDC046FC
:1008E0000029F7D003B5FFF775FF0EBC4243891A04
:1008F0001847C04603460B437FD4002243088B426F
:1009000074D303098B425FD3030A8B4244D3030B96
:100910008B4228D3030C8B420DD3FF22090212BA5B
:10092000030C8B4202D31212090265D0030B8B42D7
:1009300019D300E0090AC30B8B4201D3CB03C01AC1
:100940005241830B8B4201D38B03C01A5241430B9C
:100950008B4201D34B03C01A5241030B8B4201D38C
:100960000B03C01A5241C30A8B4201D3CB02C01AF7
:100970005241830A8B4201D38B02C01A5241430A6F
:100980008B4201D34B02C01A5241030A8B4201D35E
:100990000B02C01A5241CDD2C3098B4201D3CB0105
:1009A000C01A524183098B4201D38B01C01A5241B4
:1009B00043098B4201D34B01C01A524103098B42B8
:1009C00001D30B01C01A5241C3088B4201D3CB00A3
:1009D000C01A524183088B4201D38B00C01A524186
:1009E00043088B4201D34B00C01A5241411A00D236
:1009F00001465241104670475DE0CA0F00D049429F
:100A0000031000D34042534000229C4603098B420E
:100A10002DD3030A8B4212D3FC22890112BA030A96
:100A20008B420CD3890192118B4208D38901921118
:100A30008B4204D389013AD0921100E08909C3099D
:100A40008B4201D3CB01C01A524183098B4201D39F
:100A50008B01C01A524143098B4201D34B01C01A8A
:100A6000524103098B4201D30B01C01A5241C30802
:100A70008B4201D3CB00C01A524183088B4201D371
:100A80008B00C01A5241D9D243088B4201D34B008C
:100A9000C01A5241411A00D20146634652415B10CE
:100AA000104601D34042002B00D5494270476346AF
:100AB0005B1000D3404201B5002000F00BF802BDEE
:100AC0000029F8D003B5FFF715FF0EBC4243891A81
