:020000021000EC
:10B0000000800020F5C8010035C9010037C90100E2
:10B010000000000000000000000000000000000030
:10B0200000000000000000000000000039C901001D
:10B0300000000000000000003BC901003DC9010004
:10B040003FC901003FC9010055C40100F1C0010022
:10B050003FC901000000000085BC01003FC901009C
:10B060002DBF01003FC901003FC901003FC90100D8
:10B070003FC901003FC901003FC901003FC90100AC
:10B080003FC901002DB501003FC901003FC90100C2
:10B0900009B601003FC9010065C801003FC90100B0
:10B0A0003FC901003FC9010000000000000000008E
:10B0B0000000000000000000000000000000000090
:10B0C00010B5064C2378002B07D1054B002B02D07E
:10B0D000044800E000BF0123237010BDF8200020C9
:10B0E00000000000ACC9010008B5084B002B03D0DC
:10B0F0000748084900E000BF07480368002B00D15B
:10B1000008BD064B002BFBD09847F9E70000000074
:10B11000ACC90100FC200020F42000200000000049
:10B12000164B002B00D1144B9D46402292029A1AD6
:10B13000924600218B460F461348144A121A00F01B
:10B1400067F80F4B002B00D098470E4B002B00D018
:10B1500098470020002104000D000D48002802D06F
:10B160000C4800E000BF00F02DF82000290000F09E
:10B170005BF800F011F8C0460000080000800020D5
:10B180000000000000000000F82000207C240020C7
:10B190000000000000000000084B10B5041C002B4C
:10B1A00002D0002100E000BF054B1868836A002B25
:10B1B00000D09847201C00F033F8C0460000000083
:10B1C0007CC901000E4B70B500251E1C0D4CE41A05
:10B1D000A410A54204D0AB00F35898470135F8E716
:10B1E00001F0BEFB084B00251E1C084CE41AA410FD
:10B1F000A54204D0AB00F35898470135F8E770BD7D
:10B20000EC200020EC200020EC200020F02000208A
:10B21000031C8218934202D019700133FAE7704779
:10B22000FEE7C04648DF704708B500200521094AFF
:10B23000002300F00DFC002801D000F01DF900F003
:10B2400013F900F017F9FFF7EDFF0028F9D000F02F
:10B2500013F9F6E71421002072DF704773DF70479F
:10B2600074DF704778DF70477CDF70477047C046F7
:10B2700038B51B4A13780133DBB2012B2CD90023DC
:10B28000002113700022174D6B70174B2A705B5C06
:10B29000AB70FFF7E5FF00281BD1144C291C0322DB
:10B2A000201C01F04DFB201C114A0A381378132191
:10B2B0000133DBB2FFF7D0FF002807D10D48FFF7BD
:10B2C000CDFF002801D000F0D7F838BD00F0D4F849
:10B2D000F4E700F0D1F8E0E71370191CD2E7C0469C
:10B2E00028230020DC220020A4C901006A240020B9
:10B2F000402400202C23002070B51C4C1C49132234
:10B30000201C01F01DFB1B4E301C01F022FB08230A
:10B31000194D0130C2B22A70311C013AA81C6B7061
:10B3200001F00EFB2B78201C0133DBB213212A1C09
:10B33000FFF792FF002801D000F09EF80F4C00218B
:10B34000201C1822FFF764FF022323700023636090
:10B350002372E360A0332382201C643B6382FFF7E7
:10B360007DFF002801D000F087F870BD6024002028
:10B3700084C90100E0200020402400202C2300206C
:10B3800030B587B02F490422684601F0D9FA6846E3
:10B390002D494822002301F01DFA00284ED101ACAE
:10B3A00000200121221C01F075FA002843D1274812
:10B3B00001F088FA00283BD1201C01F08DFA00280A
:10B3C00033D1234801F044FA002801D000F054F8AA
:10B3D0000023204D2370281C01F0BBFA291C82B2E7
:10B3E000201CFFF741FF00281CD1C0204000FFF7C0
:10B3F00039FF002801D000F03FF817480121174A13
:10B4000000F098FB00280AD115481649002200F0E8
:10B41000ABFB002801D000F02FF807B030BD00F0E2
:10B420002BF8F1E700F028F8DFE700F025F8C8E78F
:10B4300000F022F8C0E700F01FF8B8E700F01CF8B1
:10B44000ADE7C04680C90100E0220020E81F0020CF
:10B450006DB2010098C90100A8C9010071B20100D4
:10B46000442300200200020008B5FFF789FFFFF720
:10B4700043FF08BD7047C046002300B585B001AA50
:10B480009060002103481380536000F005F805B078
:10B4900000BDC04601400000BFF34F8F034A044B7C
:10B4A000DA60BFF34F8FC046FDE7C0460400FA05DF
:10B4B00000ED00E080218023184A8902D1508022CB
:10B4C000D221174B520289005A5040395A5001225A
:10B4D0002F205A600138C046C046C046C046C0460C
:10B4E000C046C046C046C046C046C046C046F1D170
:10B4F0009A6000230B4A2F2013600138C046C046D3
:10B50000C046C046C046C046C046C046C046C0460B
:10B51000C046C046F1D1044A1370704700E100E014
:10B52000001001406423002084230020A021F0B5F6
:10B53000002347462B4A490080B4535004315350EE
:10B5400004315350043153504C395350043153504B
:10B55000254B1B68002B35D024490026525824491E
:10B56000244F0C68141B00222402240A904602E097
:10B57000002D18D02B1C1A68A24214D8A41AB61891
:10B580001A7CDD69002AF3D0424699691A745A6917
:10B590003B68002B19D0101C98470028E8D0FFF713
:10B5A0006BFF002DE6D1144B14491A780B789A42A0
:10B5B0000ED0134A9B009E5080218023114A4903DC
:10B5C0005B00D15004BC9046F0BD081C9047CFE70B
:10B5D0000132D3B2022B01D00B70EAE700230B70CB
:10B5E000E7E7C04600100140682300200405000082
:10B5F000642300206C23002078230020792300207E
:10B600007C23002000E100E0F0B55F4656464D4641
:10B610004446F0B4B44BB54A1B68B54989B00193B0
:10B6200009781378994200D1B1E10133DBB2022BE2
:10B6300000D100231370AF4A9B009B58AA4A994639
:10B64000019B4B441B021B0A136001230493AA4B6A
:10B6500000241B689B46A94BD8461B781A1C0293F2
:10B66000A74B944607931B6803939F4B1B68069355
:10B67000A44B1B7805935B466646013EF2B29446A6
:10B68000FF2A4FD06246D000039A92465044017878
:10B690004578A942F0D04A005218877801314668AF
:10B6A000C9B27F1AB2467E1EB741D2007F425244D1
:10B6B00039401778022F0AD0032FEAD1002BE8D0A7
:10B6C0001C74DB69002BFBD145789846E1E756688E
:10B6D000002B25D09E421AD01F1C00E0171CFA69CF
:10B6E000002AD6D09642F9D1321C3D1CBE4200D170
:10B6F000EBE01768D269EA61002A06D013689A461F
:10B700005744176045784346C3E74578C1E7DE698B
:10B710001A1C002E00D1DDE0B046331C151CE8E7F2
:10B720000023B6E76946774A097D181C11706E4AF6
:10B7300006990393116041466F4A1160049A002AEA
:10B7400000D028E15B461B1A5A1E93410025DBB24C
:10B750000493079B00271B68039E0693624B1B689C
:10B760009C46654B1B689A46664B1B780593664B57
:10B77000019301239846029B013BDBB20293FF2B0E
:10B7800000D18FE0069ADB0093469B44002D27D022
:10B790006968AB68281CED696246019C8A1A12022E
:10B7A000120AA24250D8D31842460360476087600D
:10B7B0000274C761002E56D03168341C994204D3FC
:10B7C0005FE01168994263D2141CE2695B1A002A97
:10B7D000F7D10360331CC261E0611E1C002DD7D17C
:10B7E0005B465A461B7852789A42C4D059464968FB
:10B7F0005A0089465946D2180133DBB20B7089785A
:10B80000D2004A4499424AD011785068331C012929
:10B81000E3D1037C99464946331C0029DDD1916868
:10B820004160D36883601469C46052698261059A7B
:10B83000002AB1D04A46002142606246019C8A1A21
:10B840001202120AA242AED96246511A0902090A2C
:10B8500099420CD242465B1A0360476087600274CB
:10B86000C761002EA8D1031C82461E1CB6E74346C2
:10B870000760476087600374C761002EF3D0002320
:10B880003168CB1A3360031CC66182461E1CA5E7D3
:10B89000C91A11600360C261331CE0619DE75B4619
:10B8A0001D70B1E75246144B1A60039BB3422FD16F
:10B8B000049B002B2CD10023124A137009B03CBC0E
:10B8C00090469946A246AB46F0BDDE693A1C002E72
:10B8D00000D021E701250D4B9D600023069601361F
:10B8E0009846151C059604E7642300207823002061
:10B8F000792300207C23002068230020702300206F
:10B90000742300207A230020FEFF7F0000100140F6
:10B91000002E63D0484B49493568CC58484B494EB6
:10B920001B683078E21A1202120A0332904600288D
:10B9300061D04246AA4200D22A1CA820D218120284
:10B940003E49130AC0003C4D0B504A591B1B121BA9
:10B950001202120A1B0203321B0A9A42ABD94B593C
:10B960000B502F200138C046C046C046C046C046D6
:10B97000C046C046C046C046C046C046C046F1D1DB
:10B9800080218023304A89025B00D15093E7002355
:10B99000994604935BE6002500210024484646466C
:10B9A00013E01A6882421CD8DE68801A89181C606D
:10B9B000DF69002E07D0DD611D1C019A9E608A1888
:10B9C0001202120A5A603B1C3E1C002BE9D11F4B8D
:10B9D0001E600023039301330493BAE6FFF76AFD68
:10B9E00069E78146194903930E604946521A1A6065
:10B9F00001230493ADE68020D1274002BF00C85147
:10BA0000403FC851C02280270F48BF0252008750D4
:10BA1000076001272F200F600138C046C046C0468E
:10BA2000C046C046C046C046C046C046C046C046E6
:10BA3000C046F1D137707CE70405000000100140DA
:10BA4000642300208423002000E100E0682300201C
:10BA5000F8B54F464646C0B40326351C80460F1C39
:10BA6000141C994615400720002D03D00CBC9046AD
:10BA70009946F8BD002A44D0FFF71CFD4A46224BE8
:10BA800080201A60221C214B18321E70204B6260ED
:10BA90001C607B00DB19DB00D218E260D318C022E7
:10BAA000636125706570A77025726572A772257431
:10BAB0006574A774C524FF21164B40031D60164B07
:10BAC00052001D70154BA4001D70154B98501A594B
:10BAD0008A433F390A431A51A1221860404611494E
:10BAE000D2008850C42080001C580F4A2240C02435
:10BAF000240222431A500D4B0020CA580C4B1A60E6
:10BB0000B4E7034B1A60B1E76C23002070230020D8
:10BB1000742300206823002078230020792300204C
:10BB200000E100E000100140FF00FFFF04050000FD
:10BB30006423002010B50B4B1B68002B0BD0002A90
:10BB400007D0002805D0036808201C7C002C04D0F6
:10BB500010BD0720FCE70820FAE759745A6100205D
:10BB6000F6E7C04674230020F0B5474680B4374B53
:10BB70001C68002C08D0002806D00723042905D80B
:10BB8000181C04BC9046F0BD0823F9E74369002B5C
:10BB9000FAD00025437CA846012B2FD0EFF3058374
:10BBA000DB05DB0D1025002B2CD164196378A578FB
:10BBB0005E1CF6B2AD1B6F1EBD416D422E40257856
:10BBC000B5421DD05D00EB186568DB00ED1804235D
:10BBD000002DD5D0033B2B7068601D4B1D48C3580A
:10BBE000E960AB60434680212B6180236A611A4A79
:10BBF0005B0049036670D1500023C1E78846CDE75A
:10BC00000423BDE7103BDEB275B2002D13DBAD0897
:10BC1000114EC035AD00AD5903263340DB00DD4089
:10BC20002B069B0FDBB20025012BBED00835032B62
:10BC3000BBD00835B9E70F23084D3340AC46083B6D
:10BC40009B089B0063445D680323E6E774230020A0
:10BC5000040500000010014000E100E018ED00E0E4
:10BC600010B500280BD1064C6368002B07D01A686A
:10BC700000205B68626098476368002BF7D110BDB5
:10BC800088230020F0B544465F4656464D46F0B442
:10BC90009C4A87B013680024012B00D1AEE09A4B78
:10BCA0001A68012A00D1B7E0984B1A68012A00D11E
:10BCB000C2E0974B1A68012A00D1CDE00022954BD3
:10BCC00002921A68012A00D1D8E023070BD0E307BB
:10BCD00000D5DFE0A30700D5EBE0630700D5F6E071
:10BCE000230700D502E1002C06DB07B03CBC9046E0
:10BCF0009946A246AB46F0BD002301270493C0330A
:10BD000099460126844D7F4200230393E023DB0004
:10BD100000249846231C4033E95C4BB201332CD0FD
:10BD2000C9B24B46081C98433B1CC3401E4224D05A
:10BD30008B0901932B1820331B785BB29B00EB58C7
:10BD40009C46002B35D0331C83409A46019B032B25
:10BD500035D0A023DB059B46434682005A44D35886
:10BD60000592C022920213401B0C191C53469346A5
:10BD7000029A1A4212D1032926D00134042CC9D1C7
:10BD8000039B002BB1D0A223A022DB00D205D35805
:10BD9000029A9A42A9D0049F0293B5E70229ECD1F6
:10BDA000019B032B16D06346002BE6D00199E04798
:10BDB000E3E7019B032BE0D1331C83409A465246B4
:10BDC000049B13430493C4E7019B032BEBD1802313
:10BDD0009B029B4643460599CB589A4652464F4B89
:10BDE000134042468B508B585A461A43131C424606
:10BDF0008B50039B0133DBB20393D4E7C121484846
:10BE0000890041580B4200D149E73F4B14601A6842
:10BE10000134012A00D047E7C122414992008958E4
:10BE200002220A4200D13FE700211960374B144338
:10BE30001A68012A00D03CE7C1223949920089588A
:10BE400004220A4200D134E700211960304B144328
:10BE50001A68012A00D031E7C1223149920089587D
:10BE600008220A4200D129E7002114430022196068
:10BE7000284B02921A68012A00D026E700221A6095
:10BE800080231B061C43A022A223D205DB00D3582B
:10BE900002931AE7A223224ADB00D058D1581E4D44
:10BEA000C00489032B68C00E890F9847A30700D4EC
:10BEB00013E71C4B1A4A184DD058D158C0048903B7
:10BEC0006B68C00E890F9847630700D408E7A32367
:10BED000134ADB00D058D1580F4DC0048903AB681A
:10BEE000C00E890F9847230700D4FCE60C4A0E4B7E
:10BEF000094DD058D158C0048903C00E890FEB6892
:10BF00009847F0E60061004004610040086100408D
:10BF10000C6100407C61004094230020FFFFFCFF87
:10BF200000600040140500001C05000008B5264B09
:10BF30001A68002A05D0C122244992008A58D203E7
:10BF400027D4234B1A68002A05D0C1221F4992002A
:10BF50008A58920326D41F4B1A68002A05D0C122A2
:10BF60001A4992008A58520325D41B4B1A68002A9A
:10BF700005D0C122154992008A58120300D408BD89
:10BF80000022A6201A60154B400059681B6898478C
:10BF9000F5E70022A0201A60104B400059681B688A
:10BFA0009847CEE70022A2201A600C4B4000596847
:10BFB0001B689847CFE70022A4201A60074B400077
:10BFC00059681B689847D0E74081004000800040D6
:10BFD00044810040488100404C810040DC23002027
:10BFE000F0B54D4644465F465646F0B409AC257858
:10BFF0000AAC2478A4460C78002C17D11678B046E9
:10C00000922676008759B346002F20D0331C243B5C
:10C01000FF3B845143610B70A8450FD00124201CC5
:10C020003CBC90469946A246AB46F0BD9222002306
:10C0300052008350083A8350143A835082235B00A5
:10C04000C258002AEAD000220024C250E7E78E2618
:10C050007600B1468659B246002E0BD04E46875127
:10C060005E468659002E23D05B46C75001234361AC
:10C070000B70D1E7842464000759002FCCD05646BA
:10C0800006515C460459002C22D111788D42C3D947
:10C09000A324E40004595C5413780133DBB2137019
:10C0A0006A1E93421DD09D42B6D001230362B3E7BE
:10C0B00011788D4205D86346002B0FD00123C36150
:10C0C000ADE7595C094BC150137801331370A3E7F6
:10C0D00001235A46865043610B709DE7012343615B
:10C0E0009AE7802302229B00C250DEE71C05000075
:10C0F000F0B544464D465F465646F0B4B64B232154
:10C10000DA69585C904620229C5C01329A5C89B0C6
:10C110009146002816D12622922594469F5CAF4A6C
:10C120006D005659AB46002E37D05051012050615A
:10C130005854BC420FD009B03CBC90469946A24628
:10C14000AB46F0BD92200021A44A400011500838AF
:10C150001150143811508222A049520088580028EA
:10C16000E9D0002088502320195C002926D11E7BAD
:10C17000B21E012A58D9191C05AA0C3170C970C207
:10C18000002204A802702422002199549A695207BF
:10C19000D1D459681B689847CDE78E2040001558C8
:10C1A000AA46002D1ED016505846105800286FD0B1
:10C1B00058461650012050615854BAE7191C05AA78
:10C1C0000C3170C970C28649844C04A86258625010
:10C1D0000221114203D15207D5D50170D3E70122C4
:10C1E0000270D0E7842040001658002EA1D055469A
:10C1F00015505846105800285AD1BC4299D9A3214D
:10C200004046C9005158C15561466046595C0131EC
:10C21000C9B21954601E814250D08C4200D188E7C7
:10C2200001216E4A116284E7DA691C69A242A2D137
:10C230005A6901279046DA612022DC7B9C549A6976
:10C2400052093A40914621224D469D54032E3AD040
:10C250008226624A7600915120369151083E9151D2
:10C26000143E9151E23E99551954012C50D0802131
:10C27000890057500121594A11621160196800293B
:10C280004BD0584999609968C1239B00D15052E71F
:10C29000BC4205D8494600290DD00121D16162E791
:10C2A0004146C85D5049505061467A1C5A5440E797
:10C2B00050465D4639E7012151613AE7802102206D
:10C2C00089005050ACE7454EE332B1502032B150B6
:10C2D000083AB150143AB150F832B150DB3AFF3A53
:10C2E0009954195494463762B760002C26D04246C0
:10C2F000107862463C4970509F541A68002A24D036
:10C30000384A9A609968C123344A9B00D15012E799
:10C310008021022089005050ACE71F1C26331E1CD0
:10C32000454623370023009401932C48391C321CC6
:10C330002B1CFFF755FE0028F4D1FCE64A46002AE4
:10C3400001D0F761D9E77761D7E79220013223273F
:10C3500000269346214940000394DA5D9446002A62
:10C360002BD10C58263292469A5C002C2CD18E256B
:10C370006D004D59AC46002D38D08E256D004C51C6
:10C380000D58002D21D1039C944251D94446A45C00
:10C39000A4466546144C0D515546541C5C55039CEF
:10C3A0009442DAD18222520094468A58002AD4D08C
:10C3B00000226146094B5A50BDE68E2252000E50B3
:10C3C0008E50143A8E50EDE764460C505C464C613A
:10C3D0005C46DC55E3E7C046E8230020003000401F
:10C3E000C4040000860200001C05000084246400D0
:10C3F0000D59002DD3D065460D510C58002CE3D1BA
:10C40000039C9442CBD9A3244546E4000C59AC5478
:10C41000544655461C5D0134E4B25C55039D013D14
:10C42000AC420FD0039DA542B9D05C460C62B6E782
:10C430004C46002C03D00122054BDA617BE65C46BA
:10C440004C61ACE780240225A4000D51EDE7C04605
:10C4500000300040C12210B5604B92009A5884B061
:10C4600092054DD55E4A1168002949D0002111601E
:10C470008121C2228900920099505A4B9A7E002A4B
:10C4800002D10121584A1160022269460A709021A6
:10C490005248C9004258425069460392DA7D6846C4
:10C4A0000A72DA68196801920022DA751A765B68F6
:10C4B00098474E4A1368002B10D04A4B988A997DB2
:10C4C00081424FD9002111609A8A9968895C9A8AC1
:10C4D000013292B29A82464B404AD150454B1A687B
:10C4E000002A0BD000221A603E4B9A7E002A02D00E
:10C4F00001213A4A1160DA7D002A42D104B010BD10
:10C50000C123364A9B00D3585B07D2D53A490B6802
:10C51000002BCED0334BD87D00283FD10860A3211B
:10C52000C90052585A7ED97D9142C2D11A7E002A42
:10C5300041D19A7E002A02D101212B4A116081202B
:10C54000C2222649800092008850002268460121BC
:10C55000DA755A7E01700272DA68196801925B68B6
:10C560009847A6E7002010600029B7D06A461070EF
:10C5700011729A689875196801925B6868469847C5
:10C58000ACE7002268460121DA755A7E017002721A
:10C59000DA68196801925B689847AFE70020086085
:10C5A000A320C000597E1258D86842545A7E0132E6
:10C5B000D2B25A76B6E7DA751A69D968DA6000221B
:10C5C0006C46587E1A765A7601322072019122709A
:10C5D000196868465B6898476BE7C04600200040D2
:10C5E0002421004010240020042000401C21004091
:10C5F0001C0500004421004008210040304B1B78FE
:10C60000012B00D070472F4B1B681B07FAD1F0227B
:10C610002D4B1B68134027D12C4B1B68134229D08C
:10C62000284B1B681B07EDD1F022274B1B681340DA
:10C63000402B32D0244B1A68F0231340A02B01D09A
:10C64000D02BDFD1214B1A68F0231A42DAD1204ACD
:10C650001368012B04D01F4B13601368012BFCD10E
:10C66000C0221D4B1A60CDE7102B0FD1174B1B6852
:10C670001342D9D1194A1A4B1A608022194B12025F
:10C680001A600F4B1B78012BCAD0BBE7302BCBD1E4
:10C690000E4B1B681342C7D1ECE70C4B1B681342CF
:10C6A000C8D1C12380220121DB00D205D150044B27
:10C6B0001B78012BA6D1034B1B681B07BAD0A1E73F
:10C6C000E00F00F0E40F00F0E80F00F0EC0F00F0D6
:10C6D00000EC06407593000014EC0640DFFF07C035
:10C6E00004050040186C004052DF704710DF7047AF
:10C6F00060DF704761DF704708B5FEF7CDFE08BD0B
:10C70000F0B54F464646C0B42E4B2F4E1C68984697
:10C7100063425C410025B1462C4F83B0E4B2002D4A
:10C7200007D0002C22D003B00CBC90469946F0BD37
:10C73000012401A8FFF7D8FF052832D0002826D011
:10C74000FEF79AFE002CF3D16A461F4B01A91B8805
:10C7500093801E4B1C68201CFFF7CCFF0528E7D0F8
:10C7600000280ED0FEF788FE0024D8E73C68338806
:10C7700001A9201C0B80FFF7BDFF0528D3D000289E
:10C78000F0D14346201C1B6898470024C7E7019856
:10C79000FFF766FA0E4B1B68002BD3D00198984721
:10C7A000D0E7002CBFD14B466A461B8801A9938075
:10C7B000064B01251C68201CFFF79CFF0528CFD1E4
:10C7C000B1E7C046382400202E2400203024002069
:10C7D0003424002038B5041C0720002901D08D071F
:10C7E00000D038BD124801601249201C0A80124A4C
:10C7F00012491360FFF77AFF0028F2D10122104B93
:10C800001A70C5220F4B92009A58520207D50E4A51
:10C810005068002805D18022D2031A60E1E70B4856
:10C82000DFE780211368C9030B4313600020D8E7BA
:10C83000302400202E2400203C240020F9C60100D2
:10C840002C24002000E100E07424002002200000DD
:10C85000002803D0024B1860002070470E20FCE730
:10C860003824002008B5094B1B68002B06D09847D8
:10C87000002800D108BDFEF7FFFDFBE7044B1B7845
:10C88000002BF7D0FFF73CFFF4E7C0463C24002024
:10C890002C24002070B5141C051C0E1C101C00213B
:10C8A0001422FEF7B5FC002301222361237B2280A2
:10C8B0009343237326726572002D01D00123A37266
:10C8C000002070BD0020034B82B00193019B02B099
:10C8D0007047C0468020002000B5054B83B001930F
:10C8E000019B69460093FFF703FF03B000BDC046FC
:10C8F0008020002003210A4802680A430260094898
:10C9000002680A4302600849084A094B9B1A03DD82
:10C91000043BC858D050FBDCFFF770FEFEF700FC6C
:10C920002405004054050040B8C9010080200020C3
:10C93000F8200020FEE7FEE7FEE7FEE7FEE7FEE761
:10C94000002310B5934203D0CC5CC4540133F9E703
:10C9500010BD0023C25C0133002AFBD1581E704772
:10C96000F8B5C046F8BC08BC9E467047F8B5C0464E
:10C97000F8BC08BC9E4670474300000080200020A1
:10C98000000F0F000201040FFFFE0F0B100101004A
:10C99000000000000000C200435542455F50524F66
:10C9A000544F00000001000044230020000000005C
:08C9B00070E7FF7F01000000A9
:10C9B800000000000000000000000000000000006F
:10C9C800000000000000000000000000000000005F
:10C9D80078C901000000000000000000000000000D
:10C9E800000000000000000000000000000000003F
:10C9F800000000000000000000000000000000002F
:10CA0800000000000000000000000000000000001E
:10CA1800435542455F50524F544F0000E9B0010062
:08CA2800C1B001000000000094
:040000031000C8F52C
:00000001FF
