:020000021000EC
:10B0000000400020C5000200050102000701020007
:10B010000000000000000000000000000000000030
:10B020000000000000000000000000000901020014
:10B0300000000000000000000B0102000D010200F2
:10B040000F0102000F01020021F4010021DA0100CA
:10B050000F0102000000000095D001000F01020066
:10B060003DD301000F0102000F0102000F01020099
:10B070000F0102000F0102000F0102000F01020088
:10B080000F01020099C301000F0102000F0102002D
:10B0900075C401000F010200350002000F0102001B
:10B0A0000F0102000F01020000000000000000007C
:10B0B0000000000000000000000000000000000090
:10B0C00010B5064C2378002B07D1054B002B02D07E
:10B0D000044800E000BF0123237010BD9828002021
:10B0E00000000000FC0E020008B5084B002B03D046
:10B0F0000748084900E000BF07480368002B00D15B
:10B1000008BD064B002BFBD09847F9E70000000074
:10B11000FC0E02009C280020942800200000000063
:10B12000164B002B00D1144B9D46402292029A1AD6
:10B13000924600218B460F461348144A121A00F01B
:10B1400067F80F4B002B00D098470E4B002B00D018
:10B1500098470020002104000D000D48002802D06F
:10B160000C4800E000BF00F02DF82000290000F09E
:10B170005BF800F011F8C046000008000040002015
:10B18000000000000000000098280020B42E0020DD
:10B190000000000000000000084B10B5041C002B4C
:10B1A00002D0002100E000BF054B1868836A002B25
:10B1B00000D09847201C00F033F8C0460000000083
:10B1C000700C02000E4B70B500251E1C0D4CE41ACD
:10B1D000A410A54204D0AB00F35898470135F8E716
:10B1E00005F038FD084B00251E1C084CE41AA4107D
:10B1F000A54204D0AB00F35898470135F8E770BD7D
:10B200008C2800208C2800208C28002090280020EA
:10B21000031C8218934202D019700133FAE7704779
:10B22000FEE7C04648DF704708B5002005210D4AFB
:10B23000002301F043FB002801D001F053F8A023C4
:10B24000A3218022DB05C9005A5007495A5001F05A
:10B2500001F801F045F8FFF7E5FF0028F9D001F00B
:10B2600041F8F6E7B42800200C05000008B50028D6
:10B2700028D1154B15481A78597812020A430280D2
:10B280009A78D97812020A4342801A7959791202BF
:10B290000A4382809A79D97912020A43C2801A7AC3
:10B2A000597A12020A4302819A7AD97A12020A431F
:10B2B00042811A7B5B7B120213438381044B07217B
:10B2C0001B68984708BDC046B02A00207C2A002091
:10B2D000C02A002008B50548054901F09BFD00285B
:10B2E00001D000F0FFFF012008BDC0466428002007
:10B2F000F00C020070B5061C84B01C4801F05AFE28
:10B300006A461B4B694631CB31C21A4C1B68201C64
:10B3100013600822184B01F05DFD002801D000F0F9
:10B32000E1FF201C15490222002301F0A9FD00289D
:10B3300018D1134B00251B78682B02D0281C04B0B1
:10B3400070BD3368002BF9D00E4A201C13600E49E3
:10B350000622002301F094FD01350028EED000F014
:10B36000C1FFEBE700F0BEFFE3E7C046B80B00000B
:10B37000740C0200642800208C2A00209C0C02001F
:10B38000B02A0020C02A0020C00C020072DF7047E3
:10B3900073DF704774DF704776DF704778DF704780
:10B3A0007ADF70477CDF70477FDF7047A9DF704727
:10B3B0007047C04608B500F095FF08BD10B5041CE5
:10B3C00004F098FC1E48211C00F0EEF92388103B85
:10B3D0009BB2452B0CD81B4A9B00D3589F461A4B57
:10B3E00013211888FFF7D8FF002801D000F07AFF5A
:10B3F00010BD237A002B01D1144A1370A288124B7E
:10B400001A80F5E70122104B524211481A80FFF7CB
:10B41000BFFF0028ECD0E9E70B4B852118880022FC
:10B420000023FFF7C1FF0028E2D0DFE7064B002131
:10B43000188800220023FFF7B9FF0028D8D0D5E7ED
:10B44000102B0020000D0200882800200C2B00206B
:10B45000442B002008B50378002B00D008BD054B15
:10B460003B211888FFF798FF0028F7D000F03AFF3B
:10B47000F4E7C04688280020F8B51D4B1C881D4BFA
:10B480009C4200D0F8BD4B1E072BFBD80028F9D0FA
:10B49000194F0C1C3B78051C002B1ED1174E291C84
:10B4A000221C301C04F0B6FF301C154A0A381378F1
:10B4B00013210133DBB2FFF769FF00280AD11148DD
:10B4C000FFF766FF002802D101233B70DAE700F0A6
:10B4D00009FFF9E700F006FFF1E7FFF75BFF00283F
:10B4E00002D100233B70D9E700F0FCFEF9E7C0462B
:10B4F00088280020FFFF00000C2B0020962E002043
:10B500006C2E0020442B002070B59AB005AD8F49F9
:10B510000422281C04F07EFF281C8D4948220023A9
:10B5200004F036FD002800D00DE10AAC0020012116
:10B53000221C04F097FD002800D001E1854804F0AA
:10B54000A9FD002800D0F8E0201C04F0ADFD002883
:10B5500000D0EFE0804804F059FD002801D000F051
:10B56000C1FE00237D4E2B70301C04F07FFF311C88
:10B5700082B2281CFFF716FF002800D0D7E0C020B9
:10B580004000FFF70BFF002800D0CDE0201C002179
:10B590000822FFF73DFE50232380503363800023B1
:10B5A000A3809133FF33201CE380FFF7F9FE0028CE
:10B5B00001D000F097FE00211422281CFFF728FE7E
:10B5C0000F22012110206B7B93430B431340034355
:10B5D0006B73AB7B93430B4313400343AB73002369
:10B5E000EB732B7C934319430A40024300232A74D4
:10B5F00001225B48291C05932A71AB602B7303F071
:10B60000E9FF002800D08CE040220021201CFFF739
:10B61000FFFD10A8534904F0C5FB12A8524904F0DD
:10B62000C1FB201C514904F0BDFB514B51491A6824
:10B6300002A804F0F9FE0EA802A904F0B3FB3C2115
:10B640000F200122635C8343134310220340134302
:10B65000635400223D23201CE25404F011F9002819
:10B660005CD1002101A80422FFF7D2FD424B4348E0
:10B6700001A9019300F0F6F8002801D000F032FE95
:10B680001C22201C0021FFF7C3FDA0229202626051
:10B69000F02200231203A26003220A93E3812374A1
:10B6A000374B201C6361374B2273A36104F0E6FA29
:10B6B000002801D000F016FE334C34491322201C20
:10B6C00004F0A8FE324E301C04F0D0FE0823314DA9
:10B6D0000130C2B22A70311C013AA81C6B7004F010
:10B6E00099FE2B78201C0133DBB213212A1CFFF7B3
:10B6F0004DFE002801D000F0F5FD274C0021201C54
:10B700001822FFF785FD0023237063602372E36036
:10B71000A0332382643B63821AB070BD00F0E2FD67
:10B720009FE700F0DFFD6FE700F0DCFD2EE700F0A3
:10B73000D9FD24E700F0D6FD0CE700F0D3FD03E7C8
:10B7400000F0D0FDFAE600F0CDFDEEE6180E0200A6
:10B75000C42A0020E81F0020BDB30100300E020003
:10B760005C2B00203C0E0200440E02004C0E020036
:10B7700080100010580E0200B1B30100102B002001
:10B7800055B40100B5B301008C2E00201C0E020040
:10B790007C2800206C2E0020442B0020A0DF704766
:10B7A000A2DF704763DF704770B5002808D000291A
:10B7B00006D00B88112B24D0502B02D0102B1DD07B
:10B7C00070BD8D1D6A89002AFAD00E1CCB88818835
:10B7D000041C1236994218D08189994220D0818A5E
:10B7E000994228D0818B994230D0818C9942E7D1FF
:10B7F000012AE5D1287B00F015FDE1E78B888385E0
:10B80000DEE701235B428385DAE7311C0122002059
:10B8100000F0B0FA6A89236B0220311C9847CFE709
:10B82000311C0122012000F0A5FA6A89236B042053
:10B83000311C9847C4E7311C0222022000F09AFA1A
:10B840006A89236B0620311C9847B9E7311C022214
:10B85000042000F08FFA6A89236B0820311C984776
:10B86000AEE7C046F0B54D46564644465F46102307
:10B87000F0B495B0061C0D1C04A80E491022994680
:10B880000E2404F0C7FD002E0CD0002D0AD0012399
:10B890005B42B3852B6804A83363311CFFF782FF3A
:10B8A000041E09D0201C15B03CBC90469946A24607
:10B8B000AB46F0BD5C0E0200337802A98B70012309
:10B8C000B21C01209A460B80FFF768FF041EE9D1E5
:10B8D0000DAD00211C22281CFFF79AFC02222B78B8
:10B8E00000211343DBB206321343043A13436A4682
:10B8F0002B70337801A893736B4602229A8103223E
:10B900006C60EC602C616C61AC61FFF781FC0F2214
:10B910006B4693461B7908AF93430E3A13435A463E
:10B92000134010229046424613436A4613715379DE
:10B930005A4693430E3A13435A4613404246134322
:10B940006A465371937906229343043A1343DBB258
:10B95000063293434A469343524693436A46002134
:10B960009371381C1422FFF753FC03AB089301AB0F
:10B970007B60534670883B81BB81291C331D3A1C78
:10B980007C813C61FFF70CFF041E00D08AE7002198
:10B990001C22281CFFF73CFC02222B7800211343B9
:10B9A000DBB206321343043A13436A462B703378F2
:10B9B00001A893730423938103226C60EC602C61D3
:10B9C0006C61AC61FFF724FC6B465A461B79002181
:10B9D00093430E3A13435A461340424613436A4672
:10B9E000137153795A4693430E3A13435A46134000
:10B9F000424613436A465371937906229343043AAD
:10BA00001343DBB2063293434A4693435246934371
:10BA10006A46381C93711422FFF7FAFB03AB0893B4
:10BA200001AB7B6053463B81BB81331C7088291C72
:10BA30003A1C0C337C813C61FFF7B2FE041E00D03F
:10BA400030E700211C22281CFFF7E2FB02222B78A2
:10BA500000211343DBB206321343043A13436A4610
:10BA60002B70337801A893736B4606229A810322C8
:10BA70006C60EC602C616C61AC61FFF7C9FB6B46DC
:10BA80005A461B79002193430E3A13435A461340FA
:10BA9000424613436A46137153795A4693430E3A0A
:10BAA00013435A461340424613436A4653719379EF
:10BAB00006229343043A1343DBB2063293434A46C9
:10BAC0009343524693436A46381C93711422FFF7FE
:10BAD0009FFB03AB3B6001AB7B6002233B810223F6
:10BAE000BB81331C7088291C3A1C14337C813C6157
:10BAF000FFF756FE041E00D0D4E600211C22281CAD
:10BB0000FFF786FB02222B7800211343DBB20632BB
:10BB10001343043A13436A462B70337801A8937396
:10BB20006B4608229A8103226C60EC602C616C6188
:10BB3000AC61FFF76DFB6B465A461B7900219343BE
:10BB40000E3A13435A461340424613436A46137152
:10BB500053795A4693430E3A13435A46134042468A
:10BB600013436A465371937906229343043A13436D
:10BB7000DBB2063293434A469343524693436A46A6
:10BB8000381C93711422FFF743FB03AB3B6001ABFE
:10BB90007B6002233B810223BB81331C7088291CFC
:10BBA0003A1C1C337C813C61FFF7FAFD041E00D077
:10BBB00078E600211C22281CFFF72AFB08222B789C
:10BBC00000211343043A13436A462B70337801A8CB
:10BBD00093730A23938103226C60EC602C616C6187
:10BBE000AC61FFF715FB6B465A461B790021934366
:10BBF0000E3A13435A461340424613436A461371A2
:10BC000053795A4693430E3A13435A4613404246D9
:10BC100013436A465371937906229343043A1343BC
:10BC2000DBB2063293434A469343524693436A46F5
:10BC3000381C93711422FFF7EBFA03AB3B6001ABA6
:10BC40007B6053463B81BB81331C70882433291CA5
:10BC50003A1C7C813C61FFF7A3FD041C22E6C04630
:10BC600038B502291CD012D903290AD004290DD1D4
:10BC7000002A08D12F4C2378052B07D101232370EC
:10BC800004E0002A1AD02B4C0023237038BD012970
:10BC9000FCD1284C002AF7D12378042BF6D1EDE70C
:10BCA000002AF0D1234C2378022B23D0032BEDD193
:10BCB00021490622214804F0ADFBDFE71D4C237823
:10BCC000062BE3D11C4D1E4B06221968281C04F0DC
:10BCD000A1FB281C1B4904220C3004F09BFB04230D
:10BCE00019482370291C1022002303F073FA00283E
:10BCF000CAD1CBE7154B1A68154B9A420ED0104BA0
:10BD00000E481968062204F085FB0623114810210D
:10BD1000237003F03BFB0028B6D1B7E703230648A6
:10BD2000237009491022002303F0DCFA0028ABD16C
:10BD3000ACE7C0468A280020742B0020A02E0020EB
:10BD4000942B00206C0E0200842B0020982B0020E6
:10BD5000884422118C2B002008B503F00FF808BD91
:10BD6000034B18780138431E9841C0B27047C04653
:10BD70008A280020F0B547460B1C80B44E49002AA3
:10BD80003FD009259542AD416C42A0460024251CB8
:10BD9000071DCF19BB4265410E182F1C1D1DAE4259
:10BDA000644145463C432C4243D0341C1C43A40709
:10BDB0003FD1151FEDB2AD080135AC00571EE4B2FE
:10BDC000022F2DD91F683760012D09D05F68776079
:10BDD000022D05D09F68B760032D01D0DD68F560A6
:10BDE000A2420ED01D5D08180555651CEDB2AA4291
:10BDF00007D95E5D0234E4B24655A24201D91B5D0B
:10BE0000035505222D4B2E481A700B32002303F0E8
:10BE100025FA031C58425841C0B204BC9046F0BDFC
:10BE200000241D5D08180555651CEDB2AA42E0D836
:10BE3000E7E71C780C54012AE3D95E780C18667089
:10BE4000022ADED09E78A670032ADAD0DE78E67069
:10BE5000042AD6D01E792671052AD2D05E79667161
:10BE6000062ACED09E79A671072ACAD0DE79E6715D
:10BE7000082AC6D045461E7A2672002DC1D05D7AAA
:10BE800065720A2ABDD99C7A081884720B2AB8D028
:10BE9000DC7AC4720C2AB4D01C7B04730D2AB0D097
:10BEA0005C7B44730E2AACD09C7B84730F2AA8D091
:10BEB000DB7BC373A5E7C046742B00208A280020D3
:10BEC0008C2B002030B585B00190204804F0A8F8F4
:10BED00000280FD103F038F8002811D01C4C01A91C
:10BEE000201C062204F096FA001B43425841C0B2BF
:10BEF00005B030BD00F0F6F903F026F80028EDD1CA
:10BF0000102302A88380134C0F3BC380124B211CCB
:10BF1000029303F0BFF80028E0D1104D201C00214F
:10BF20002A1C03F02FF90028D8D10D4B019A0D4897
:10BF30001A6002220C4B291C1A7002320C2303F0E7
:10BF4000D1F90028CAD10130D2E7C04659BD01005D
:10BF5000A02E00208C2B002061BC0100842B00202F
:10BF6000942B0020982B00208A28002038B50288C6
:10BF70008849894D14B20B88AC4200DD93E0874DAF
:10BF8000AC46874D624492B2AA4255D803229343ED
:10BF90004288814D14B2AC4258DC804DAC46804D95
:10BFA000624492B2AA4200D8ADE07E4A944200DADE
:10BFB000C2E08288784D14B2AC424EDD802252003D
:10BFC00013430289784D14B2AC4254DC774DAC4631
:10BFD000774D624492B2AA4200D891E0754A9442E9
:10BFE00000DAA6E04289704D14B2AC424ADC6F4DD3
:10BFF000AC466F4D624492B2AA4200D87DE06D4AD1
:10C00000944200DA92E08289674C10B2A04240DD8F
:10C010008022D20013430B80502B00D1B7E045D8CB
:10C02000062B53D8052B00D3ADE0012B00D186E0C1
:10C030000122022B51D05FE05A4A9442A8DA022230
:10C0400013434288544D14B2AC42A6DD1022134370
:10C050008288514D14B2AC42B0DC504DAC46504DCC
:10C06000624492B2AA4251D8534A4F4D13400289BA
:10C0700014B2AC42AADD0422134342894A4D14B2E1
:10C08000AC42B4DD402213438289474C10B2A04237
:10C09000BEDC464CA446464C624492B2A2423DD815
:10C0A000464A1340B7E70122134371E7802292000A
:10C0B000934266D049D8902B45D066D9A02B42D068
:10C0C0008021082249008B4207D015E0102B38D080
:10C0D0004DD8093B0322012B0ED8394B19789142D8
:10C0E0000AD01A7037483849002200F073FC002843
:10C0F0003AD10122354B1A7038BDC022934382E7F2
:10C100000C2293436EE73022934352E7254A944230
:10C1100000DB56E780229200134352E7254A904203
:10C1200000DB78E780221201134374E78022134377
:10C1300069E70822134355E72022134339E7002219
:10C14000CBE70422C9E70722C7E7C022D200934207
:10C1500015D010D990221201934203D00132FF3240
:10C160009342C9D10B22B8E700F0BCF8C1E7052221
:10C17000202BB2D0C0E7013AFF3A9342BCD10A2249
:10C18000ABE70922A9E70222A7E7602BB4D1062278
:10C19000A3E7C0469C2B0020301800002F18000099
:10C1A0005E300000D0E7FFFF38280000372800008D
:10C1B0006E500000C8D7FFFFFFFCFFFFFFF3FFFF3B
:10C1C0008B280020A02B002001800100C02B002024
:10C1D0008021A02210B50C1CA1200B4BD205D358F6
:10C1E000C0009C430B40094914505350084B1B7826
:10C1F0000B2B04D807480121C018FFF73DF9002296
:10C20000054B1A7010BDC046040500000C05000067
:10C210008B280020800E0200C02B002008B5FFF7FD
:10C2200059F808BDA92800D070478022AA21064BE2
:10C23000D205D150BFF34F8F044A054BDA60BFF3EC
:10C240004F8FC046FDE7C0461C0500000400FA05FC
:10C2500000ED00E010B582B0FFF756F9FFF780FD62
:10C260000028FBD1164C201CFFF72CFE0028FAD02A
:10C27000144B01A80193FFF73DF8002801D102B04B
:10C2800010BD11480121114A00F08AFB002813D18A
:10C290000F4800210F4A00F083FB002809D10E4807
:10C2A0000E49002200F096FB0028E8D000F01AF8B2
:10C2B000E5E700F017F8F2E700F014F8E8E7C04609
:10C2C000700E02006DBF01007C0E02001DC2010055
:10C2D000780E0200D1C10100C42B00209919000082
:10C2E0007047C046002300B585B001AA90600021C8
:10C2F00003481380536000F005F805B000BDC04648
:10C3000001400000BFF34F8F034A044BDA60BFF3D4
:10C310004F8FC046FDE7C0460400FA0500ED00E07F
:10C3200080218023184A8902D1508022D221174BC4
:10C33000520289005A5040395A5001222F205A6027
:10C340000138C046C046C046C046C046C046C0468A
:10C35000C046C046C046C046C046F1D19A600023E0
:10C360000B4A2F2013600138C046C046C046C04665
:10C37000C046C046C046C046C046C046C046C0468D
:10C38000F1D1044A1370704700E100E00010014051
:10C39000E42B0020042C0020A021F0B50023474608
:10C3A0002B4A490080B45350043153500431535048
:10C3B000043153504C39535004315350254B1B68B2
:10C3C000002B35D02449002652582449244F0C68AC
:10C3D000141B00222402240A904602E0002D18D0EB
:10C3E0002B1C1A68A24214D8A41AB6181A7CDD694C
:10C3F000002AF3D0424699691A745A693B68002BA7
:10C4000019D0101C98470028E8D0FFF76BFF002DCB
:10C41000E6D1144B14491A780B789A420ED0134A7D
:10C420009B009E5080218023114A49035B00D1501C
:10C4300004BC9046F0BD081C9047CFE70132D3B250
:10C44000022B01D00B70EAE700230B70E7E7C04630
:10C4500000100140E82B002004050000E42B002020
:10C46000EC2B0020F82B0020F92B0020FC2B0020C7
:10C4700000E100E0F0B55F4656464D464446F0B454
:10C48000B44BB54A1B68B54989B001930978137854
:10C49000994200D1B1E10133DBB2022B00D100237C
:10C4A0001370AF4A9B009B58AA4A9946019B4B4484
:10C4B0001B021B0A136001230493AA4B00241B6870
:10C4C0009B46A94BD8461B781A1C0293A74B94464F
:10C4D00007931B6803939F4B1B680693A44B1B7821
:10C4E00005935B466646013EF2B29446FF2A4FD062
:10C4F0006246D000039A9246504401784578A9429A
:10C50000F0D04A005218877801314668C9B27F1AC4
:10C51000B2467E1EB741D2007F425244394017785E
:10C52000022F0AD0032FEAD1002BE8D01C74DB695C
:10C53000002BFBD145789846E1E75668002B25D0C3
:10C540009E421AD01F1C00E0171CFA69002AD6D0A0
:10C550009642F9D1321C3D1CBE4200D1EBE0176877
:10C56000D269EA61002A06D013689A4657441760D8
:10C5700045784346C3E74578C1E7DE691A1C002EBB
:10C5800000D1DDE0B046331C151CE8E70023B6E718
:10C590006946774A097D181C11706E4A0699039303
:10C5A000116041466F4A1160049A002A00D028E1C8
:10C5B0005B461B1A5A1E93410025DBB20493079B6E
:10C5C00000271B68039E0693624B1B689C46654BC5
:10C5D0001B689A46664B1B780593664B01930123B3
:10C5E0009846029B013BDBB20293FF2B00D18FE008
:10C5F000069ADB0093469B44002D27D06968AB6800
:10C60000281CED696246019C8A1A1202120AA24293
:10C6100050D8D31842460360476087600274C761F0
:10C62000002E56D03168341C994204D35FE0116863
:10C63000994263D2141CE2695B1A002AF7D10360A5
:10C64000331CC261E0611E1C002DD7D15B465A46E7
:10C650001B7852789A42C4D0594649685A00894694
:10C660005946D2180133DBB20B708978D2004A44A4
:10C6700099424AD011785068331C0129E3D1037CD8
:10C6800099464946331C0029DDD191684160D36841
:10C6900083601469C46052698261059A002AB1D02E
:10C6A0004A46002142606246019C8A1A1202120A1E
:10C6B000A242AED96246511A0902090A99420CD225
:10C6C00042465B1A0360476087600274C761002EB0
:10C6D000A8D1031C82461E1CB6E74346076047608C
:10C6E00087600374C761002EF3D000233168CB1A32
:10C6F0003360031CC66182461E1CA5E7C91A11607F
:10C700000360C261331CE0619DE75B461D70B1E7C9
:10C710005246144B1A60039BB3422FD1049B002B4B
:10C720002CD10023124A137009B03CBC90469946A4
:10C73000A246AB46F0BDDE693A1C002E00D021E7D0
:10C7400001250D4B9D600023069601369846151C69
:10C75000059604E7E42B0020F82B0020F92B00209D
:10C76000FC2B0020E82B0020F02B0020F42B0020D5
:10C77000FA2B0020FEFF7F0000100140002E63D046
:10C78000484B49493568CC58484B494E1B6830786E
:10C79000E21A1202120A03329046002861D0424681
:10C7A000AA4200D22A1CA820D21812023E49130A1B
:10C7B000C0003C4D0B504A591B1B121B1202120A9F
:10C7C0001B0203321B0A9A42ABD94B590B502F2044
:10C7D0000138C046C046C046C046C046C046C046F6
:10C7E000C046C046C046C046C046F1D18021802325
:10C7F000304A89025B00D15093E7002399460493A5
:10C800005BE60025002100244846464613E01A68EE
:10C8100082421CD8DE68801A89181C60DF69002EED
:10C8200007D0DD611D1C019A9E608A181202120A4F
:10C830005A603B1C3E1C002BE9D11F4B1E6000239D
:10C84000039301330493BAE6FFF76AFD69E7814673
:10C85000194903930E604946521A1A600123049342
:10C86000ADE68020D1274002BF00C851403FC851EB
:10C87000C02280270F48BF0252008750076001275F
:10C880002F200F600138C046C046C046C046C04693
:10C89000C046C046C046C046C046C046C046F1D1AC
:10C8A00037707CE70405000000100140E42B0020F5
:10C8B000042C002000E100E0E82B0020F8B54F46F2
:10C8C0004646C0B40326351C80460F1C141C9946EE
:10C8D00015400720002D03D00CBC90469946F8BDAA
:10C8E000002A44D0FFF71CFD4A46224B80201A60E4
:10C8F000221C214B18321E70204B62601C607B0092
:10C90000DB19DB00D218E260D318C0226361257006
:10C910006570A77025726572A77225746574A77417
:10C92000C524FF21164B40031D60164B52001D709D
:10C93000154BA4001D70154B98501A598A433F3966
:10C940000A431A51A122186040461149D20088506A
:10C95000C42080001C580F4A2240C02424022243D5
:10C960001A500D4B0020CA580C4B1A60B4E7034B09
:10C970001A60B1E7EC2B0020F02B0020F42B0020F4
:10C98000E82B0020F82B0020F92B002000E100E02C
:10C9900000100140FF00FFFF04050000E42B002011
:10C9A00010B50B4B1B68002B0BD0002A07D00028BA
:10C9B00005D0036808201C7C002C04D010BD072083
:10C9C000FCE70820FAE759745A610020F6E7C046F0
:10C9D000F42B0020F0B5474680B4374B1C68002C80
:10C9E00008D0002806D00723042905D8181C04BC49
:10C9F0009046F0BD0823F9E74369002BFAD00025E3
:10CA0000437CA846012B2FD0EFF30583DB05DB0D1C
:10CA10001025002B2CD164196378A5785E1CF6B222
:10CA2000AD1B6F1EBD416D422E402578B5421DD015
:10CA30005D00EB186568DB00ED180423002DD5D0F0
:10CA4000033B2B7068601D4B1D48C358E960AB6009
:10CA5000434680212B6180236A611A4A5B004903A7
:10CA60006670D1500023C1E78846CDE70423BDE7B7
:10CA7000103BDEB275B2002D13DBAD08114EC03590
:10CA8000AD00AD5903263340DB00DD402B069B0F84
:10CA9000DBB20025012BBED00835032BBBD00835F7
:10CAA000B9E70F23084D3340AC46083B9B089B0079
:10CAB00063445D680323E6E7F42B002004050000CF
:10CAC0000010014000E100E018ED00E030B52E4A12
:10CAD000031C12680820002A2ED0002B2CD0596984
:10CAE000002929D000211974EFF30581C905C90D6A
:10CAF0001025002923D155196A78A978541CE4B26D
:10CB0000091B481E814149420C402978A14214D09A
:10CB100051008A186968D2008C4662440420002AB9
:10CB20000AD0022153601170802380210020174A0F
:10CB300049035B006C70D15030BD0420FCE7103914
:10CB4000CCB260B2002813DB8008104CC0308000EB
:10CB5000005903242140C900C8400106890FC9B209
:10CB600000250129C7D008350329C4D00835C2E7FC
:10CB70000F2107482140844608398908890061440B
:10CB800048680321E6E7C046F42B002000E100E0FE
:10CB900018ED00E00023C0B288724B727047C046A7
:10CBA000F0B556464D4644465F460023F0B485B086
:10CBB00001AD041C281C0E1C2B7000F0C5F9002EC2
:10CBC00002D1E368002B0DD1032398466379A27943
:10CBD000DBB20027012693422AD10023E360E368F9
:10CBE000002B37D1287800F0CFF905B03CBC904637
:10CBF0009946A246AB46F0BD597931402970AF60E5
:10CC0000EF709A7932405201201C291C103000F03C
:10CC100031FE0028E9D0E3681B68002B5BD1281C9B
:10CC20002B7000F091F96379A279DBB29342D4D0F2
:10CC300021689A008C46013320796244DBB2126885
:10CC40000021984200D3191C131C6171E360E36852
:10CC5000002BC7D0287800F097F92772227AE36872
:10CC6000D2B2D1008B469B685B4459794908697000
:10CC7000196869601979A97099790E42BCD05979FF
:10CC80008C46314025D101329146E068027B9145C6
:10CC9000B4DA08208146E268D94492684A4450795F
:10CCA0006246400852088242A8D14246E36898682A
:10CCB00048440368AB600379EB7043793340D31A7F
:10CCC0002B70237A827901333240DBB25201237216
:10CCD0009AE7012192E7E268E36851681B68984788
:10CCE000281C2F7000F030F99DE7C046F0B547468C
:10CCF00080B4037884B00C1C002B18D10B7ACA685E
:10CD00000133127BDBB200209A4212D8E3681B6821
:10CD1000002B04D0E268E36851681B689847201C28
:10CD20000121FFF73DFF04B004BC9046F0BD032095
:10CD3000ECE70B72087ACB68C0B29B68C6009B19FF
:10CD40005A7901A952084A701A684A601A798A7099
:10CD500001229D792A4229D05D79A846151C4746B3
:10CD60003D4034D1E76801303F7BB84220DA474686
:10CD7000E068083680687F0880194079400887425B
:10CD800016D1E3689B689E1933688B603379CB704A
:10CD900073791340181C03231B1A0B70B3791A40C4
:10CDA000237A52010133DBB2237209E05D79154029
:10CDB00000220D708A60CA709B7901321A405201BC
:10CDC000201C103000F056FD00289FD1ABE7012554
:10CDD000EEE7C046F0B5061C4746041C103680B48A
:10CDE0009846171C301C0A4A231C00F041FC051E03
:10CDF00009D1301C00F02CFD434665712360A571FC
:10CE000027716572E560281C04BC9046F0BDC046E1
:10CE1000EDCC010030B583B06A46041C0023D01D60
:10CE2000D3710D1C00F090F8A3792279DBB29A42FD
:10CE30001CD06279013A93421BD021689A008C463B
:10CE40006244156001332179DBB2002299420BD292
:10CE50006B46A271D87900F097F8201C0021FFF7EB
:10CE60009FFE002003B030BD1A1CF1E76279002A52
:10CE7000DFD16B46D87900F087F81120F2E7C04681
:10CE8000F0B54F464646041CC0B41F1C002387B0B3
:10CE900002AD281C894690462B7000F055F8667A42
:10CEA000F6B2002E36D101232878637200F06CF8B8
:10CEB000244B6C6002934B46AB6043462B736B462E
:10CEC000D81DDE7100F040F8A3792279DBB29A42D6
:10CED0002ED06279013A93422DD021689A008C4677
:10CEE0006244156001332179DBB20022994200D3FC
:10CEF0001A1C6B46A271D87900F046F8201C00215C
:10CF0000FFF74EFE002F0ED1637A002BFCD1A07AE2
:10CF1000C0B203E0287800F037F8112007B00CBC4D
:10CF200090469946F0BD637A002BF0D0B847E9E708
:10CF30006279002ACDD16B46D87900F025F811200E
:10CF4000ECE7C04695CB0100F0B5EFF3108172B667
:10CF50000A4B5A68002A0DD101248025084E5C60D6
:10CF60007459084F3C401C6077510270002900D171
:10CF700062B6F0BD01230370F8E7C046A82E00207A
:10CF800000E100E0FC06FFBC10B5084B5A68002A1F
:10CF90000BD0002809D1EFF3108272B604491C6847
:10CFA0000C605860002A00D162B610BDA82E002087
:10CFB00000E100E082B00190019B002B14D0019BA6
:10CFC0000A48013B01930138C046C046C046C046EE
:10CFD000C046C046C046C046C046C046C046C04621
:10CFE000F1D1019B002BEAD102B07047E7030000AA
:10CFF00010B500280BD1064C6368002B07D01A68C7
:10D0000000205B68626098476368002BF7D110BD11
:10D01000082C0020F0B5002820DBFF271B4B032243
:10D020009C463B1C8408C026C0B20240D2009340FC
:10D03000A4006444B600A5599D438B013B40934036
:10D04000191C2943A1511F2318401E3B8340C022B5
:10D05000181C0E4B520098501860F0BDFF260C4A69
:10D0600003249446321C0F23C0B20440E400A240C3
:10D070000340083B9B089B006344DD6995438A019C
:10D080003240A240111C2943D961DCE700E100E0F5
:10D0900000ED00E0F0B544465F4656464D46F0B41C
:10D0A0009C4A87B013680024012B00D1AEE09A4B54
:10D0B0001A68012A00D1B7E0984B1A68012A00D1FA
:10D0C000C2E0974B1A68012A00D1CDE00022954BAF
:10D0D00002921A68012A00D1D8E023070BD0E30797
:10D0E00000D5DFE0A30700D5EBE0630700D5F6E04D
:10D0F000230700D502E1002C06DB07B03CBC9046BC
:10D100009946A246AB46F0BD002301270493C033E5
:10D1100099460126844D7F4200230393E023DB00E0
:10D1200000249846231C4033E95C4BB201332CD0D9
:10D13000C9B24B46081C98433B1CC3401E4224D036
:10D140008B0901932B1820331B785BB29B00EB58A3
:10D150009C46002B35D0331C83409A46019B032B01
:10D1600035D0A023DB059B46434682005A44D35862
:10D170000592C022920213401B0C191C5346934681
:10D18000029A1A4212D1032926D00134042CC9D1A3
:10D19000039B002BB1D0A223A022DB00D205D358E1
:10D1A000029A9A42A9D0049F0293B5E70229ECD1D2
:10D1B000019B032B16D06346002BE6D00199E04774
:10D1C000E3E7019B032BE0D1331C83409A46524690
:10D1D000049B13430493C4E7019B032BEBD18023EF
:10D1E0009B029B4643460599CB589A4652464F4B65
:10D1F000134042468B508B585A461A43131C4246E2
:10D200008B50039B0133DBB20393D4E7C121484821
:10D21000890041580B4200D149E73F4B14601A681E
:10D220000134012A00D047E7C122414992008958C0
:10D2300002220A4200D13FE700211960374B144314
:10D240001A68012A00D03CE7C12239499200895866
:10D2500004220A4200D134E700211960304B144304
:10D260001A68012A00D031E7C12231499200895859
:10D2700008220A4200D129E7002114430022196044
:10D28000284B02921A68012A00D026E700221A6071
:10D2900080231B061C43A022A223D205DB00D35807
:10D2A00002931AE7A223224ADB00D058D1581E4D20
:10D2B000C00489032B68C00E890F9847A30700D4C8
:10D2C00013E71C4B1A4A184DD058D158C004890393
:10D2D0006B68C00E890F9847630700D408E7A32343
:10D2E000134ADB00D058D1580F4DC0048903AB68F6
:10D2F000C00E890F9847230700D4FCE60C4A0E4B5A
:10D30000094DD058D158C0048903C00E890FEB686D
:10D310009847F0E600610040046100400861004069
:10D320000C6100407C610040142C0020FFFFFCFFDA
:10D3300000600040140500001C05000008B5264BE5
:10D340001A68002A05D0C122244992008A58D203C3
:10D3500027D4234B1A68002A05D0C1221F49920006
:10D360008A58920326D41F4B1A68002A05D0C1227E
:10D370001A4992008A58520325D41B4B1A68002A76
:10D3800005D0C122154992008A58120300D408BD65
:10D390000022A6201A60154B400059681B68984768
:10D3A000F5E70022A0201A60104B400059681B6866
:10D3B0009847CEE70022A2201A600C4B4000596823
:10D3C0001B689847CFE70022A4201A60074B400053
:10D3D00059681B689847D0E74081004000800040B2
:10D3E00044810040488100404C8100405C2C00207A
:10D3F000F0B54D4644465F465646F0B409AC257834
:10D400000AAC2478A4460C78002C17D11678B046C4
:10D41000922676008759B346002F20D0331C243B38
:10D42000FF3B845143610B70A8450FD00124201CA1
:10D430003CBC90469946A246AB46F0BD92220023E2
:10D4400052008350083A8350143A835082235B0081
:10D45000C258002AEAD000220024C250E7E78E26F4
:10D460007600B1468659B246002E0BD04E46875103
:10D470005E468659002E23D05B46C7500123436188
:10D480000B70D1E7842464000759002FCCD0564696
:10D4900006515C460459002C22D111788D42C3D923
:10D4A000A324E40004595C5413780133DBB21370F5
:10D4B0006A1E93421DD09D42B6D001230362B3E79A
:10D4C00011788D4205D86346002B0FD00123C3612C
:10D4D000ADE7595C094BC150137801331370A3E7D2
:10D4E00001235A46865043610B709DE70123436137
:10D4F0009AE7802302229B00C250DEE71C05000051
:10D50000F0B544465F4656464D46F0B4822483B09B
:10D510000192002264000A5120340A51083C0A5149
:10D52000143C0A51E23C0255033C0255012B16D033
:10D530008022012492008C5001220A620A60026853
:10D54000002A16D0484B8360826800207E33CA5080
:10D5500003B03CBC90469946A246AB46F0BD802243
:10D56000213C92008C5001220A620A600268002A63
:10D57000E8D11D32FF329046143A9146043A922582
:10D580009246DE3A2327002693466D000093C25D43
:10D59000002A1DD15C46045DA4464C59002C2AD1BA
:10D5A00042468A58002A2ED042468C504A59002AB8
:10D5B0004CD15A46009B825C93424CD9019CA45C9E
:10D5C0002A4A8C505A465C46825C0132025516E06B
:10D5D00042464E518E504A468E5052468A58002A34
:10D5E000D5D0822300225B00CA50E13BC35C002BF4
:10D5F0002AD00320ACE74A5101224A61C255009B60
:10D600006345C4D1E9E74C460C59002CF7D04C4691
:10D610000A514C59002CEED15A46009B825C934231
:10D62000EDD9A324E4000C59019B9C545B46C25CD9
:10D630000132D2B2C254009B5C1EA2420ED0934271
:10D64000DDD001220A62DAE7002081E701224C5195
:10D650004A61C255D3E701224A61D0E78022022401
:10D6600092008C50EDE7C046860200001C050000C9
:10D67000F8B544465F464D465646F0B404798446B4
:10D68000A0006D4F80460019C00038182030857802
:10D690000820002D05D03CBC90469946A246AB46DA
:10D6A000F8BD002900D1C3E040460019C0003A503F
:10D6B0003A18536000239360203253711371A023F2
:10D6C0000A685E48C132FF32DB059200D0504A68DA
:10D6D000C132FF329200D0500120051C0A689540EB
:10D6E000A122D2009D504D68A84098500868544D22
:10D6F000C130FF308000C5504868C130FF30800025
:10D70000C55004200138C046C046C046C046C04689
:10D71000C046C046C046C046C046C046C046F1D11D
:10D72000A220C00082464748002601258346914634
:10D73000524648689A58C240154200D075E02A1CEB
:10D740000868824058461A5004200138C046C04636
:10D75000C046C046C046C046C046C046C046C04699
:10D76000C046C046F1D12A1C0868824048461A507B
:10D7700004200138C046C046C046C046C046C04628
:10D78000C046C046C046C046C046C046F1D101367C
:10D79000092ECDD1486801231A1C8240101CA022FA
:10D7A000284DD205505104200138C046C046C0461D
:10D7B000C046C046C046C046C046C046C046C04639
:10D7C000C046F1D148688340A120C0001350A02278
:10D7D0000B681A48C133FF33D2059B0098504B6841
:10D7E000C133FF339B0098506346A1221B680D682C
:10D7F000D20048689D50134A98508868124A985041
:10D8000043461B19DB00FB58002B06D06346186803
:10D81000097B000B40B2FFF7FDFB01234444E40009
:10D820003F192037BB70002035E7002EB3D1CEE77B
:10D8300006482101411837E7682C00200C0600003B
:10D840000D0600000C050000240500008C0E0200EF
:10D85000A022037901680520D20088509A00D318CD
:10D86000034ADB00D318022220339A707047C04667
:10D87000682C0020F0B54D465F4656464446F0B44D
:10D8800085B00579930707D0062005B03CBC9046CB
:10D890009946A246AB46F0BD0668C22301209B0014
:10D8A0004042F050AB00581998465A4BC0009C4675
:10D8B0006044041C20342379A346002B05D0C123E7
:10D8C00082689B00F2501120DFE701279308BC46D5
:10D8D0009F430823134027710393D5D1826191465A
:10D8E000021C0F1C02910C321ACF1AC25946029B1D
:10D8F0009A780A705A68C2615A789246B12257469D
:10D90000D200B7501A78012A77D0002A4BD14B4663
:10D9100064465A091440A4463E4A434691465B1960
:10D92000DB004B44203302995C704A6892468A7847
:10D930008221914600229A71DA70012349007250C7
:10D94000203172500839725014397250F8317250C7
:10D9500033622632B360815C494528D25346595C14
:10D960002D4BF150835C013383544346294A5B19A4
:10D97000DB00D258002A21D0264A00209446274AAC
:10D9800063449A609A68C1239B00F2504544214B3E
:10D99000ED005B59002B00D077E71E4A94466544A2
:10D9A00020352B7171E7012301249C46B4E76246C0
:10D9B000002A01D0F361D8E77361D6E7154A203316
:10D9C00094466344DA1C063393461F1C4B4601946D
:10D9D0000093301C59463A1C5346FFF709FD0028B6
:10D9E000F4D143460B4A5B199446DB006344203371
:10D9F000DB78002B0BD00330C8E76A46127B029B12
:10DA00004A705A68311C9B78FFF77AFDBEE7002008
:10DA1000BCE7C046682C00201C0500008602000000
:10DA2000F0B544464D465F465646F0B4B64B23210A
:10DA3000DA69585C904620229C5C01329A5C89B07D
:10DA40009146002816D12622922594469F5CAF4A23
:10DA50006D005659AB46002E37D050510120506111
:10DA60005854BC420FD009B03CBC90469946A246DF
:10DA7000AB46F0BD92200021A44A40001150083866
:10DA80001150143811508222A049520088580028A1
:10DA9000E9D0002088502320195C002926D11E7B64
:10DAA000B21E012A58D9191C05AA0C3170C970C2BE
:10DAB000002204A802702422002199549A69520776
:10DAC000D1D459681B689847CDE78E20400015587F
:10DAD000AA46002D1ED016505846105800286FD068
:10DAE00058461650012050615854BAE7191C05AA2F
:10DAF0000C3170C970C28649844C04A862586250C7
:10DB00000221114203D15207D5D50170D3E701227A
:10DB10000270D0E7842040001658002EA1D0554650
:10DB200015505846105800285AD1BC4299D9A32103
:10DB30004046C9005158C15561466046595C0131A3
:10DB4000C9B21954601E814250D08C4200D188E77E
:10DB500001216E4A116284E7DA691C69A242A2D1EE
:10DB60005A6901279046DA612022DC7B9C549A692D
:10DB700052093A40914621224D469D54032E3AD0F7
:10DB80008226624A7600915120369151083E915189
:10DB9000143E9151E23E99551954012C50D08021E8
:10DBA000890057500121594A1162116019680029F2
:10DBB0004BD0584999609968C1239B00D15052E7D6
:10DBC000BC4205D8494600290DD00121D16162E748
:10DBD0004146C85D5049505061467A1C5A5440E74E
:10DBE00050465D4639E7012151613AE78021022024
:10DBF00089005050ACE7454EE332B1502032B1506D
:10DC0000083AB150143AB150F832B150DB3AFF3A09
:10DC10009954195494463762B760002C26D0424676
:10DC2000107862463C4970509F541A68002A24D0EC
:10DC3000384A9A609968C123344A9B00D15012E750
:10DC40008021022089005050ACE71F1C26331E1C87
:10DC5000454623370023009401932C48391C321C7D
:10DC60002B1CFFF7C5FB0028F4D1FCE64A46002A2E
:10DC700001D0F761D9E77761D7E7922001322327F6
:10DC800000269346214940000394DA5D9446002A19
:10DC90002BD10C58263292469A5C002C2CD18E2522
:10DCA0006D004D59AC46002D38D08E256D004C517D
:10DCB0000D58002D21D1039C944251D94446A45CB7
:10DCC000A4466546144C0D515546541C5C55039CA6
:10DCD0009442DAD18222520094468A58002AD4D043
:10DCE00000226146094B5A50BDE68E2252000E506A
:10DCF0008E50143A8E50EDE764460C505C464C61F1
:10DD00005C46DC55E3E7C046682C0020003000404C
:10DD1000C4040000860200001C0500008424640086
:10DD20000D59002DD3D065460D510C58002CE3D170
:10DD3000039C9442CBD9A3244546E4000C59AC542F
:10DD4000544655461C5D0134E4B25C55039D013DCB
:10DD5000AC420FD0039DA542B9D05C460C62B6E739
:10DD60004C46002C03D00122054BDA617BE65C4671
:10DD70004C61ACE780240225A4000D51EDE7C046BC
:10DD80000030004029DF704728DF704730B583B08E
:10DD9000002806D0112806D108230F4A11680B432A
:10DDA000136003B030BD021C0C4801788B005B1877
:10DDB0009B00C518281CE9686B694C006418297918
:10DDC000074DA4002D680C300095064D6459A047FE
:10DDD0000422054B1A70E4E7782D0020902C0020D7
:10DDE000802D0020642D00207D2D0020F0B55F46A1
:10DDF0004D4644465646F0B45E4F85B03C785E4D85
:10DE0000012C00D188E0002C00D16DE0022C16D04E
:10DE1000032C0DD1594B1868FFF7B6FF021E07D02F
:10DE2000112800D080E00823554A11680B43136085
:10DE300005B03CBC90469946A246AB46F0BD504B5F
:10DE400099461B6803932B789E00F3189B00EE18ED
:10DE50003369984680235B05196940460904090C1B
:10DE60009B4602F055F9454B824618605B4619699E
:10DE70004346581EF3880904C018090C02F048F9FB
:10DE800082454CD00323039C9C434B461C603D4B76
:10DE90001B68002B02D10233234262D000223A4B8E
:10DEA0001A703A4B5869431C54D080235B0519699A
:10DEB0000904090C02F02CF9031C80225205106998
:10DEC00011690004013B000C09045843090C02F0DD
:10DED0001FF9FFF759FF021EAAD0112824D10823E9
:10DEE0001C434B461C60A3E7294B1C60294B1C605C
:10DEF0006B78002B9CD02B789A00D3189B00ED18E0
:10DF0000EA88254B1A602B79032B27D0042B25D0C8
:10DF1000012B00D08CE73B7000F000FC88E7012368
:10DF2000039A9A431443B0E72B789800C0188000F6
:10DF30002E18301C184DF3682D685C00E4183179F8
:10DF400073690095154DA4000C306459A047042353
:10DF50003B706DE780235B055B69AEE700F020F85E
:10DF600066E7094A50461370FFF70EFFFFF70EFFF2
:10DF70005EE7C0467D2D0020902C00208C2D0020D7
:10DF8000782D0020882D00207C2D0020001000100E
:10DF9000842D00205C2D0020802D0020642D002089
:10DFA000F0B55F4656464D464446F0B45B4B5C4880
:10DFB0001A78802791008A1892009B18DD681E69E4
:10DFC0006A0052199200821814895089526860437D
:10DFD00080469044DA881B89141C9946514B92461E
:10DFE0009B4600235A467F05396983B009044C4497
:10DFF0001360090C301CA41902F010F9002924D177
:10E000003B699BB29A4537D044456CD0022D33D042
:10E01000301C3969484489B202F000F9424B890842
:10E0200019603969201C0904090C02F0F7F800296D
:10E0300032D102223D4B1A70FFF7D8FE03B03CBC30
:10E0400090469946A246AB46F0BD022D14D0301C36
:10E05000396948440904090C02F0E0F8324B890898
:10E06000196039694445E4D00904090C201C02F008
:10E07000D5F80029DDD00FE080235B051969301C3D
:10E080000904090C02F044F80322294B1860274BBD
:10E090001A70FFF7ABFED1E780256D0529692B6962
:10E0A0006A4699464346D380D08889B202F030F858
:10E0B0006A464B46A6B2D380071CD188301C02F0BA
:10E0C00027F8BFB280B287421DD02C692969301C65
:10E0D00089B202F0A3F85B462404240C89B2641AC6
:10E0E000A4081C60A5E74B46002BC5D0022DC3D069
:10E0F000301C3969484489B202F090F80A4B89080B
:10E1000019603B6995E7434624041B041A0C240C50
:10E11000131B5A469B0813608BE7C046902C0020C7
:10E12000642D0020602D0020882D00207D2D0020F2
:10E130008C2D0020F8B546464F46C0B41D4D08ACA6
:10E1400024886E78A44604240A2E2DD02C78A0466C
:10E15000A419092C00DD0A3C14277C432C196261A8
:10E16000221C20710C32B94681C981C2E38063460A
:10E1700023810024104B01361A786E70A24213D10D
:10E1800042464F465743ED190C4AE98811602A79F7
:10E19000032A07D0042A05D0012A05D11A70FFF7F7
:10E1A00025FE01E0FFF7FCFE201C0CBC90469946C2
:10E1B000F8BDC046902C00207D2D0020802D002031
:10E1C000082170B50C1C244A82B013681C4009D089
:10E1D0008B431360214B224A1B789B009B58984726
:10E1E00002B070BD1F4D2B789800C3189B00EE182D
:10E1F000317904292AD0F268736950008218301CE2
:10E20000194E920036680C300096184E965900222E
:10E21000B04701202A7893009B189B00EB181C71D3
:10E22000DC80D8601C615C611C816B780132013B31
:10E23000D2B26B700A2A06D02A7000220C4B1A70D8
:10E24000FFF7D4FDCCE700232B70F6E70122084B43
:10E250001A70FFF7CBFDC3E7782D00207C2D00203E
:10E26000B00E0200902C0020802D0020642D002094
:10E270007D2D002030B5244B83B05869431C3ED01F
:10E2800080235B0519690904090C01F041FF041C96
:10E2900080235B051869196900041A69000C631E64
:10E2A00058431A4B09041B68090C92B2920859434F
:10E2B000FFF768FD021E06D0112806D10823144A74
:10E2C00011680B43136003B030BD12490B789800FE
:10E2D000C01880000D18281CEB6829795C00E41830
:10E2E0006B690D4DA4002D680C3000950B4D6459E1
:10E2F000A04704220A4B1A70FFF778FDE3E780235A
:10E300005B055C69C4E7C046001000108C2D00203E
:10E31000782D0020902C0020802D0020642D0020DE
:10E320007D2D0020802230B5520514692149240436
:10E33000230C0C6883B0013C5C431F4B5869431CA1
:10E3400035D011690904090C01F0E2FE80235B0558
:10E3500019691A4B09040138090C41431A68201C39
:10E36000FFF710FD021E06D0112806D10823144A1B
:10E3700011680B43136003B030BD12490B7898004D
:10E38000C01880000D18281CEB6829795C00E4187F
:10E390006B690D4DA4002D680C3000950B4D645930
:10E3A000A04704220A4B1A70FFF720FDE3E75069EB
:10E3B000CCE7C0468C2D002000100010882D0020D6
:10E3C000782D0020902C0020802D0020642D00202E
:10E3D0007D2D0020082330B51E4D83B02C682342CC
:10E3E00014D1A30702D501231C432C6002221A4B2F
:10E3F0001A701A4B1868FFF7C7FC021E04D01128C8
:10E400000DD108231C432C6003B030BD9C43124B3C
:10E41000134A1B782C609B009B589847F4E71149DE
:10E420000B789800C01880000D18281CEB6829791B
:10E430005C00E4186B690C4DA4002D680C3000954D
:10E440000A4D6459A0470422094B1A70FFF7CEFC0D
:10E45000DAE7C046782D00207C2D00208C2D00208E
:10E46000B00E0200902C0020802D0020642D002092
:10E470007D2D0020F0B58027274C7F052378396952
:10E480009A00D3189B00E3181A89DD881B69AD1820
:10E49000ED18090483B0090C281C01F0BFFE1F4BC6
:10E4A0000E1C5869431C35D039690904090C01F068
:10E4B0002FFE80235B05196901380904090C4143CB
:10E4C000174B89191A68281CFFF75CFC021E06D03E
:10E4D000112806D10823134A11680B43136003B0B7
:10E4E000F0BD23789800C01880002618301C0E4C10
:10E4F000F36824685D003179ED18736900940B4C62
:10E50000AD000C302C59A0470422094B1A70FFF7BC
:10E510006DFCE4E77869CCE7902C00200010001037
:10E52000602D0020782D0020802D0020642D0020FB
:10E530007D2D002030B5154B83B01868FFF724FC03
:10E54000021E06D0112806D10823114A11680B4378
:10E55000136003B030BD0F490B789800C0188000DD
:10E560000D18281CEB6829795C00E4186B690A4DCA
:10E57000A4002D680C300095084D6459A047042272
:10E58000074B1A70FFF732FCE3E7C0468C2D0020E2
:10E59000782D0020902C0020802D0020642D00205C
:10E5A0007D2D0020082370B52A4D82B02C682342AF
:10E5B00009D09C43284B294A1B782C609B009B5810
:10E5C000984702B070BD0122234B1A70244B586942
:10E5D000431C3BD080235B0519690904090C01F039
:10E5E00097FD061C80235B051869196900041A69E8
:10E5F000000C731E58431B4B09041B68090C92B294
:10E6000092085943FFF7BEFB021EDAD0112803D14E
:10E6100008231C432C60D4E713490B789800C018DA
:10E6200080000D18281CEB6829795C00E4186B69E0
:10E630000E4DA4002D680C3000950D4D6459A04777
:10E6400004220C4B1A70FFF7D1FBBAE780235B055D
:10E650005E69C7E7782D00207C2D0020B00E0200F7
:10E66000001000108C2D0020902C0020802D002008
:10E67000642D00207D2D002030B5224B83B05869D9
:10E68000431C3AD080235B0519690904090C01F089
:10E690003FFD031C80225205106911690004013BF3
:10E6A000000C09045843090C01F032FDFFF76CFB24
:10E6B000021E06D0112806D10823134A11680B4305
:10E6C000136003B030BD11490B789800C01880006A
:10E6D0000D18281CEB6829795C00E4186B690C4D57
:10E6E000A4002D680C3000950A4D6459A0470422FF
:10E6F000094B1A70FFF77AFBE3E780235B055B6940
:10E70000C8E7C04600100010782D0020902C002093
:10E71000802D0020642D00207D2D0020F0B5802765
:10E72000404D7F052C783969A60033199B00EB1802
:10E73000DA8889B283B08A4218D8196918898C4658
:10E74000920860445969FFF71DFB021E06D011288C
:10E750002DD10823344A11680B4313603419A400E7
:10E760002C19E288314B1A6003B0F0BD1969386981
:10E770008C460004000C121A18893C6959696044DF
:10E7800080188918A2B29208FFF7FCFA021E06D080
:10E79000112827D10823244A11680B4313608023D2
:10E7A0005B051B69214A1B041B0C1360DCE72B78FB
:10E7B0009800C01880002918CB68081C5F00FF185B
:10E7C0000B79BF009C464B6919490C3009680091D0
:10E7D00018497F586146B8470422174B1A70FFF753
:10E7E00005FBBBE72B789800C01880002E18301C62
:10E7F0000F4DF3682D685C003179E418736900955A
:10E800000C4DA4000C306459A04704220A4B1A7026
:10E81000FFF7ECFA80235B051B69044A1B041B0C01
:10E820001360A1E7902C0020782D00205C2D0020A3
:10E83000802D0020642D00207D2D00200823F0B5C0
:10E840004D4644465F4656461A1CF0B4774D85B097
:10E850002C68224091465FD1754F3E78B3000393F8
:10E860009B199B00FB181A69511EDA881B898A18AC
:10E87000D318029380235B059B4619696D4B1B6877
:10E880009846002B57D16C4B1B689A4680235B053A
:10E89000196902980904090C01F03AFC824500D27A
:10E8A00085E0434600D17AE0002B00D079E0039B5D
:10E8B0009C466644B600BC192179042900D1AFE01A
:10E8C000201CE3680C305A00D21863695B4C92003C
:10E8D000246800945A4C14590022A0474146012054
:10E8E0003A7893009B189B00FB181971D860414639
:10E8F0004046D9801861586118817B780132013B0C
:10E90000D2B27B700A2A00D17BE03A7000224D4BD4
:10E910001A70FFF76BFA07E09C434B4B4B4A1B788E
:10E920002C609B009B58984705B03CBC904699468C
:10E93000A246AB46F0BD404B09041B68090C029887
:10E940009A4601F0E5FB5045A0D14A46404B1A607B
:10E9500001234A4623432B603B4B1A703D4B5869B9
:10E96000431C51D05B4619690904090C01F0D0FB26
:10E97000031C80225205106911690004013B000C40
:10E9800009045843090C01F0C3FBFFF7FDF9021E0F
:10E99000CAD011283BD109231C432C60C4E7002BAB
:10E9A00005D00322284B1A70FFF764FDBCE7002254
:10E9B000274B50461A60244B02321A70FFF7E4F9D5
:10E9C000021EB1D0112818D03B789900CB189B00BB
:10E9D000FD18E9684C006418281C29796B69174DEB
:10E9E000A4002D680C300095154D6459A0470422F1
:10E9F000144B1A70FFF7FAF996E708231C432C60B2
:10EA000092E700233B7081E75B465B69B1E73B78A7
:10EA10009800C01880003D18EB685C00E418DBE744
:10EA20000122084B1A70FFF7E1F97DE7782D0020ED
:10EA3000902C0020602D00208C2D0020802D0020A7
:10EA4000642D00207D2D00207C2D0020B00E0200C2
:10EA5000882D002000100010F0B54E465746454660
:10EA60000823E0B48C4E82B03468234200D093E097
:10EA70008A4B1A68571C1F60894B1D68002D50D1A6
:10EA8000884B802299461B7852059D00ED18AB00FB
:10EA9000984608234D469A464544AA4453469B68E7
:10EAA0001169581EEB880904C0182B89090CC0187D
:10EAB00001F02EFB874200D282E07B4B00D17BE04D
:10EAC0001F68002F00D19CE001231A1C224000D0B7
:10EAD0008DE023433360754B1A70754B5869431CA6
:10EAE00000D1BEE080235B0519690904090C01F01F
:10EAF0000FFB031C80225205106911690004013BC1
:10EB0000000C09045843090C01F002FBFFF73CF923
:10EB1000021E49D0112800D0A7E009231C4334600D
:10EB200042E00421614B197080235B051F693F049B
:10EB30003F0C57435E4A5069421C3BD01969090497
:10EB4000090C01F0E5FA80235B0519690138090415
:10EB5000090C41432A1C381CFFF714F9021E23D06C
:10EB600011284AD04F4801788B005B189B00C518CC
:10EB7000281CE9684C006418A40029796B694D4D84
:10EB80000C302D6800954C4D6459A04704224B4B26
:10EB90001A70FFF72BF907E09C43444B484A1B7857
:10EBA00034609B009B58984702B01CBC9046994625
:10EBB000A246F0BD5869C6E71B68002B00D083E76A
:10EBC00002223A4B381C1A70FFF7DEF8021EEBD017
:10EBD000112812D04B461B789900CB1849469B0050
:10EBE000CD18E968281C4C006418A400C5E703226E
:10EBF0002E4B1A70FFF73EFCD6E708231C43346007
:10EC0000D2E7297904293DD053464046294C5B6818
:10EC100024685A00D2186B690094274C920048442B
:10EC20000C3014590022A0474B4601201A7849465F
:10EC300093009B189B004B441F71DF80D8601F61BD
:10EC40005F611F814B465B780132013BD2B24B7052
:10EC50000A2A1DD00A700022184B1A70FFF7C6F856
:10EC6000A2E780235B055B6944E74B461B7898006D
:10EC7000C0184B4680001D18EB68281C5C00E41887
:10EC8000A4007AE701220D4B1A70FFF7AFF88BE76B
:10EC900000230B70DFE7C046782D00208C2D00206C
:10ECA000882D0020902C0020602D00207C2D00203D
:10ECB00000100010802D0020642D00207D2D0020EC
:10ECC000B00E020070B5274C82B023789800C018AF
:10ECD00080002518281CEB6829795A00D2186B6926
:10ECE000214D92002E680C300096204E965900223D
:10ECF000B04700210126227893009B189B00E3185F
:10ED00001971D980DE601961596119816378013206
:10ED1000013BDBB2D2B263700A2A0BD02270002111
:10ED2000134E14483160144E01703160002B05D130
:10ED300002B070BD002222700022F0E793009A1802
:10ED40009200A418E3882B602379032B07D0042BAF
:10ED500005D0012BECD10370FFF748F8E8E7FFF787
:10ED60001FF9E5E7902C0020802D0020642D002065
:10ED7000842D00207D2D00205C2D0020F0B547461D
:10ED800080B4654D04262C7882B0231CB3430ED08A
:10ED9000022810D003280AD10821604A13681942BA
:10EDA00058D0022C4FD0032C48D0012C46D002B0B2
:10EDB00004BC9046F0BD022C45D0032C59D0012C48
:10EDC000F5D10821554A1368194237D1544F554996
:10EDD0003B780E689A00D3189B00FA18D1888E1BD6
:10EDE000B6B2D680002E6ED1D16813794800411892
:10EDF0009846101C53694C4A890012680C300092E6
:10EE00004A4A8A58414694460022E0473A7893009D
:10EE10009B189B00FB181E71DE80DC601E615E612A
:10EE20001E817B780132013BD2B27B700A2A66D008
:10EE30003A7000232B70FEF7D9FFB8E78B431360BD
:10EE4000FEF7D4FFB3E73A4B3A4A1B789B009B5836
:10EE50009847ACE7384A136801331360032B35D069
:10EE6000022CEDD1324B354A1B789B009B589847BA
:10EE70009DE70821294A13681942DFD1304B284EFB
:10EE80001A683478571C1F6080235B051969A3003A
:10EE900098461B199B00F3181A690904501EDA885A
:10EEA0001B898018C018090C01F032F98742C7D3BA
:10EEB0002CD0231C43449B00F3181B79042B20D037
:10EEC000FFF700FF73E7FFF729FC70E714480278AB
:10EED00093009B189B00C418201CE26863695100D2
:10EEE0008A182179104C920024680C3000940F4C41
:10EEF00014590D22A0472E70FEF778FF57E73E7099
:10EF000097E701232B70FEF771FF50E70D4B1B684D
:10EF1000002BCED194E7C0467D2D0020782D002017
:10EF2000902C00205C2D0020802D0020642D0020DE
:10EF30007C2D00209C0E0200842D0020B00E0200CB
:10EF40008C2D0020602D002010B500202C240022E4
:10EF50000121464B18551434185502341A53023403
:10EF60001A531034185502341A530234D9601876E3
:10EF7000196259639964D9651A705A701A71DA80E6
:10EF80001A615A611A815A835A629A629A83DA859F
:10EF90009A63DA631A86DA641A651A665A661A532D
:10EFA0001034185502341A5302341A5310341855B9
:10EFB00002341A530634195104341A5104341A51C4
:10EFC0000C3C1A531034185502341A530634195194
:10EFD00004341A5104341A510C3C1A531034185585
:10EFE00002341A530634195104341A5104341A5194
:10EFF0000C3C1A5310341855BA201A5206301950C6
:10F000001967C3315A5004315A500C395A525A6751
:10F010009A67174B1A80174B5869431C22D08023DC
:10F020005B0519690904090C01F072F880235B057E
:10F030001B6902381B041B0C58430F4B002118603E
:10F0400000230E4A002013600D4A13601381538180
:10F050000C4A11700C4A13600C4A136004220C4BCA
:10F060001A6010BD80235B055869DFE7902C0020F3
:10F07000702D002000100010742D00208C2D002019
:10F08000642D00207D2D0020842D00205C2D00208B
:10F09000782D0020F0B557464E464546E0B4344B37
:10F0A0001A680823520705D4181C1CBC90469946C0
:10F0B000A246F0BD002857D0002955D00368002B88
:10F0C00052D080277F053A69868892B207239642FC
:10F0D000EAD80F2EE8D9C288002AE5D0254B724322
:10F0E00099461B68041C9846234B424458690D1CE2
:10F0F0009246431C3AD039690904090C01F008F81A
:10F1000080225205136901381B041B0C5843072346
:10F110008245C9D8B107C7D1184F033B3E88012E9D
:10F12000C2D043466B600C232E604546734314489F
:10F130000136C1184D6025681D50A5880D81E088F5
:10F1400048816843136911699BB21469C01801387A
:10F1500089B2A4B201F06CF8231C4A4643434344ED
:10F1600013603E8000239FE70E239DE77869C7E781
:10F17000782D0020742D002000100010702D00202C
:10F18000642D002030B5114B1C680823640701D49E
:10F19000181C30BD002806D0002A04D00368002BBC
:10F1A00003D00723F4E70E23F2E7094C2568002D6E
:10F1B000F7D0258940686943091860896468684305
:10F1C00000198142EDD213605160E1E7782D0020F3
:10F1D000642D0020F0B5474680B41E4C051C246801
:10F1E00082B00820640703D402B004BC9046F0BD8E
:10F1F00000292CD0002D2AD02C680138002CF3D106
:10F20000154C2668002EEFD06E686789B0462689B7
:10F210007743B4466668BC19A045E5D2002AE3D01E
:10F220009445E1D3D418A445DEDB09308C07DBD14B
:10F2300003242342D8D146462642D5D1181C131C9C
:10F2400000900A1C0120291CFEF774FFCCE70E2059
:10F25000CAE7C046782D0020642D0020F0B547464F
:10F2600080B41E4C051C246882B00820640703D4B7
:10F2700002B004BC9046F0BD00292CD0002D2AD04D
:10F280002C680138002CF3D1154C2668002EEFD0E5
:10F290006E686789B04626897743B4466668BC19AC
:10F2A000A045E5D2002AE3D09445E1D3D418A44583
:10F2B000DEDB09308C07DBD103242342D8D146465C
:10F2C0002642D5D1181C131C00900A1C0420291CAE
:10F2D000FEF730FFCCE70E20CAE7C046782D0020AD
:10F2E000642D0020F0B54F464646C0B4254C83B08F
:10F2F000256808246D0705D4201C03B00CBC90467B
:10F300009946F0BD002906D0002804D00C68002CD6
:10F3100003D00724F0E70E24EEE71B4D2E68002EE5
:10F32000F7D04E682F89B4466E897E43B1466E6829
:10F33000B0464E464644B445EBD2002AE9D0974247
:10F34000E7D3D618B742E4DB860701D01024D3E711
:10F3500003263342FAD167463E40F7D188466344DC
:10F36000191C171C814601F055F842460C231268FF
:10F37000009753434046ED580221321C4B46A847A4
:10F38000BAE7C046782D0020642D0020F0B54F4626
:10F390004646C0B4204A83B012680824530705D4F7
:10F3A000201C03B00CBC90469946F0BD002830D01C
:10F3B0000368013C002BF3D1184B1A68002AEFD0E8
:10F3C0001D895E895A686E434768B618B742E7D20E
:10F3D0000934BB07E4D188468146291CB81A00F0DD
:10F3E0001DFF093C0029DBD14046291C00F016FF17
:10F3F00089B20029D4D14346002BD1D04744BE4224
:10F40000CED30022032000924946FEF793FE041C4F
:10F41000C6E70E24C4E7C046782D0020642D0020E6
:10F42000C12210B5604B92009A5884B092054DD518
:10F430005E4A1168002949D0002111608121C22251
:10F440008900920099505A4B9A7E002A02D10121DC
:10F45000584A1160022269460A7090215248C90038
:10F460004258425069460392DA7D68460A72DA6869
:10F47000196801920022DA751A765B6898474E4A3D
:10F480001368002B10D04A4B988A997D81424FD93E
:10F49000002111609A8A9968895C9A8A013292B235
:10F4A0009A82464B404AD150454B1A68002A0BD0ED
:10F4B00000221A603E4B9A7E002A02D001213A4A6D
:10F4C0001160DA7D002A42D104B010BDC123364A52
:10F4D0009B00D3585B07D2D53A490B68002BCED09E
:10F4E000334BD87D00283FD10860A321C900525872
:10F4F0005A7ED97D9142C2D11A7E002A41D19A7E8C
:10F50000002A02D101212B4A11608120C222264902
:10F51000800092008850002268460121DA755A7EE8
:10F5200001700272DA68196801925B689847A6E771
:10F53000002010600029B7D06A46107011729A68D6
:10F540009875196801925B6868469847ACE7002295
:10F5500068460121DA755A7E01700272DA6819680C
:10F5600001925B689847AFE700200860A320C000C5
:10F57000597E1258D86842545A7E0132D2B25A7615
:10F58000B6E7DA751A69D968DA6000226C46587EE7
:10F590001A765A76013220720191227019686846F3
:10F5A0005B6898476BE7C04600200040242100407C
:10F5B000902D0020042000401C2100401C0500006C
:10F5C0004421004008210040A0DF7047A2DF7047BF
:10F5D000A3DF7047F0B54D465F4656464446F0B44B
:10F5E0000E2595B0002816D0002914D00B68894646
:10F5F000036001235B4243820A79037406A9023344
:10F600008B70684B0275071C021D01200B80FFF7F1
:10F61000DBFF051E07D0281C15B03CBC9046994660
:10F62000A246AB46F0BD3B7D002B00D09EE00DAD69
:10F63000281C00211C22FBF7EBFD02222B78397DD0
:10F640001A4301239A460B401801D3B21022934368
:10F6500003432B70002390464A1E91419B466B60EA
:10F66000EB602B61494204AB0B406B615B46524639
:10F67000AB6102AB9A754C4B05AE02AA9382002196
:10F680000322301CFBF7C4FD4B469B7B06223370E4
:10F690004B46DB7B08AC7370B37800219343043A8C
:10F6A0001343DBB20632934342469343524693439D
:10F6B000B3704B461B7B02AAD370201C1422FBF7AD
:10F6C000A7FD07AB0893534623815B4663815346EE
:10F6D000A38102AB033323616660291CB888BB1D7C
:10F6E000221CFFF773FF051E95D14B469B68002B2C
:10F6F00055D0012302AA93752C4B00219382301C14
:10F700000322FBF785FD4B461B7C0622337000234A
:10F710007370B3789343043A1343DBB206329343D6
:10F720004246934352469343B37003AB98464B46CD
:10F730004046996800F030FB814600211422201CCD
:10F74000FBF766FD07AB23606A464B46D380434612
:10F75000D0883A1C658166602081A0812361F88889
:10F760000E32211CFFF734FF051C54E704AC0021C6
:10F770000322201CFBF74CFD0F21012223788B4331
:10F78000134310220B40134323704B4606225B7B2E
:10F790006370A378934302221343A37047E7F88171
:10F7A00039E7C0460F180000192A00000829000098
:10F7B000A0DF7047A2DF7047F0B556464D4644467D
:10F7C0005F46F0B491B00190894690469A46002970
:10F7D0004FD04346002B02D10020FCF783FD0225C9
:10F7E00009AC201C00211C22FBF712FD237803AE7C
:10F7F0002B43237001239B46B3706B4600279B88E5
:10F8000002A80021032233806760E76027616761F7
:10F81000A761FBF7FDFC53461B7802AA1370534601
:10F820005B78002153709378062293431D43E723AE
:10F830001D405B469D4302AB9D7004AD281C0E32FB
:10F84000FBF7E6FC02AB6B6043462B81AB814B467A
:10F850002B610A4B211C18882A1C1A9B04966F8165
:10F86000FFF7A8FF11B03CBC90469946A246AB46B4
:10F87000F0BD0020FCF736FDABE7C046F42D0020BC
:10F88000F0B55F464D46564644460123F0B495B068
:10F8900004A98B70A14B071C0B80A14B01201A1CE3
:10F8A0009946FFF785FF002800D0E4E03A88002A57
:10F8B00000D0E7E03A89002A00D0F1E03A8A002A35
:10F8C00000D0F9E03A8B002A00D001E13A8C002AFE
:10F8D00000D009E13A8D002A00D011E13B6B002BEA
:10F8E0005FD01A7806AD2A700022022692465A7816
:10F8F0000DAC6A709A780021AA70DA78201CEA7040
:10F900001A792A719B681A0A6B71AA711B0C1C2246
:10F91000EB71FBF77DFC23780021334323705346C2
:10F920006360E36023616361A361013398466B46C2
:10F9300042469A756A467B4B03A893820322FBF7E3
:10F9400067FC3C236A46FB5C002113733B1C3C3381
:10F950005B785373937B062293431E430823F6B2CE
:10F960009B469E4308339E4343469E436B469E738D
:10F9700008AE0E32301CFBF74BFC05AB089303AB13
:10F9800073605B463381534673815B46B3814B465C
:10F99000211C1888321C644B3561FFF70BFF0028CF
:10F9A00069D17B6B002B0AD019681A795F4B6048CC
:10F9B00000933B1C3C33FFF7FFFE00285BD1BB6B81
:10F9C000002B00D1A8E01A7806AD2A705A880DAC39
:10F9D0006A70120AAA709A880021EA70120A2A71C3
:10F9E000DB881C226B71201C1B0AAB71FBF710FC1F
:10F9F000022290464246237803AE1343237000232D
:10FA00009A466360E36023616361A36101339B46AF
:10FA10006B465A469A756A46464B00219382301CC3
:10FA20000322FBF7F5FB3C23FB5C062233703B1CF7
:10FA30003C335B7800217370B378934342461A439A
:10FA4000171CE7231F405B469F43B77008AF142283
:10FA5000381CFBF7DDFB05AB0893072352463B81BF
:10FA6000BB814B467A811888211C3A1C324B7E6040
:10FA70003D61FFF79FFE15B03CBC90469946A246FB
:10FA8000AB46F0BD2D4B2E4800933B1C79683C33B0
:10FA9000FFF792FE0028EED13A89002A00D10DE747
:10FAA000284B294800933B1CF9683C33FFF784FE40
:10FAB000002800D102E7DEE7244B254800933B1CD9
:10FAC00079693C33FFF778FE002800D1FAE6D2E7E7
:10FAD000204B214800933B1CF9693C33FFF76CFE37
:10FAE000002800D1F2E6C6E71C4B1D4800933B1CE2
:10FAF000796A3C33FFF760FE002800D1EAE6BAE7F6
:10FB0000184B194800933B1CF96A3C33FFF754FE2D
:10FB1000002800D1E2E6AEE70020ACE70A180000BA
:10FB2000F42D0020232A0000BC2D0020CC2D002025
:10FB30002A2A0000502A0000D42D0020C42D0020C5
:10FB4000292A0000B42D0020242A0000E42D0020E2
:10FB5000252A0000DC2D0020272A0000EC2D0020A3
:10FB6000262A0000AC2D0020282A000075DF7047EF
:10FB700076DF70477ADF70477BDF704710B5184B30
:10FB800082B01888174B984214D0174A174C137834
:10FB90000133DBB21370217B99420DD20023137025
:10FBA000237C002B12D16369002B03D0002201A813
:10FBB0000270984702B010BD0D49FFF7D7FF00282B
:10FBC000F8D0A369002BF5D09847F3E73B21FFF766
:10FBD000CFFF0028E7D0A369002BE4D09847E2E7E5
:10FBE000402E0020FFFF0000002E0020042E0020E9
:10FBF000442E002030B51B4B1B4A5B88118883B014
:10FC000099420FD852889A420CD3184B5B69002B4B
:10FC100003D0012201A802709847154C00232370DD
:10FC200003B030BD124C2378002B08D00F4B5B691A
:10FC3000002BF3D0002201A802709847EEE70D4B8D
:10FC40000A4D1B78002B0BD0A9680B480022FCF74B
:10FC5000C1FE0028E2D0AB69002BDFD09847DDE77A
:10FC60006968F2E7F82D0020442E0020042E0020C1
:10FC7000F62D0020002E0020202E0020164938B539
:10FC8000021C0B1C32CA32C332CA32C312681A6059
:10FC90000022124B01681A70002916D0104C08324D
:10FCA000201C00F0B7FB201CFFF764FF00280BD1DD
:10FCB00001220C4B52421A8000220B4B0B481A7047
:10FCC00000210B4AFCF76CFE38BD0548FFF754FFD6
:10FCD0000028EDD0F8E7C046042E0020F62D0020C5
:10FCE000442E0020402E0020002E0020C40E0200D2
:10FCF0007DFB010010B50388112B31D01FD9122BC9
:10FD000016D0502B1AD11F4CC288E3899A4215D1C4
:10FD1000038A022B12D1837CDB070DD41A48FCF72F
:10FD2000D5FE00280AD0A369002B07D0984705E02C
:10FD3000164B083006C806C3FFF75CFF10BD102B3A
:10FD4000FCD18288124B18301A80104B06C806C3AB
:10FD50000022104B1A700B4BDB89002BEED1EBE726
:10FD600001220B4B52421A8000220A4B06481A709D
:10FD7000FCF7ACFE0028E1D0024B9B69002BDDD0E4
:10FD80009847DBE7042E0020202E0020F82D0020CD
:10FD9000402E0020002E00200B7803704B7843701B
:10FDA0000220704738B5041C081C0D1C00F05EFBD7
:10FDB0006560208038BDC046304B1B78012B00D0D9
:10FDC00070472F4B1B681B07FAD1F0222D4B1B6885
:10FDD000134027D12C4B1B68134229D0284B1B689A
:10FDE0001B07EDD1F022274B1B681340402B32D06C
:10FDF000244B1A68F0231340A02B01D0D02BDFD165
:10FE0000214B1A68F0231A42DAD1204A1368012BD9
:10FE100004D01F4B13601368012BFCD1C0221D4B73
:10FE20001A60CDE7102B0FD1174B1B681342D9D1A5
:10FE3000194A1A4B1A608022194B12021A600F4B92
:10FE40001B78012BCAD0BBE7302BCBD10E4B1B68E4
:10FE50001342C7D1ECE70C4B1B681342C8D1C12336
:10FE600080220121DB00D205D150044B1B78012BED
:10FE7000A6D1034B1B681B07BAD0A1E7E00F00F027
:10FE8000E40F00F0E80F00F0EC0F00F000EC06408B
:10FE90007593000014EC0640DFFF07C00405004026
:10FEA000186C004052DF704710DF704760DF70470A
:10FEB00061DF704708B5FCF725FA08BDF0B54F467D
:10FEC0004646C0B42E4B2F4E1C68984663425C4198
:10FED0000025B1462C4F83B0E4B2002D07D0002C92
:10FEE00022D003B00CBC90469946F0BD012401A875
:10FEF000FFF7D8FF052832D0002826D0FCF7F2F90A
:10FF0000002CF3D16A461F4B01A91B8893801E4B1E
:10FF10001C68201CFFF7CCFF0528E7D000280ED076
:10FF2000FCF7E0F90024D8E73C68338801A9201CDD
:10FF30000B80FFF7BDFF0528D3D00028F0D1434642
:10FF4000201C1B6898470024C7E70198FDF750F86C
:10FF50000E4B1B68002BD3D001989847D0E7002C9C
:10FF6000BFD14B466A461B8801A99380064B0125E9
:10FF70001C68201CFFF79CFF0528CFD1B1E7C046C5
:10FF8000582E00204E2E0020502E0020542E0020EF
:10FF900038B5041C0720002901D08D0700D038BDDA
:10FFA000124801601249201C0A80124A124913604B
:10FFB000FFF77AFF0028F2D10122104B1A70C522F8
:10FFC0000F4B92009A58520207D50E4A50680028EB
:10FFD00005D18022D2031A60E1E70B48DFE78021D8
:10FFE0001368C9030B4313600020D8E7502E00208C
:10FFF0004E2E00205C2E0020B5FE01004C2E00206D
:020000022000DC
:1000000000E100E0A82E002002200000002803D01C
:10001000024B1860002070470E20FCE7582E00208D
:10002000002803D0024B1860002070470E20FCE728
:10003000542E002008B5094B1B68002B06D09847AA
:10004000002800D108BDFCF74DF9FBE7044B1B78F5
:10005000002BF7D0FFF732FFF4E7C0465C2E0020FC
:100060004C2E002070B5141C051C0E1C101C002109
:100070001422FBF7CDF8002301222361237B228089
:100080009343237326726572002D01D00123A3725E
:10009000002070BD0020034B82B00193019B02B091
:1000A0007047C0460028002000B5054B83B001937F
:1000B000019B69460093FFF7F9FE03B000BDC046FF
:1000C0000028002003210A4802680A430260094808
:1000D00002680A4302600849084A094B9B1A03DD7B
:1000E000043BC858D050FBDCFFF766FEFBF718F85E
:1000F0002405004054050040080F0200002800209D
:1001000098280020FEE7FEE7FEE7FEE7FEE7FEE7B1
:10011000002243088B4274D303098B425FD3030A46
:100120008B4244D3030B8B4228D3030C8B420DD359
:10013000FF22090212BA030C8B4202D312120902E7
:1001400065D0030B8B4219D300E0090AC30B8B4225
:1001500001D3CB03C01A5241830B8B4201D38B03D3
:10016000C01A5241430B8B4201D34B03C01A524178
:10017000030B8B4201D30B03C01A5241C30A8B42BB
:1001800001D3CB02C01A5241830A8B4201D38B02A6
:10019000C01A5241430A8B4201D34B02C01A52414A
:1001A000030A8B4201D30B02C01A5241CDD2C309BC
:1001B0008B4201D3CB01C01A524183098B4201D338
:1001C0008B01C01A524143098B4201D34B01C01A23
:1001D000524103098B4201D30B01C01A5241C3089B
:1001E0008B4201D3CB00C01A524183088B4201D30A
:1001F0008B00C01A524143088B4201D34B00C01AF6
:100200005241411A00D20146524110467047FFE761
:1002100001B5002000F0FCF802BDC0460029F7D06F
:1002200003B5FFF775FF0EBC4243891A1847C04655
:1002300003460B437FD4002243088B4274D3030947
:100240008B425FD3030A8B4244D3030B8B4228D3E8
:10025000030C8B420DD3FF22090212BA030C8B420E
:1002600002D31212090265D0030B8B4219D300E0AE
:10027000090AC30B8B4201D3CB03C01A5241830B33
:100280008B4201D38B03C01A5241430B8B4201D3E3
:100290004B03C01A5241030B8B4201D30B03C01A0C
:1002A0005241C30A8B4201D3CB02C01A5241830A86
:1002B0008B4201D38B02C01A5241430A8B4201D3B5
:1002C0004B02C01A5241030A8B4201D30B02C01ADF
:1002D0005241CDD2C3098B4201D3CB01C01A524146
:1002E00083098B4201D38B01C01A524143098B42CF
:1002F00001D34B01C01A524103098B4201D30B01B8
:10030000C01A5241C3088B4201D3CB00C01A5241DC
:1003100083088B4201D38B00C01A524143088B42A1
:1003200001D34B00C01A5241411A00D2014652413A
:10033000104670475DE0CA0F00D04942031000D359
:100340004042534000229C4603098B422DD3030AAE
:100350008B4212D3FC22890112BA030A8B420CD3BE
:10036000890192118B4208D3890192118B4204D3E7
:1003700089013AD0921100E08909C3098B4201D367
:10038000CB01C01A524183098B4201D38B01C01AA1
:10039000524143098B4201D34B01C01A5241030918
:1003A0008B4201D30B01C01A5241C3088B4201D3C7
:1003B000CB00C01A524183088B4201D38B00C01A74
:1003C0005241D9D243088B4201D34B00C01A52414B
:1003D000411A00D20146634652415B10104601D3D8
:1003E0004042002B00D54942704763465B1000D362
:1003F000404201B5002000F00BF802BD0029F8D002
:1004000003B5FFF715FF0EBC4243891A1847C046D3
:100410007047C046002310B5934203D0CC5CC4544F
:100420000133F9E710BD00000EB410B59DB002A96C
:10043000029008610B488224886048610120404294
:100440001FABC881084804CBA400006801938C81CD
:1004500000F074F80023029A13701DB010BC08BCA1
:1004600003B01847FFFFFF7F602800200023C25C15
:100470000133002AFBD1581E70470000F0B58E688A
:1004800085B0071C0C1C03920193B34245D3902303
:100490008A89DB001A423DD0032509692368019847
:1004A0005B1A029363695D43EB0F5D19029B6D104C
:1004B00001331B189D4200D21D1C381C53050FD55B
:1004C000291C00F01DFB061E13D0029A2169FFF7BC
:1004D000A1FFA289184B134080221343A38111E08E
:1004E0002A1C00F065FB061E0CD1381C216900F0A7
:1004F000C1FA0C23402201203B60A38940421343F0
:10050000A38117E0029B2661F61826606561019EB3
:10051000ED1AA560019BB34200D2019E321C2068F7
:10052000039900F092FA0020A3689B1BA360236844
:100530009E19266005B0F0BD7FFBFFFFF0B59FB0B0
:10054000029005938B890E1C171C1B0610D50B6996
:10055000002B0DD1402100F0D3FA3060306100282B
:1005600004D10C23029A01381360D0E04023736158
:10057000002306AD6B6120336B761033AB763C1CE9
:100580002378002B03D1E31B049312D003E0252B27
:10059000F9D00134F4E7049B0298311C3A1CFFF7B0
:1005A0006DFF431C00D1ACE06A69049B9446634430
:1005B0006B612378002B00D1A3E00122002352427B
:1005C0006A6002A95432521801342B60EB60AB60B0
:1005D0001370AB654F4F2178381C052200F02AFAC2
:1005E000002808D0C01B01278740381C2B68013425
:1005F00018432860EEE72B68DA0604D55322202141
:1006000002A8121811701A0704D553222B2102A830
:100610001218117022782A2A01D0099B0EE0059A3F
:10062000111D12680591002A01DB099204E0524273
:10063000EA60022213432B60013409E02278303A49
:10064000092A04D80A214B4301349B18F6E7099381
:1006500023782E2B18D163782A2B09D1059B0234DD
:100660001A1D1B680592002B0DDA01235B420AE07C
:10067000002301342278303A092A04D80A214B4356
:1006800001349B18F6E70793234F2178381C032287
:1006900000F0D0F9002807D0C01B40278740381C45
:1006A0002B6801341843286021781C480622671CF7
:1006B000297600F0BFF9002812D0194B002B06D183
:1006C0000722059B073393430833059314E005ABDA
:1006D00000930298291C321C124B00E000BF07E077
:1006E00005AB00930298291C321C0E4B00F08AF8CF
:1006F0000390039B013304D06B69039A9B186B61D1
:100700003DE7B3890B985B0601D5012040421FB03D
:10071000F0BDC046C80E0200CE0E0200D20E02008E
:10072000000000007D040200F7B5171C01930A6960
:100730008B6800900C1C934200DA131C221C3B6057
:1007400043321278002A01D001333B6023689B06B4
:1007500002D53B6802333B60062523681D401ED04E
:10076000231C43331B785A1E9341226892061CD5E2
:100770003020E1184031C870211C5A1C45310978DD
:10078000A21840320233D1700FE0221C01230098DE
:1007900001991932089EB047431C0ED00135E36819
:1007A0003A689B1A9D42F0DBDAE7221C0098019917
:1007B0004332089DA847431C02D10120404220E05B
:1007C00006232068E1683A6803400025042B03D122
:1007D0008D1AEB43DB171D40A3682269934201DDAC
:1007E0009B1AED180027AF420ADA221C0123009859
:1007F00001991A32089EB047431CDED00137F2E758
:100800000020FEBDF0B58BB006920A1C4332079360
:10081000059004920A7E0C1C109B6E2A00D1A8E061
:1008200011D8632A22D009D8002A00D1B2E0582A70
:1008300000D0C2E045310A707C4A4FE0642A1DD0E6
:10084000692A1BD0B9E0732A00D1A7E009D86F2A22
:1008500029D0702A00D0B0E0202209680A43226023
:1008600037E0752A1FD0782A33D0A6E00E1C1A680C
:100870004236111D196013683370A1E021681A68AF
:10088000080606D4490604D5111D19600023D55E5B
:1008900002E0111D19601568002D3BDA2D23049A22
:1008A0006D42137036E021681A68080606D44906BE
:1008B00004D51568111D1960ADB202E0111D196053
:1008C00015685A4B227E03930A276F2A1DD10827E9
:1008D0001BE0221C782145321170554A1968039299
:1008E000081D226818600D68100602D4500600D555
:1008F000ADB2D30702D520231A4322601027002D62
:1009000003D1202322689A432260231C0022433310
:100910001A7002E00A27454B03936368A360002B1B
:1009200003DB0422216891432160002D02D1049E43
:10093000002B0ED0049E281C391CFFF76FFC039B74
:10094000013E5B5C281C3370391CFFF7E1FB051E80
:10095000F1D1082F09D12368DB0706D56368226926
:10096000934202DC3023013E3370049B9B1B2361C6
:100970002BE009681A68080607D4490605D5111D39
:1009800019601368A28A1A8004E0111D19601368A7
:1009900062691A600023049E236116E01A68111D23
:1009A000196016680021301C626800F043F80028C6
:1009B00001D0801B6060636803E0261C4236327001
:1009C000012323610023049A1370079B0598009369
:1009D000211C069B09AAFFF7A7FE431C02D1012098
:1009E000404221E0236905980699321C079DA847DB
:1009F000431CF4D023689B0705D4099BE068984208
:100A000012DA181C10E00025E368099A9B1A9D422F
:100A1000F3DA221C0123059806991932079EB04784
:100A2000431CDCD00135EFE70BB0F0BDD90E02005E
:100A3000EA0E0200C9B28218904204D003788B42B9
:100A400002D00130F8E70020704710B5814208D28B
:100A50008B18984205D29B1A013A09D3995C8154AC
:100A6000FAE70023934203D0CC5CC4540133F9E786
:100A700010BD000030B500293ED004390B68002BB2
:100A800000DAC9181D4A1368141C002B02D14B60F0
:100A9000116031E099420DD208680A189A4203D1D8
:100AA0001368C3180B6053684B60216024E08A42CE
:100AB00003D8131C5A68002AF9D11D685C198C42AE
:100AC0000BD10968691858181960904214D1106840
