:020000021000EC
:10B00000004000203DDE01007DDE01007FDE01000A
:10B010000000000000000000000000000000000030
:10B0200000000000000000000000000081DE0100C0
:10B03000000000000000000083DE010085DE01004A
:10B0400087DE010087DE01009DD90100F9D20100F1
:10B0500087DE0100000000006DC9010087DE0100ED
:10B0600015CC010087DE010087DE010087DE0100CC
:10B0700087DE010087DE010087DE010087DE010038
:10B0800087DE0100E5BA010087DE010087DE0100EE
:10B09000C1BB010087DE0100ADDD010087DE0100DC
:10B0A00087DE010087DE01000000000000000000D4
:10B0B0000000000000000000000000000000000090
:10B0C00010B5064C2378002B07D1054B002B02D07E
:10B0D000044800E000BF0123237010BD9428002025
:10B0E0000000000050EA010008B5084B002B03D017
:10B0F0000748084900E000BF07480368002B00D15B
:10B1000008BD064B002BFBD09847F9E70000000074
:10B1100050EA01009828002090280020000000003C
:10B12000164B002B00D1144B9D46402292029A1AD6
:10B13000924600218B460F461348144A121A00F01B
:10B1400067F80F4B002B00D098470E4B002B00D018
:10B1500098470020002104000D000D48002802D06F
:10B160000C4800E000BF00F02DF82000290000F09E
:10B170005BF800F011F8C046000008000040002015
:10B18000000000000000000094280020BC2D0020DA
:10B190000000000000000000084B10B5041C002B4C
:10B1A00002D0002100E000BF054B1868836A002B25
:10B1B00000D09847201C00F033F8C0460000000083
:10B1C00008E801000E4B70B500251E1C0D4CE41A5A
:10B1D000A410A54204D0AB00F35898470135F8E716
:10B1E00003F004FB084B00251E1C084CE41AA410B5
:10B1F000A54204D0AB00F35898470135F8E770BD7D
:10B200008828002088280020882800208C280020FA
:10B21000031C8218934202D019700133FAE7704779
:10B22000FEE7C04648DF704708B5002005210E4AFA
:10B23000002300F0E9FE002801D000F0F9FBA02374
:10B24000A3218022DB05C9005A5008495A5000F05A
:10B2500045F800F0A3FB00F0E9FBFFF7E3FF00284F
:10B26000F9D000F0E5FBF6E7B02800200C0500005F
:10B2700030B5037883B0012B03D0002B06D0022B0E
:10B2800002D1406800F0D4FB03B030BD6B46DC1D3A
:10B29000201C01F0DFFA2378662BF5D1054CA51DA3
:10B2A0002078013401F0F0FAAC42F9D10D2001F020
:10B2B000EBFAE9E718E8010038B500290AD0041CC8
:10B2C0004D1EEDB2013545192078013401F0DCFA4C
:10B2D000AC42F9D10D2001F0D7FA38BD30B589B0B4
:10B2E00001A8021C0B4B32CB32C20B4B04A90493B6
:10B2F00001230593094B0A4A069380235B000793B9
:10B30000FD3B01F055FA002801D000F091FB09B097
:10B3100030BDC0460CE80100782A00207C2A0020BD
:10B3200071B2010010B584B01E49041C01A802F0DE
:10B3300047FE01A802F066FEC1B201A8FFF7BCFFFC
:10B34000002C2AD1184B19481A78597812020A434E
:10B3500002809A78D97812020A4342801A79597980
:10B3600012020A4382809A79D97912020A43C28072
:10B370001A7A597A12020A4302819A7AD97A120207
:10B380000A4342811A7B5B7B120213438381084B81
:10B3900007211B68984704B010BD06481821FFF725
:10B3A0008BFFF8E778E801008C2B00207C2B002035
:10B3B000C02B002084E8010008B50548054901F0CC
:10B3C000A5F8002801D000F033FB012008BDC046DD
:10B3D0006428002030E80100F0B50C2185B0071C7E
:10B3E0002848FFF769FF284801F060F96A46274BB3
:10B3F0006C4623CB23C2264D1B68281C136069466C
:10B400000822244B01F062F8002801D000F010FB64
:10B41000281C21490222002301F0AEF8002827D180
:10B420001E4E3378682B06D01D481421FFF744FFC9
:10B43000002005B0F0BD3B68002B1CD0194A281C29
:10B44000136019490622002301F096F8002801D064
:10B4500000F0EEFA32781549201C02F0B1FD201CF4
:10B4600002F0D0FDC1B2201CFFF726FF0120E0E76B
:10B4700000F0DEFAD4E70E482221FFF71DFF00207E
:10B48000D7E7C046A0E80100B80B000020E80100A3
:10B49000642800209C2B00205CE801008C2B0020FD
:10B4A000DCE80100C02B0020F8E80100B0E8010052
:10B4B000B8E8010072DF704773DF704774DF7047D0
:10B4C00078DF70477CDF70477047C0464B1E70B511
:10B4D000072B1DD800281BD00C1C051CFFF7EEFF06
:10B4E00000281CD10F4E291C221C301C02F05EFDCE
:10B4F000301C0D4A0A38137813210133DBB2FFF7F1
:10B50000D9FF002808D10948FFF7D6FF002800D14D
:10B5100070BD00F08DFAFBE700F08AFAF3E700F067
:10B5200087FADFE7A62D00207C2D00200C2C0020C0
:10B5300070B5234C86B023491322201C02F036FD3F
:10B54000214E301C02F05EFD0823204D0130C2B2B6
:10B550002A70311C013AA81C6B7002F027FD2B7871
:10B56000201C0133DBB213212A1CFFF7A3FF0028A4
:10B5700001D000F05DFA164C18220021201CFFF7C4
:10B5800047FE02232370002363602372E360A0332D
:10B590001049238201A8643B638202F011FD01A8D7
:10B5A00002F030FDC1B201A8FFF786FE201CFFF7B4
:10B5B00083FF002801D000F03BFA06B070BDC04602
:10B5C0009C2D00202CE901007C2800207C2D0020EF
:10B5D0000C2C002040E9010030B587B02549042239
:10B5E000684602F0E3FC684623494822002302F043
:10B5F00095FB00283BD101AC00200121221C02F068
:10B60000EDFB002830D11D4802F000FC002828D1B5
:10B61000201C02F005FC002820D1194802F0BCFBD8
:10B62000002801D000F004FA0023164D2370281CD6
:10B6300002F0E8FC291C82B2201CFFF743FF00281F
:10B6400009D1C0204000FFF73BFF002801D000F0E7
:10B65000EFF907B030BD00F0EBF9F2E700F0E8F9E0
:10B66000DBE700F0E5F9D3E700F0E2F9CBE700F023
:10B67000DFF9C0E728E90100C42B0020E81F002003
:10B68000C9B4010054E9010030B50288041C9E4D84
:10B690009E4811B28BB02B88814200DD05E19C48A9
:10B6A00084469C48624492B2824200D9B9E00322A7
:10B6B00093436288954811B2814200DDBDE0944811
:10B6C00084469448624492B2824200D809E1924A88
:10B6D000914200DA14E1A2888C4811B2814200DC68
:10B6E000B3E080225200134322898C4811B2814278
:10B6F00000DDB9E08A4884468A48624492B28242B8
:10B7000000D8E3E0884A914200DAF6E06289834893
:10B7100011B2814200DDAFE0814884468148624435
:10B7200092B2824200D8C6E07F4A914200DAE1E05C
:10B73000A2897A4811B2814200DCA5E08022D200C1
:10B7400013432B8079490023E25E684602F038FCFF
:10B75000684602F057FCC1B26846FFF7ADFD022310
:10B76000E25E7349684602F02BFC684602F04AFC30
:10B77000C1B26846FFF7A0FD0423E25E6D4968464A
:10B7800002F01EFC684602F03DFCC1B26846FFF7BD
:10B7900093FD0823E25E6849684602F011FC6846A2
:10B7A00002F030FCC1B26846FFF786FD0A23E25E74
:10B7B0006249684602F004FC684602F023FCC1B20C
:10B7C0006846FFF779FD0C23E25E5D49684602F0AA
:10B7D000F7FB684602F016FCC1B26846FFF76CFD45
:10B7E00080232A889B009A4200D17DE056D980238D
:10B7F000DB009A4200D17AE080231B019A4251D1AA
:10B80000032303204F4908704F4905A802F0D8FBD5
:10B8100005A802F0F7FBC1B205A8FFF74DFD0BB07C
:10B8200030BD3D4A914200DB43E702221343628868
:10B83000364811B2814200DC41E710221343A2884E
:10B84000324811B2814200DD4BE73148844631482D
:10B85000624492B282423CD83C4A3048134022892A
:10B8600011B2814200DC45E70422134362892B4870
:10B8700011B2814200DC4FE740221343A2892748DE
:10B8800011B2814200DD59E72548844625486244CB
:10B8900092B2824212D82E4A134052E7013BFF3B3C
:10B8A0009A4205D0FF23FF20ACE70122134300E7B3
:10B8B00000230020A6E7C022934339E71A4A9142A9
:10B8C00000DB3EE78022120113433AE70C22934348
:10B8D0001CE7114A914200DB06E7802292001343E5
:10B8E00002E730229343F6E6012301208AE7022390
:10B8F000022087E7802213431AE70822134305E753
:10B9000020221343E7E6C046442C002030180000F4
:10B910002F1800005E300000D0E7FFFF382800003D
:10B92000372800006E500000C8D7FFFF68E901000B
:10B9300074E9010080E901008CE9010098E9010047
:10B94000A4E9010087280020B0E90100FFFCFFFF07
:10B95000FFF3FFFF8021A02210B50C1CA120094B92
:10B96000D205D358C0009C430B4007491450535094
:10B97000064B1B78FF2B04D005480121C018FFF7A8
:10B98000A5FD10BD040500000C050000872800205F
:10B9900064E9010008B5FFF70FFD08BD00B583B0ED
:10B9A000FFF71AFE194B01A80193FFF715FD0028B8
:10B9B00003D1FFF7BDFD03B000BD15480121154AB5
:10B9C00000F094FB00281ED113480121134A00F017
:10B9D0008DFB002814D1802111480902002200F0BB
:10B9E0009FFB002809D10F480F49002200F098FB67
:10B9F0000028DED000F01CF8DBE700F019F8F2E7D1
:10BA000000F016F8E7E700F013F8DDE789B601006B
:10BA1000C8E9010095B9010060E9010055B90100CC
:10BA2000482C0020242C0020018001007047C046D3
:10BA3000002300B585B001AA90600021034813805F
:10BA4000536000F005F805B000BDC046014000009D
:10BA5000BFF34F8F034A044BDA60BFF34F8FC046EA
:10BA6000FDE7C0460400FA0500ED00E080218023D8
:10BA7000184A8902D1508022D221174B52028900E4
:10BA80005A5040395A5001222F205A600138C0467E
:10BA9000C046C046C046C046C046C046C046C04676
:10BAA000C046C046C046F1D19A6000230B4A2F2001
:10BAB00013600138C046C046C046C046C046C046B6
:10BAC000C046C046C046C046C046C046F1D1044A42
:10BAD0001370704700E100E000100140682C002066
:10BAE000882C0020A021F0B5002347462B4A4900AE
:10BAF00080B45350043153500431535004315350E7
:10BB00004C39535004315350254B1B68002B35D012
:10BB10002449002652582449244F0C68141B002243
:10BB20002402240A904602E0002D18D02B1C1A682B
:10BB3000A24214D8A41AB6181A7CDD69002AF3D0E0
:10BB4000424699691A745A693B68002B19D0101C37
:10BB500098470028E8D0FFF76BFF002DE6D1144B83
:10BB600014491A780B789A420ED0134A9B009E50C3
:10BB700080218023114A49035B00D15004BC9046C8
:10BB8000F0BD081C9047CFE70132D3B2022B01D0A1
:10BB90000B70EAE700230B70E7E7C0460010014096
:10BBA0006C2C002004050000682C0020702C002064
:10BBB0007C2C00207D2C0020802C002000E100E067
:10BBC000F0B55F4656464D464446F0B4B44BB54AD0
:10BBD0001B68B54989B0019309781378994200D15F
:10BBE000B1E10133DBB2022B00D100231370AF4A65
:10BBF0009B009B58AA4A9946019B4B441B021B0A77
:10BC0000136001230493AA4B00241B689B46A94B95
:10BC1000D8461B781A1C0293A74B944607931B68BF
:10BC200003939F4B1B680693A44B1B7805935B46BD
:10BC30006646013EF2B29446FF2A4FD06246D000DB
:10BC4000039A9246504401784578A942F0D04A00C0
:10BC50005218877801314668C9B27F1AB2467E1EF3
:10BC6000B741D2007F42524439401778022F0AD0A0
:10BC7000032FEAD1002BE8D01C74DB69002BFBD129
:10BC800045789846E1E75668002B25D09E421AD0A9
:10BC90001F1C00E0171CFA69002AD6D09642F9D181
:10BCA000321C3D1CBE4200D1EBE01768D269EA614C
:10BCB000002A06D013689A465744176045784346D1
:10BCC000C3E74578C1E7DE691A1C002E00D1DDE02C
:10BCD000B046331C151CE8E70023B6E76946774AEF
:10BCE000097D181C11706E4A069903931160414634
:10BCF0006F4A1160049A002A00D028E15B461B1AA3
:10BD00005A1E93410025DBB20493079B00271B6852
:10BD1000039E0693624B1B689C46654B1B689A46C4
:10BD2000664B1B780593664B019301239846029B53
:10BD3000013BDBB20293FF2B00D18FE0069ADB00C0
:10BD400093469B44002D27D06968AB68281CED6999
:10BD50006246019C8A1A1202120AA24250D8D318D3
:10BD600042460360476087600274C761002E56D068
:10BD70003168341C994204D35FE01168994263D260
:10BD8000141CE2695B1A002AF7D10360331CC261FC
:10BD9000E0611E1C002DD7D15B465A461B785278B5
:10BDA0009A42C4D0594649685A0089465946D21821
:10BDB0000133DBB20B708978D2004A4499424AD0F1
:10BDC00011785068331C0129E3D1037C9946494618
:10BDD000331C0029DDD191684160D3688360146908
:10BDE000C46052698261059A002AB1D04A46002196
:10BDF00042606246019C8A1A1202120AA242AED91D
:10BE00006246511A0902090A99420CD242465B1A4B
:10BE10000360476087600274C761002EA8D1031CCD
:10BE200082461E1CB6E7434607604760876003747E
:10BE3000C761002EF3D000233168CB1A3360031C96
:10BE4000C66182461E1CA5E7C91A11600360C26163
:10BE5000331CE0619DE75B461D70B1E75246144B11
:10BE60001A60039BB3422FD1049B002B2CD10023DB
:10BE7000124A137009B03CBC90469946A246AB46A4
:10BE8000F0BDDE693A1C002E00D021E701250D4BE4
:10BE90009D600023069601369846151C059604E71A
:10BEA000682C00207C2C00207D2C0020802C002081
:10BEB0006C2C0020742C0020782C00207E2C00207C
:10BEC000FEFF7F0000100140002E63D0484B49491F
:10BED0003568CC58484B494E1B683078E21A12023C
:10BEE000120A03329046002861D04246AA4200D28C
:10BEF0002A1CA820D21812023E49130AC0003C4D49
:10BF00000B504A591B1B121B1202120A1B0203324E
:10BF10001B0A9A42ABD94B590B502F200138C0460F
:10BF2000C046C046C046C046C046C046C046C046E1
:10BF3000C046C046C046F1D180218023304A8902E4
:10BF40005B00D15093E70023994604935BE60025FC
:10BF5000002100244846464613E01A6882421CD855
:10BF6000DE68801A89181C60DF69002E07D0DD6149
:10BF70001D1C019A9E608A181202120A5A603B1C0C
:10BF80003E1C002BE9D11F4B1E600023039301339D
:10BF90000493BAE6FFF76AFD69E7814619490393FE
:10BFA0000E604946521A1A6001230493ADE68020C0
:10BFB000D1274002BF00C851403FC851C02280274E
:10BFC0000F48BF0252008750076001272F200F60E3
:10BFD0000138C046C046C046C046C046C046C046FE
:10BFE000C046C046C046C046C046F1D137707CE767
:10BFF0000405000000100140682C0020882C00205F
:10C0000000E100E06C2C0020F8B54F464646C0B475
:10C010000326351C80460F1C141C9946154007202A
:10C02000002D03D00CBC90469946F8BD002A44D0A0
:10C03000FFF71CFD4A46224B80201A60221C214B30
:10C0400018321E70204B62601C607B00DB19DB0025
:10C05000D218E260D318C022636125706570A770A2
:10C0600025726572A77225746574A774C524FF21B3
:10C07000164B40031D60164B52001D70154BA4005B
:10C080001D70154B98501A598A433F390A431A516B
:10C09000A122186040461149D2008850C420800077
:10C0A0001C580F4A2240C024240222431A500D4B30
:10C0B0000020CA580C4B1A60B4E7034B1A60B1E772
:10C0C000702C0020742C0020782C00206C2C002078
:10C0D0007C2C00207D2C002000E100E000100140BD
:10C0E000FF00FFFF04050000682C002010B50B4B7B
:10C0F0001B68002B0BD0002A07D0002805D003684E
:10C1000008201C7C002C04D010BD0720FCE7082070
:10C11000FAE759745A610020F6E7C046782C0020EF
:10C12000F0B5474680B4374B1C68002C08D0002877
:10C1300006D00723042905D8181C04BC9046F0BD7E
:10C140000823F9E74369002BFAD00025437CA84671
:10C15000012B2FD0EFF30583DB05DB0D1025002B22
:10C160002CD164196378A5785E1CF6B2AD1B6F1EE6
:10C17000BD416D422E402578B5421DD05D00EB18C3
:10C180006568DB00ED180423002DD5D0033B2B7030
:10C1900068601D4B1D48C358E960AB604346802171
:10C1A0002B6180236A611A4A5B0049036670D15093
:10C1B0000023C1E78846CDE70423BDE7103BDEB28C
:10C1C00075B2002D13DBAD08114EC035AD00AD5971
:10C1D00003263340DB00DD402B069B0FDBB200253E
:10C1E000012BBED00835032BBBD00835B9E70F2390
:10C1F000084D3340AC46083B9B089B0063445D6898
:10C200000323E6E7782C002004050000001001401D
:10C2100000E100E018ED00E010B500290DD0092381
:10C22000002A01D1181C10BD541E2240FAD1826090
:10C2300001608480C2600023F4E70E23F2E7C04669
:10C24000031C10B59C888068DA68121A0420944296
:10C2500000D210BDDA68002014401A681155DA685F
:10C260000132DA60F5E7C04610B58468C268031C85
:10C270000520944209D098689A8802401868825C28
:10C2800000200A709A6801329A6010BD0023C0B283
:10C2900088724B727047C046F0B556464D464446CC
:10C2A0005F460023F0B485B001AD041C281C0E1CB1
:10C2B0002B7000F0C5F9002E02D1E368002B0DD1E0
:10C2C000032398466379A279DBB2002701269342C3
:10C2D0002AD10023E360E368002B37D1287800F0EF
:10C2E000CFF905B03CBC90469946A246AB46F0BD9E
:10C2F000597931402970AF60EF709A79324052011C
:10C30000201C291C103000F021FF0028E9D0E36830
:10C310001B68002B5BD1281C2B7000F091F963790E
:10C32000A279DBB29342D4D021689A008C460133C3
:10C3300020796244DBB212680021984200D3191CB4
:10C34000131C6171E360E368002BC7D0287800F00C
:10C3500097F92772227AE368D2B2D1008B469B68A4
:10C360005B44597949086970196869601979A9703D
:10C3700099790E42BCD059798C46314025D1013291
:10C380009146E068027B9145B4DA08208146E26874
:10C39000D94492684A445079624640085208824221
:10C3A000A8D14246E368986848440368AB600379C3
:10C3B000EB7043793340D31A2B70237A827901339F
:10C3C0003240DBB2520123729AE7012192E7E26820
:10C3D000E36851681B689847281C2F7000F030F9FB
:10C3E0009DE7C046F0B5474680B4037884B00C1C86
:10C3F000002B18D10B7ACA680133127BDBB2002004
:10C400009A4212D8E3681B68002B04D0E268E36804
:10C4100051681B689847201C0121FFF73DFF04B0BD
:10C4200004BC9046F0BD0320ECE70B72087ACB68A1
:10C43000C0B29B68C6009B195A7901A952084A707C
:10C440001A684A601A798A7001229D792A4229D095
:10C450005D79A846151C47463D4034D1E768013058
:10C460003F7BB84220DA4746E068083680687F089C
:10C47000801940794008874216D1E3689B689E196D
:10C4800033688B603379CB7073791340181C0323A6
:10C490001B1A0B70B3791A40237A52010133DBB2B5
:10C4A000237209E05D79154000220D708A60CA7020
:10C4B0009B7901321A405201201C103000F046FED8
:10C4C00000289FD1ABE70125EEE7C046F0B5061C7A
:10C4D0004746041C103680B49846171C301C0A4A84
:10C4E000231C00F031FD051E09D1301C00F01CFE9C
:10C4F000434665712360A57127716572E560281C4C
:10C5000004BC9046F0BDC046E5C3010030B583B021
:10C510006A46041C0023D01DD3710D1C00F090F856
:10C52000A3792279DBB29A421CD06279013A934214
:10C530001BD021689A008C46624415600133217932
:10C54000DBB2002299420BD26B46A271D87900F07F
:10C5500097F8201C0021FFF79FFE002003B030BD9C
:10C560001A1CF1E76279002ADFD16B46D87900F016
:10C5700087F81120F2E7C046F0B54F464646041C46
:10C58000C0B41F1C002387B002AD281C894690460A
:10C590002B7000F055F8667AF6B2002E36D10123E2
:10C5A0002878637200F06CF8244B6C6002934B4661
:10C5B000AB6043462B736B46D81DDE7100F040F82C
:10C5C000A3792279DBB29A422ED06279013A934262
:10C5D0002DD021689A008C46624415600133217980
:10C5E000DBB20022994200D31A1C6B46A271D879A3
:10C5F00000F046F8201C0021FFF74EFE002F0ED160
:10C60000637A002BFCD1A07AC0B203E0287800F056
:10C6100037F8112007B00CBC90469946F0BD637AFC
:10C62000002BF0D0B847E9E76279002ACDD16B46FC
:10C63000D87900F025F81120ECE7C0468DC2010042
:10C64000F0B5EFF3108172B60A4B5A68002A0DD18B
:10C6500001248025084E5C607459084F3C401C60E2
:10C6600077510270002900D162B6F0BD012303703A
:10C67000F8E7C046B02D002000E100E0FC06FFBC5A
:10C6800010B5084B5A68002A0BD0002809D1EFF3E7
:10C69000108272B604491C680C605860002A00D1F0
:10C6A00062B610BDB02D002000E100E082B0019024
:10C6B000019B002B14D0019B0A48013B01930138D8
:10C6C000C046C046C046C046C046C046C046C0463A
:10C6D000C046C046C046C046F1D1019B002BEAD1FE
:10C6E00002B07047E703000030B5047885B0012C34
:10C6F00019D0022C34D0002C01D005B030BD274C0D
:10C70000274D201C291CFFF7AFFD002823D0A2686D
:10C71000E3689A42F1D1032302AA1370214B101C43
:10C720001B689847E9E743681F4D1978281CFFF7F5
:10C7300087FD002822D1AA68EB689B1A012B25D01F
:10C74000A968AA88EB685B1A9A42D6D301211748D8
:10C7500001F076F8D1E7281C012101F00FF8D6E7A7
:10C7600002AB1C70C368012110480193039301F0D0
:10C7700067F80C4B02A81B689847BEE702AB1C7019
:10C78000084B03901B6802A89847D9E702AB1870C2
:10C79000044B02A81B689847D2E7C046982C00209B
:10C7A0008C2C0020902C0020A82C0020942C002001
:10C7B000F0B51E1C214B051C89B00C1C1A6007200B
:10C7C000002906D08A881E480968FFF725FD002841
:10C7D00001D009B0F0BDA168A2891A48FFF71CFD7D
:10C7E0000028F6D16A46184B684692CB92C292CB8B
:10C7F00092C212CB12C2AB6806932B7906775A1EEF
:10C80000934103756B790E22591E8B415B421A408E
:10C810004275EB780D490293AB7803932B78019323
:10C820006B78009300F01AFF0028D2D101F0A0F835
:10C830000121074801F004F8CBE7C046902C002006
:10C84000A82C0020982C0020CCE90100E9C60100AA
:10C85000942C002038B50A4C051CA168A288E36816
:10C860005B1A9A4204D0201C291CFFF7FDFC38BD3E
:10C870000448012100F0E4FF0028F4D00520F6E789
:10C88000A82C0020942C002070B50D4D011C281CF4
:10C89000FFF7D6FC041E01D0201C70BD00F0C8FFBD
:10C8A0000028F9D1074E281C311CFFF7DDFC0028B9
:10C8B000F2D1301C012100F061FF041CECE7C046FE
:10C8C000982C00208C2C002010B500280BD1064C91
:10C8D0006368002B07D01A6800205B686260984785
:10C8E0006368002BF7D110BDB82C0020F0B50028EC
:10C8F00020DBFF271B4B03229C463B1C8408C026E1
:10C90000C0B20240D2009340A4006444B600A559CE
:10C910009D438B013B409340191C2943A1511F2388
:10C9200018401E3B8340C022181C0E4B52009850EA
:10C930001860F0BDFF260C4A03249446321C0F23D6
:10C94000C0B20440E400A2400340083B9B089B00A7
:10C950006344DD6995438A013240A240111C29439A
:10C96000D961DCE700E100E000ED00E0F0B544460D
:10C970005F4656464D46F0B49C4A87B01368002483
:10C98000012B00D1AEE09A4B1A68012A00D1B7E022
:10C99000984B1A68012A00D1C2E0974B1A68012A05
:10C9A00000D1CDE00022954B02921A68012A00D1F5
:10C9B000D8E023070BD0E30700D5DFE0A30700D5BD
:10C9C000EBE0630700D5F6E0230700D502E1002C79
:10C9D00006DB07B03CBC90469946A246AB46F0BD8C
:10C9E000002301270493C03399460126844D7F42DA
:10C9F00000230393E023DB0000249846231C4033EC
:10CA0000E95C4BB201332CD0C9B24B46081C9843A9
:10CA10003B1CC3401E4224D08B0901932B182033AA
:10CA20001B785BB29B00EB589C46002B35D0331C27
:10CA300083409A46019B032B35D0A023DB059B4600
:10CA4000434682005A44D3580592C02292021340B2
:10CA50001B0C191C53469346029A1A4212D1032901
:10CA600026D00134042CC9D1039B002BB1D0A223C2
:10CA7000A022DB00D205D358029A9A42A9D0049F83
:10CA80000293B5E70229ECD1019B032B16D0634634
:10CA9000002BE6D00199E047E3E7019B032BE0D1AF
:10CAA000331C83409A465246049B13430493C4E7C5
:10CAB000019B032BEBD180239B029B4643460599A8
:10CAC000CB589A4652464F4B134042468B508B5898
:10CAD0005A461A43131C42468B50039B0133DBB268
:10CAE0000393D4E7C1214848890041580B4200D143
:10CAF00049E73F4B14601A680134012A00D047E728
:10CB0000C12241499200895802220A4200D13FE7DE
:10CB100000211960374B14431A68012A00D03CE702
:10CB2000C12239499200895804220A4200D134E7CF
:10CB300000211960304B14431A68012A00D031E7F4
:10CB4000C12231499200895808220A4200D129E7BE
:10CB50000021144300221960284B02921A68012A0E
:10CB600000D026E700221A6080231B061C43A02267
:10CB7000A223D205DB00D35802931AE7A223224A4C
:10CB8000DB00D058D1581E4DC00489032B68C00E5D
:10CB9000890F9847A30700D413E71C4B1A4A184D76
:10CBA000D058D158C00489036B68C00E890F9847CC
:10CBB000630700D408E7A323134ADB00D058D158F9
:10CBC0000F4DC0048903AB68C00E890F9847230737
:10CBD00000D4FCE60C4A0E4B094DD058D158C00485
:10CBE0008903C00E890FEB689847F0E600610040AA
:10CBF00004610040086100400C6100407C6100401D
:10CC0000C42C0020FFFFFCFF006000401405000062
:10CC10001C05000008B5264B1A68002A05D0C12261
:10CC2000244992008A58D20327D4234B1A68002A39
:10CC300005D0C1221F4992008A58920326D41F4B67
:10CC40001A68002A05D0C1221A4992008A58520354
:10CC500025D41B4B1A68002A05D0C1221549920021
:10CC60008A58120300D408BD0022A6201A60154B72
:10CC7000400059681B689847F5E70022A0201A6019
:10CC8000104B400059681B689847CEE70022A2204D
:10CC90001A600C4B400059681B689847CFE7002288
:10CCA000A4201A60074B400059681B689847D0E7DA
:10CCB00040810040008000404481004048810040A5
:10CCC0004C8100400C2D0020F0B54D4644465F4697
:10CCD0005646F0B409AC25780AAC2478A4460C7802
:10CCE000002C17D11678B046922676008759B346A5
:10CCF000002F20D0331C243BFF3B845143610B7039
:10CD0000A8450FD00124201C3CBC90469946A24661
:10CD1000AB46F0BD9222002352008350083A835064
:10CD2000143A835082235B00C258002AEAD00022C2
:10CD30000024C250E7E78E267600B1468659B246F7
:10CD4000002E0BD04E4687515E468659002E23D0CA
:10CD50005B46C750012343610B70D1E78424640014
:10CD60000759002FCCD0564606515C460459002C7A
:10CD700022D111788D42C3D9A324E40004595C5414
:10CD800013780133DBB213706A1E93421DD09D42AB
:10CD9000B6D001230362B3E711788D4205D863460C
:10CDA000002B0FD00123C361ADE7595C094BC15083
:10CDB000137801331370A3E701235A468650436169
:10CDC0000B709DE7012343619AE7802302229B00B9
:10CDD000C250DEE71C050000F0B544465F465646EB
:10CDE0004D46F0B4822483B00192002264000A51BF
:10CDF00020340A51083C0A51143C0A51E23C0255C5
:10CE0000033C0255012B16D08022012492008C5045
:10CE100001220A620A600268002A16D0484B836029
:10CE2000826800207E33CA5003B03CBC90469946CD
:10CE3000A246AB46F0BD8022213C92008C500122DC
:10CE40000A620A600268002AE8D11D32FF32904669
:10CE5000143A9146043A92259246DE3A2327002658
:10CE600093466D000093C25D002A1DD15C46045DAF
:10CE7000A4464C59002C2AD142468A58002A2ED06A
:10CE800042468C504A59002A4CD15A46009B825C3B
:10CE900093424CD9019CA45C2A4A8C505A465C4669
:10CEA000825C0132025516E042464E518E504A468F
:10CEB0008E5052468A58002AD5D0822300225B0029
:10CEC000CA50E13BC35C002B2AD00320ACE74A5197
:10CED00001224A61C255009B6345C4D1E9E74C4633
:10CEE0000C59002CF7D04C460A514C59002CEED16D
:10CEF0005A46009B825C9342EDD9A324E4000C596E
:10CF0000019B9C545B46C25C0132D2B2C254009B6E
:10CF10005C1EA2420ED09342DDD001220A62DAE703
:10CF2000002081E701224C514A61C255D3E701221A
:10CF30004A61D0E78022022492008C50EDE7C0467F
:10CF4000860200001C050000F8B544465F464D46C9
:10CF50005646F0B404798446A0006D4F804600190F
:10CF6000C0003818203085780820002D05D03CBC42
:10CF700090469946A246AB46F8BD002900D1C3E0D1
:10CF800040460019C0003A503A185360002393609D
:10CF9000203253711371A0230A685E48C132FF32F8
:10CFA000DB059200D0504A68C132FF329200D05067
:10CFB0000120051C0A689540A122D2009D504D68B1
:10CFC000A84098500868544DC130FF308000C550CB
:10CFD0004868C130FF308000C55004200138C04689
:10CFE000C046C046C046C046C046C046C046C04611
:10CFF000C046C046C046F1D1A220C0008246474884
:10D000000026012583469146524648689A58C240F8
:10D01000154200D075E02A1C0868824058461A5014
:10D0200004200138C046C046C046C046C046C0467F
:10D03000C046C046C046C046C046C046F1D12A1CC4
:10D040000868824048461A5004200138C046C0464D
:10D05000C046C046C046C046C046C046C046C046A0
:10D06000C046C046F1D10136092ECDD14868012312
:10D070001A1C8240101CA022284DD20550510420B9
:10D080000138C046C046C046C046C046C046C0463D
:10D09000C046C046C046C046C046F1D1486883403D
:10D0A000A120C0001350A0220B681A48C133FF33DF
:10D0B000D2059B0098504B68C133FF339B009850BA
:10D0C0006346A1221B680D68D20048689D50134A30
:10D0D00098508868124A985043461B19DB00FB5849
:10D0E000002B06D063461868097B000B40B2FFF79F
:10D0F000FDFB01234444E4003F192037BB700020AE
:10D1000035E7002EB3D1CEE706482101411837E7B5
:10D11000182D00200C0600000D0600000C05000074
:10D1200024050000ECE90100A02203790168052034
:10D13000D20088509A00D318034ADB00D318022289
:10D1400020339A707047C046182D0020F0B54D4628
:10D150005F4656464446F0B485B00579930707D03C
:10D16000062005B03CBC90469946A246AB46F0BDB1
:10D170000668C22301209B004042F050AB005819C2
:10D1800098465A4BC0009C466044041C20342379C6
:10D19000A346002B05D0C12382689B00F2501120CA
:10D1A000DFE701279308BC469F43082313402771FC
:10D1B0000393D5D182619146021C0F1C02910C325F
:10D1C0001ACF1AC25946029B9A780A705A68C261ED
:10D1D0005A789246B1225746D200B7501A78012A9F
:10D1E00077D0002A4BD14B4664465A091440A446D6
:10D1F0003E4A434691465B19DB004B44203302997B
:10D200005C704A6892468A788221914600229A711F
:10D21000DA7001234900725020317250083972507F
:10D2200014397250F831725033622632B360815C27
:10D23000494528D25346595C2D4BF150835C01334C
:10D2400083544346294A5B19DB00D258002A21D077
:10D25000264A00209446274A63449A609A68C1236C
:10D260009B00F2504544214BED005B59002B00D050
:10D2700077E71E4A9446654420352B7171E70123F8
:10D2800001249C46B4E76246002A01D0F361D8E746
:10D290007361D6E7154A203394466344DA1C06339B
:10D2A00093461F1C4B4601940093301C59463A1C70
:10D2B0005346FFF709FD0028F4D143460B4A5B199A
:10D2C0009446DB0063442033DB78002B0BD0033023
:10D2D000C8E76A46127B029B4A705A68311C9B78E9
:10D2E000FFF77AFDBEE70020BCE7C046182D0020FE
:10D2F0001C05000086020000F0B544464D465F461E
:10D300005646F0B4B64B2321DA69585C9046202289
:10D310009C5C01329A5C89B09146002816D1262285
:10D32000922594469F5CAF4A6D005659AB46002E3D
:10D3300037D05051012050615854BC420FD009B031
:10D340003CBC90469946A246AB46F0BD92200021D7
:10D35000A44A40001150083811501438115082224C
:10D36000A049520088580028E9D000208850232086
:10D37000195C002926D11E7BB21E012A58D9191C1E
:10D3800005AA0C3170C970C2002204A802702422C0
:10D39000002199549A695207D1D459681B6898475B
:10D3A000CDE78E2040001558AA46002D1ED01650FD
:10D3B0005846105800286FD058461650012050612A
:10D3C0005854BAE7191C05AA0C3170C970C28649B5
:10D3D000844C04A8625862500221114203D15207C2
:10D3E000D5D50170D3E701220270D0E78420400038
:10D3F0001658002EA1D055461550584610580028F2
:10D400005AD1BC4299D9A3214046C9005158C155AF
:10D4100061466046595C0131C9B21954601E8142AF
:10D4200050D08C4200D188E701216E4A116284E716
:10D43000DA691C69A242A2D15A6901279046DA61D1
:10D440002022DC7B9C549A6952093A409146212261
:10D450004D469D54032E3AD08226624A7600915161
:10D4600020369151083E9151143E9151E23E99551A
:10D470001954012C50D08021890057500121594A5C
:10D4800011621160196800294BD058499960996858
:10D49000C1239B00D15052E7BC4205D84946002920
:10D4A0000DD00121D16162E74146C85D504950501D
:10D4B00061467A1C5A5440E750465D4639E70121DF
:10D4C00051613AE78021022089005050ACE7454E77
:10D4D000E332B1502032B150083AB150143AB15051
:10D4E000F832B150DB3AFF3A9954195494463762F6
:10D4F000B760002C26D04246107862463C497050F6
:10D500009F541A68002A24D0384A9A609968C12327
:10D51000344A9B00D15012E78021022089005050EC
:10D52000ACE71F1C26331E1C4546233700230094FE
:10D5300001932C48391C321C2B1CFFF7C5FB00281B
:10D54000F4D1FCE64A46002A01D0F761D9E77761B9
:10D55000D7E7922001322327002693462149400035
:10D560000394DA5D9446002A2BD10C582632924659
:10D570009A5C002C2CD18E256D004D59AC46002DA7
:10D5800038D08E256D004C510D58002D21D1039CB3
:10D59000944251D94446A45CA4466546144C0D51AE
:10D5A0005546541C5C55039C9442DAD182225200A9
:10D5B00094468A58002AD4D000226146094B5A501A
:10D5C000BDE68E2252000E508E50143A8E50EDE77A
:10D5D00064460C505C464C615C46DC55E3E7C04653
:10D5E000182D002000300040C40400008602000016
:10D5F0001C050000842464000D59002DD3D065461D
:10D600000D510C58002CE3D1039C9442CBD9A32498
:10D610004546E4000C59AC54544655461C5D013453
:10D62000E4B25C55039D013DAC420FD0039DA54281
:10D63000B9D05C460C62B6E74C46002C03D0012200
:10D64000054BDA617BE65C464C61ACE78024022541
:10D65000A4000D51EDE7C04600300040F0B557463C
:10D660004E464546E0B43B4C031CE27E0820002AAF
:10D6700004D01CBC90469946A246F0BD002B67D052
:10D6800001221868A1258240A020ED00C00542516A
:10D69000A94603251A68AA46C132FF3292001550E6
:10D6A00000255A68AC46C132FF32920015509F697E
:10D6B000294A2A4D57511D7DA84647465D7D3D4369
:10D6C000274FD5515D681F68A846264D57514746DC
:10D6D000254D57511D7D012D19D19F683E1CE02716
:10D6E0007F00B8464644B70066463E50DE68B54007
:10D6F0004E4685515646DD68C135FF35AD002E508A
:10D700004E46D8689D689051A220C00015501A69F5
:10D710006160226000290DD0197F0023134A14484C
:10D720001360144A1360C1230B4A9B00D05002209F
:10D73000FFF7DCF8A0230421074ADB00D1500023C7
:10D740000122E3752376A375E276A376002090E7A5
:10D75000094B95E7402D00200020004024050000E3
:10D760006C0500000C050000140500001C210040A1
:10D770008000020044210040FCE90100F0B5264A87
:10D78000041C937D1120002B00D0F0BD0125917564
:10D7900022482349938294600B6005600B60938A52
:10D7A000E05C938A1F4C01339BB293821E4BE05086
:10D7B0005068002801D00020E7E70027261C1D1C28
:10D7C0000130FF30947D938AA34203D312E0938A01
:10D7D000834202D00B68002BF9D0938A8342F2D0A7
:10D7E0000F60938A9468E45C938A01339BB29382BE
:10D7F0007451E7E78023918A5B0099420AD0084977
:10D800000B68002BFCD001210020084B196000237D
:10D810009375BAE70F20FAE7402D0020082000405A
:10D820001C210040002000401C0500000C2000408E
:10D83000024B987D431E9841C0B27047402D002096
:10D84000F0B5474680B4444B5A68002A05D081267B
:10D85000C224424DB600A4002E51DC7D002C0DD018
:10D860001C7E002C1DD0002A00D16EE08121C12336
:10D870003A4A89009B00D15011200FE0D975997E5A
:10D88000D8605C761C7600292BD0002A0DD081212F
:10D89000C1230020314A89009B00D15004BC90462E
:10D8A000F0BD18611976002AF1D12D4C2D4D226062
:10D8B0002A4A2D489046A322D20094462968066839
:10D8C0004A1E91412268C9B2571EBA41D2B2002EF7
:10D8D00010D1002A27D10029F0D000220320DA75C8
:10D8E000DCE7204A1160204A116001211B4A1160C7
:10D8F0005A68CAE70029F0D1002A16D1D97D00293B
:10D9000017D10160624641468A585A7ED97D9142BC
:10D91000D4D80022DA759B7E002B18D001220F4B41
:10D9200000201A60BAE70029D7D100220F20DA754B
:10D93000B4E74646614602605A7E7158DE68B154CB
:10D940005A7E0132D2B25A76DFE71120A6E70122D1
:10D95000064B00201A60A1E7402D00200020004067
:10D9600044210040242100400821004004200040C0
:10D97000064A937E002B07D105490B6005490B60D1
:10D98000054901330B6093767047C046402D002057
:10D99000242100400821004000200040C12210B591
:10D9A000604B92009A5884B092054DD55E4A11683A
:10D9B000002949D0002111608121C22289009200F2
:10D9C00099505A4B9A7E002A02D10121584A11607F
:10D9D000022269460A7090215248C90042584250BA
:10D9E00069460392DA7D68460A72DA68196801921C
:10D9F0000022DA751A765B6898474E4A1368002B46
:10DA000010D04A4B988A997D81424FD900211160EC
:10DA10009A8A9968895C9A8A013292B29A82464BB4
:10DA2000404AD150454B1A68002A0BD000221A6098
:10DA30003E4B9A7E002A02D001213A4A1160DA7DDB
:10DA4000002A42D104B010BDC123364A9B00D358EE
:10DA50005B07D2D53A490B68002BCED0334BD87D2B
:10DA600000283FD10860A321C90052585A7ED97DB1
:10DA70009142C2D11A7E002A41D19A7E002A02D157
:10DA800001212B4A11608120C22226498000920088
:10DA90008850002268460121DA755A7E01700272B0
:10DAA000DA68196801925B689847A6E70020106061
:10DAB0000029B7D06A46107011729A689875196873
:10DAC00001925B6868469847ACE7002268460121EE
:10DAD000DA755A7E01700272DA68196801925B6821
:10DAE0009847AFE700200860A320C000597E125875
:10DAF000D86842545A7E0132D2B25A76B6E7DA7505
:10DB00001A69D968DA6000226C46587E1A765A760D
:10DB10000132207201912270196868465B6898474B
:10DB20006BE7C0460020004024210040402D00202B
:10DB3000042000401C2100401C050000442100403E
:10DB400008210040304B1B78012B00D070472F4B31
:10DB50001B681B07FAD1F0222D4B1B68134027D1FD
:10DB60002C4B1B68134229D0284B1B681B07EDD197
:10DB7000F022274B1B681340402B32D0244B1A68ED
:10DB8000F0231340A02B01D0D02BDFD1214B1A68FA
:10DB9000F0231A42DAD1204A1368012B04D01F4B1C
:10DBA00013601368012BFCD1C0221D4B1A60CDE716
:10DBB000102B0FD1174B1B681342D9D1194A1A4B9E
:10DBC0001A608022194B12021A600F4B1B78012B2E
:10DBD000CAD0BBE7302BCBD10E4B1B681342C7D149
:10DBE000ECE70C4B1B681342C8D1C12380220121F2
:10DBF000DB00D205D150044B1B78012BA6D1034B7F
:10DC00001B681B07BAD0A1E7E00F00F0E40F00F09B
:10DC1000E80F00F0EC0F00F000EC064075930000F8
:10DC200014EC0640DFFF07C004050040186C0040FC
:10DC300052DF704710DF704760DF704761DF704769
:10DC400008B5FDF705FF08BDF0B54F464646C0B420
:10DC50002E4B2F4E1C68984663425C410025B1460E
:10DC60002C4F83B0E4B2002D07D0002C22D003B09B
:10DC70000CBC90469946F0BD012401A8FFF7D8FFDF
:10DC8000052832D0002826D0FDF7D2FE002CF3D193
:10DC90006A461F4B01A91B8893801E4B1C68201CE1
:10DCA000FFF7CCFF0528E7D000280ED0FDF7C0FE17
:10DCB0000024D8E73C68338801A9201C0B80FFF7BB
:10DCC000BDFF0528D3D00028F0D14346201C1B6897
:10DCD00098470024C7E70198FEF7F6FD0E4B1B6836
:10DCE000002BD3D001989847D0E7002CBFD14B46EA
:10DCF0006A461B8801A99380064B01251C68201CDD
:10DD0000FFF79CFF0528CFD1B1E7C046682D002062
:10DD10005E2D0020602D0020642D002038B5041CED
:10DD20000720002901D08D0700D038BD12480160BE
:10DD30001249201C0A80124A12491360FFF77AFF29
:10DD40000028F2D10122104B1A70C5220F4B92000D
:10DD50009A58520207D50E4A5068002805D18022F1
:10DD6000D2031A60E1E70B48DFE780211368C9039B
:10DD70000B4313600020D8E7602D00205E2D0020AB
:10DD80006C2D002041DC01005C2D002000E100E052
:10DD9000B02D002002200000002803D0024B1860A4
:10DDA000002070470E20FCE7682D002008B5094BC5
:10DDB0001B68002B06D09847002800D108BDFDF74E
:10DDC00037FEFBE7044B1B78002BF7D0FFF73CFF37
:10DDD000F4E7C0466C2D00205C2D002070B5141CAB
:10DDE000051C0E1C101C00211422FDF711FA002343
:10DDF00001222361237B2280934323732672657261
:10DE0000002D01D00123A372002070BD0020034B20
:10DE100082B00193019B02B07047C04600280020E9
:10DE200000B5054B83B00193019B69460093FFF752
:10DE300003FF03B000BDC0460028002003210A48AC
:10DE400002680A430260094802680A4302600849FE
:10DE5000084A094B9B1A03DD043BC858D050FBDC31
:10DE6000FFF770FEFDF75CF9240500405405004003
:10DE70005CEA01000028002094280020FEE7FEE76D
:10DE8000FEE7FEE7FEE7FEE7002243088B4274D37D
:10DE900003098B425FD3030A8B4244D3030B8B42AB
:10DEA00028D3030C8B420DD3FF22090212BA030CB4
:10DEB0008B4202D31212090265D0030B8B4219D395
:10DEC00000E0090AC30B8B4201D3CB03C01A5241B5
:10DED000830B8B4201D38B03C01A5241430B8B42FD
:10DEE00001D34B03C01A5241030B8B4201D30B03E6
:10DEF000C01A5241C30A8B4201D3CB02C01A52410D
:10DF0000830A8B4201D38B02C01A5241430A8B42CF
:10DF100001D34B02C01A5241030A8B4201D30B02B8
:10DF2000C01A5241CDD2C3098B4201D3CB01C01AD2
:10DF3000524183098B4201D38B01C01A52414309DC
:10DF40008B4201D34B01C01A524103098B4201D3CA
:10DF50000B01C01A5241C3088B4201D3CB00C01A37
:10DF6000524183088B4201D38B00C01A52414308AF
:10DF70008B4201D34B00C01A5241411A00D20146D4
:10DF8000524110467047FFE701B5002000F00CF841
:10DF900002BDC0460029F7D003B5FFF775FF0EBCE0
:10DFA0004243891A1847C0467047C046002310B53F
:10DFB000934203D0CC5CC4540133F9E710BD000098
:10DFC0000EB410B59DB002A9029008610B488224DE
:10DFD00088604861012040421FABC881084804CBDB
:10DFE000A400006801938C8100F074F80023029A69
:10DFF00013701DB010BC08BC03B01847FFFFFF7FB3
:10E00000602800200023C25C0133002AFBD1581E87
:10E0100070470000F0B58E6885B0071C0C1C039299
:10E020000193B34245D390238A89DB001A423DD045
:10E0300003250969236801985B1A029363695D43AC
:10E04000EB0F5D19029B6D1001331B189D4200D22E
:10E050001D1C381C53050FD5291C00F01DFB061E86
:10E0600013D0029A2169FFF7A1FFA289184B134030
:10E0700080221343A38111E02A1C00F065FB061ED9
:10E080000CD1381C216900F0C1FA0C234022012078
:10E090003B60A38940421343A38117E0029B2661A2
:10E0A000F61826606561019EED1AA560019BB342DA
:10E0B00000D2019E321C2068039900F092FA0020E1
:10E0C000A3689B1BA36023689E19266005B0F0BD62
:10E0D0007FFBFFFFF0B59FB0029005938B890E1C6C
:10E0E000171C1B0610D50B69002B0DD1402100F029
:10E0F000D3FA30603061002804D10C23029A013831
:10E100001360D0E040237361002306AD6B612033C0
:10E110006B761033AB763C1C2378002B03D1E31BCA
:10E12000049312D003E0252BF9D00134F4E7049BCB
:10E130000298311C3A1CFFF76DFF431C00D1ACE084
:10E140006A69049B944663446B612378002B00D179
:10E15000A3E00122002352426A6002A954325218FD
:10E1600001342B60EB60AB601370AB654F4F2178CF
:10E17000381C052200F02AFA002808D0C01B01270D
:10E180008740381C2B68013418432860EEE72B6861
:10E19000DA0604D55322202102A8121811701A079A
:10E1A00004D553222B2102A81218117022782A2A92
:10E1B00001D0099B0EE0059A111D12680591002AF5
:10E1C00001DB099204E05242EA60022213432B6011
:10E1D000013409E02278303A092A04D80A214B4355
:10E1E00001349B18F6E7099323782E2B18D1637816
:10E1F0002A2B09D1059B02341A1D1B680592002B9E
:10E200000DDA01235B420AE0002301342278303A20
:10E21000092A04D80A214B4301349B18F6E70793D7
:10E22000234F2178381C032200F0D0F9002807D0B2
:10E23000C01B40278740381C2B68013418432860D6
:10E2400021781C480622671C297600F0BFF90028B7
:10E2500012D0194B002B06D10722059B073393439D
:10E260000833059314E005AB00930298291C321C77
:10E27000124B00E000BF07E005AB00930298291C99
:10E28000321C0E4B00F08AF80390039B013304D03C
:10E290006B69039A9B186B613DE7B3890B985B062A
:10E2A00001D5012040421FB0F0BDC0461CEA01006C
:10E2B00022EA010026EA01000000000015E001004A
:10E2C000F7B5171C01930A698B6800900C1C9342E8
:10E2D00000DA131C221C3B6043321278002A01D062
:10E2E00001333B6023689B0602D53B6802333B60E9
:10E2F000062523681D401ED0231C43331B785A1E5D
:10E300009341226892061CD53020E1184031C87034
:10E31000211C5A1C45310978A21840320233D170B1
:10E320000FE0221C0123009801991932089EB04782
:10E33000431C0ED00135E3683A689B1A9D42F0DB1E
:10E34000DAE7221C009801994332089DA847431C34
:10E3500002D10120404220E006232068E1683A68AB
:10E3600003400025042B03D18D1AEB43DB171D401E
:10E37000A3682269934201DD9B1AED180027AF4282
:10E380000ADA221C0123009801991A32089EB0472C
:10E39000431CDED00137F2E70020FEBDF0B58BB0A4
:10E3A00006920A1C43320793059004920A7E0C1CC5
:10E3B000109B6E2A00D1A8E011D8632A22D009D878
:10E3C000002A00D1B2E0582A00D0C2E045310A70DC
:10E3D0007C4A4FE0642A1DD0692A1BD0B9E0732A19
:10E3E00000D1A7E009D86F2A29D0702A00D0B0E068
:10E3F000202209680A43226037E0752A1FD0782A54
:10E4000033D0A6E00E1C1A684236111D196013683D
:10E410003370A1E021681A68080606D4490604D5BD
:10E42000111D19600023D55E02E0111D19601568E9
:10E43000002D3BDA2D23049A6D42137036E02168DB
:10E440001A68080606D4490604D51568111D196016
:10E45000ADB202E0111D196015685A4B227E03937C
:10E460000A276F2A1DD108271BE0221C782145327C
:10E470001170554A19680392081D226818600D68CA
:10E48000100602D4500600D5ADB2D30702D5202322
:10E490001A4322601027002D03D1202322689A43BB
:10E4A0002260231C002243331A7002E00A27454BE6
:10E4B00003936368A360002B03DB0422216891436C
:10E4C0002160002D02D1049E002B0ED0049E281C3A
:10E4D000391CFFF75FFD039B013E5B5C281C33701A
:10E4E000391CFFF7D1FC051EF1D1082F09D1236893
:10E4F000DB0706D563682269934202DC3023013EC4
:10E500003370049B9B1B23612BE009681A68080683
:10E5100007D4490605D5111D19601368A28A1A800F
:10E5200004E0111D1960136862691A600023049EDB
:10E53000236116E01A68111D196016680021301C4D
:10E54000626800F043F8002801D0801B60606368B7
:10E5500003E0261C42363270012323610023049A13
:10E560001370079B05980093211C069B09AAFFF7CF
:10E57000A7FE431C02D10120404221E023690598F7
:10E580000699321C079DA847431CF4D023689B07BB
:10E5900005D4099BE068984212DA181C10E00025A7
:10E5A000E368099A9B1A9D42F3DA221C012305981D
:10E5B00006991932079EB047431CDCD00135EFE7BE
:10E5C0000BB0F0BD2DEA01003EEA0100C9B282188D
:10E5D000904204D003788B4202D00130F8E700204B
:10E5E000704710B5814208D28B18984205D29B1A09
:10E5F000013A09D3995C8154FAE70023934203D08E
:10E60000CC5CC4540133F9E710BD000030B50029DB
:10E610003ED004390B68002B00DAC9181D4A136874
:10E62000141C002B02D14B60116031E099420DD2D5
:10E6300008680A189A4203D11368C3180B6053681C
:10E640004B60216024E08A4203D8131C5A68002AD8
:10E65000F9D11D685C198C420BD1096869185818EA
:10E660001960904214D110685268091819605A60F4
:10E670000EE08C4202D90C23036009E008680C18F4
:10E68000944203D114685268001908604A605960C6
:10E6900030BDC046742D0020032370B5CC1C9C43B4
:10E6A0000834051C0C2C01D20C2405E0002C03DAE4
:10E6B0000C2300202B6042E08C42F9D3204A1368DF
:10E6C000101C191C002913D00A68121B0DD40B2A28
:10E6D00002D90A608B181FE08B4202D15A6802608F
:10E6E0001BE04A685A600B1C17E00B1C4968E9E7FD
:10E6F000144E3368002B03D1281C00F04BF8306017
:10E70000281C211C00F046F8031C421CD0D0032218
:10E71000C61C964386420AD11C60181C07210B3088
:10E720001A1D8843821A0AD05142995007E0311AC3
:10E73000281C00F02FF8431CBAD0331CECE770BD46
:10E74000742D0020702D0020F8B5061C0C1C151C23
:10E75000002904D1111CFFF79FFF041C18E0002AB8
:10E7600003D1FFF753FF2C1C12E000F025F8A8425C
:10E770000ED2301C291CFFF78FFF071E07D0211C6B
:10E780002A1CFFF713FC301C211CFFF73FFF3C1C29
:10E79000201CF8BD38B50023064C051C081C23605E
:10E7A00000F016F8431C03D12368002B00D02B6027
:10E7B00038BDC046B82D00200B1F1A68101F002A54
:10E7C00004DA891804390B68D0180438704700003F
:10E7D000044A1368002B03D018181060181C7047E7
:10E7E000014BF9E7782D0020C02D0020F8B5C04678
:10E7F000F8BC08BC9E467047F8B5C046F8BC08BCDB
:10E800009E467047430000000028002002010304D8
:10E810000000000000509D00474F54204954000064
:10E82000050000000F000000000098010300000038
:10E8300025B301000000000040E8010002000000D4
:10E84000F1E8010001D201008C2B00200ED3000062
:10E850006C000000680700001B0000006CE801006D
:10E8600001D201008C2B002001D3000075000000B4
:10E870006B0000001A0200005F5F5F5F5F5F5F5F19
:10E880005F5F00004D505536303530206275727331
:10E89000742072656164204552524F52000000009E
:10E8A0004D50553630353020494E49540000000057
:10E8B0004F4B202D202578004641494C2E20494EB3
:10E8C00056414C4944204150502046554E435449EE
:10E8D0004F4E2048414E444C455200004641494C61
:10E8E00020544F20494E4954204D50553635303034
:10E8F000003B00001C08000054E8010002D20000A8
:10E9000070E8010002D2000050E8010002D20000CD
:10E9100074E8010002D2000058E8010002D20000B1
:10E92000F4E8010002D20000000F0F000201040F02
:10E93000FFFE0F0B10010100000000000000C200EC
:10E940005F41445620494E495449414C495345443E
:10E9500000000000435542455F50524F544F0000A5
:10E96000242C0020000102034143435F583A202534
:10E97000640000004143435F593A202564000000D1
:10E980004143435F5A3A2025640000004759524FE3
:10E990005F583A20256400004759524F5F593A208A
:10E9A000256400004759524F5F5A3A202564000001
:10E9B0005F4D4F54494F4E2053544154453A202502
:10E9C00078202D2025640000482C0020090000003C
:10E9D0000B0000000A00000008000000000000001A
:10E9E0000000000000E0D701030000000700000065
:10E9F0001E00000000009801030000000900000054
:10EA00000B0000000A0000000800000000000000E9
:10EA10000000000000E0D70103000000232D302B90
:10EA20002000686C4C00656667454647003031320F
:10EA30003334353637383941424344454600303166
:10EA400032333435363738396162636465660000C5
:04EA500000000000C2
:08EA5400CCC6FF7F01000000A9
:10EA5C0000000000000000000000000000000000AA
:10EA6C00000000000000000000000000000000009A
:10EA7C0004E801000000000000000000000000009D
:10EA8C00000000000000000000000000000000007A
:10EA9C00000000000000000000000000000000006A
:10EAAC00000000000000000000000000000000005A
:10EABC000028002000000000000000000000000002
:10EACC0000000000003000400000000043554245AB
:10EADC005F50524F544F00FFE9B00100C1B001002C
:04EAEC000000000026
:040000031000DE3DCE
:00000001FF
